:100000000C94B1010C94F8010C94F8010C94F801D3
:100010000C94F8010C94F8010C94F8010C94F8017C
:100020000C94F8010C94F8010C946D1D0C943E1E78
:100030000C9494140C94F8010C94F8010C94F801AD
:100040000C94F8010C94F8010C94F8010C94F8014C
:100050000C94F8010C94DF140C94F8010C94F80142
:100060000C94F8010C94F8010C94F8010C94F8012C
:100070000C94F8010C94F8010C94F8010C94F8011C
:100080000C94F8010C94F8010C94F8010C94F8010C
:100090000C94F8010C94F8010C94F8010C94F801FC
:1000A0000C94F8010C94F8010C94F80150005200E3
:1000B000015151004F0000000000000028002A00FC
:1000C0001F001E00010020002100000000000000B1
:1000D00022002300010001000100010001000000D6
:1000E000000000000100010001000100010001000A
:1000F00001000000000000000100010001000100FB
:1001000001000100010000000000000001000100EA
:1001100001000100010001000100000000000000DA
:1001200001000100010001000100010001000000C8
:1001300000000000010001000100010001000100B9
:1001400001000000000000000100010001000100AA
:10015000010001000100000000000000010001009A
:10016000010001000100010001000000000000008A
:100170000100010001000100010001000100000078
:100180000000000001000100010001000100010069
:10019000010000000000000001000100010001005A
:1001A000010001000100000000000000010001004A
:1001B000010001000100010001000000000000003A
:1001C0000100010001000100010001000100000028
:1001D0000000000001000100010001000100010019
:1001E00001000000000000000100010004033000D5
:1001F0000000140353004E004D002D005400680011
:1002000075006D00620000000A035A006900540086
:10021000650000000403090409023B00020100A07C
:10022000FA09040000010301010009211101000184
:100230002240000705810308000A090401000103A8
:1002400000000009211101000122BC000705820302
:1002500020000A1201100100000008EDFE6060019C
:10026000000102030105010902A10185020901A1A2
:10027000000509190129051500250195057501815C
:1002800002950175038101050109300931158125A8
:100290007F95027508810609381581257F950175BE
:1002A000088106050C0A38021581257F950175081D
:1002B0008106C0C005010980A101850319012AB783
:1002C00000150126B700950175108100C0050C09C5
:1002D00001A101850419012AA002150126A0029599
:1002E0000175108100C005010906A10185050507FA
:1002F00019E029E715002501950875018102050718
:10030000190029EF1500250195F0750181020508F6
:100310001901290595057501910295017503910152
:10032000C005010906A101050719E029E715002507
:10033000019508750181029501750881010507196C
:100340000029FF150026FF009506750881000508A5
:100350001901290595057501910295017503910112
:10036000C00011241FBECFEFDAE0DEBFCDBF04B660
:1003700003FE27C080914A0290914B02A0914C024B
:10038000B0914D028730904BA740B04BD1F4109202
:100390004A0210924B0210924C0210924D0214BE6F
:1003A00084B7877F84BF0FB6F894A89580916000CA
:1003B000886180936000109260000FBEE0E0F8E377
:1003C000099511E0A0E0B1E0E4E1F1E402C005909C
:1003D0000D92AE37B107D9F722E0AEE7B1E001C028
:1003E0001D92AA34B207E1F70E949F1A0C94602074
:1003F0000C94000090E080E008950895089581E055
:10040000089581FF03C0549A5C9808955498FCCFD6
:1004100081E008950C94FF0108950C940C021F9341
:10042000CF93DF9300D000D00F92CDB7DEB74983D2
:100430005A836B8330918E0189819A8131111DC05D
:100440006623B9F02223A9F00E949111182F682F7A
:1004500089819A810E943A1169817A81812F0F9056
:100460000F900F900F900F90DF91CF911F910C94F0
:10047000BB020E946811182FEFCF0E949111698171
:100480007A81EDCFFC01262F4081518162817381F9
:1004900084810C940F02CF93DF93EC0160E00E9403
:1004A0004202BE01DF91CF910C940D020E94D51241
:1004B000811102C00E947C130C94C6040C94C804E1
:1004C0000C94010281E008950C946202CF93C82F2E
:1004D0000E9460028C2FCF910C94640208950E94B8
:1004E000A40C0E946E022FE78AE196E02150804022
:1004F0009040E1F700C000000C9403150F931F9388
:10050000CF93DF93EC0161E00E9442028C01BE01B7
:100510000E940A02882329F1BE01C8010E942A060E
:100520008823F9F0BE01C8010E946B068823C9F038
:10053000BE01C8010E948E07882399F08A81882312
:1005400039F001158CE5180751F00E3D1C4579F086
:10055000CE01DF91CF911F910F910C9408020E9460
:100560006F0280E0DF91CF911F910F9108950E945B
:100570007C13F7CF0895972F70E025E0929F600DD0
:10058000711D1124FB019AE0899FE00DF11D1124DA
:10059000EE0FFF1FE455FF4F859194910895FC01E4
:1005A000EE0FFF1FE451FE4F859194910895CF9374
:1005B000DF930E94BB020E94EC03EC01811520E551
:1005C000920708F042C0811530E4930708F0BDC0DF
:1005D000883E910528F5803E910508F09DC0883A37
:1005E000910588F4853A910508F08FC08130910516
:1005F00009F492C0009709F48FC0049708F08CC0EA
:10060000D0E0C0E089C08F3B910508F489C0805CD0
:100610009109C03CD105A0F30E94CF02EC017CC03F
:100620008115904250F4C11581E0D80708F074C0DC
:10063000C03FD10528F3D0656FC0C11590E3D9073D
:1006400008F079C0CE019F70E7CF811525E59207AC
:1006500058F5811534E5930708F0A6C0811542E5E9
:10066000940750F4C11581E5D80708F471C0DC2F58
:10067000CC27C16FD06A50C0982F969596959E0151
:1006800023703327C115D34508F07FC0C1E0D0E007
:1006900002C0CC0FDD1F2A95E2F720E2929FC00135
:1006A0001124C82BD92B6FC0C11589E5D807A8F430
:1006B000C11598E5D90708F07CC0C11526E5D20719
:1006C00008F09ECF8C2F0E948304C82FD0E0DC2F2F
:1006D000CC27CC27DF71D0621FC0C1153AE5D30704
:1006E00008F46CC0CE0190568115904208F088CF76
:1006F0008D2F8F710E94830490E0982F8827882780
:100700009F719C012C2BE901E6CFC55AD0E0CD5B4F
:10071000DE4FC881D0E0D064CE01DF91CF91089543
:10072000C85AD0E0CC0FDD1FCB5EDE4F0990D881D8
:10073000C02DD464F1CFCE019927D3FF03C0EC01C3
:10074000D86CEACFEC01D06CE7CFDF70D06AE4CF91
:10075000CE01E4E096958795EA95E1F783702C2F1A
:1007600026952695237090E2299F90011124382B1D
:100770008C2F8370C1E0D0E002C0CC0FDD1F8A95C2
:10078000E2F7C22BD32BDC68C7CFC1E0D0E002C0B8
:10079000CC0FDD1F2A95E2F730E2939FC0011124B0
:1007A000C82BD92BDA68B8CFD82FCC27C46FD06A22
:1007B000B3CFDC2FCC27C06FD06AAECF8C2F8F7019
:1007C0000E94830434E0D695C7953A95E1F7CF703F
:1007D0009C2FEC01D069A0CF82389105B1F1B0F423
:1007E0008133910509F475C048F48932910509F403
:1007F00069C08A32910509F473C008958533910563
:1008000009F459C08933910501F10895833E91059A
:10081000A9F138F4803E9105F9F0823E910549F145
:100820000895863E9105A9F1873E9105C9F1843E60
:10083000910519F520913C0221FF1FC080913B02D8
:1008400084FD14C087EE90E0089520913B02237050
:10085000A1F080EE90E0089520913B0220FD47C07A
:1008600030913C0230FF09C024FF44C090E080E09A
:1008700004C020913B0222FDF7CF089520913B0256
:1008800022FD3BC030913C0230FDE3CF24FFF5CF89
:10089000EDCF20913B0223FFF0CF24FDE7CFD2CF55
:1008A00020913B0223FD2CC030913C0231FFEECF62
:1008B00084EE90E0089520913B0225FFDECF89E28F
:1008C00090E0089520913B0225FFD7CF85E390E08B
:1008D000089520913B0226FFD0CF8AE290E0089550
:1008E00020913B0226FFC9CF81E390E0089589E380
:1008F00090E0089583EE90E0089582EE90E00895F0
:1009000086EE90E0089590913B0292FF06C0282F5A
:1009100028712830F9F4877F846093FF06C0282F60
:1009200028712831F1F4877E846120913C0220FFF8
:1009300006C0382F38713830D9F4877F816021FFA5
:1009400006C0282F28712831D1F4877E816194FD5B
:10095000877E0895282F24712430F9F68B7F8860D4
:10096000DCCF282F2471243101F78B7E8861DDCF05
:10097000382F3171313019F78E7F8860E0CF282F02
:100980002171213121F78E7E8861E1CF0C94FD0128
:100990000C94FE01E82FF0E0ED5CFD4F808108959E
:1009A000089580E58A95F1F70895CF93DF93229813
:1009B0002A9A26982E9AA6E4B1E04BE451E0C1E0D1
:1009C000D0E08D91E82FE295EF70F0E061A18F709B
:1009D0009E0101C0220F8A95EAF7922F90959623E7
:1009E00091A382A1822B82A34A175B0751F7109231
:1009F000310210923302109232021092340282E0DD
:100A00000E948605DF91CF910C9456028F929F929F
:100A1000AF92BF92CF92DF92EF92FF920F931F930C
:100A2000CF93DF938BE4A82E81E0B82E01E312E090
:100A3000912CCC24C394D12CF50181915F01C82F56
:100A4000C295CF70D0E099A18F70760101C0EE0CF5
:100A50008A95EAF7892F8E2989A38AA18E2C809402
:100A600088218AA30E94D104E6E4F1E050E040E04E
:100A700020E03191A32FA295AF70B0E090968C91B9
:100A800090E03F7002C0959587953A95E2F780FD1A
:100A900039C08C2D042E01C0880F0A94EAF7282B48
:100AA0004F5F5F4F4530510521F789A1882289A208
:100AB0008AA1E82AEAA2F8018081281729F1208377
:100AC00081E0982A0F5F1F4FFDE4AF16F1E0BF06EB
:100AD00009F0B2CF292D42E063E372E081E392E0B6
:100AE0000E9487050E945E02892DDF91CF911F91A0
:100AF0000F91FF90EF90DF90CF90BF90AF909F90BD
:100B00008F90089580E0CBCF80E0DBCF0895FF92F7
:100B10000F931F93CF93DF93F82E092F162FD72F04
:100B2000C42F222349F081E0809380010E94C414E5
:100B300090937F0180937E01809180018823A1F0B2
:100B400080917E0190917F010E94D014069760F001
:100B5000EF2DF02FA12FBD2FCE0FDF2FD11DEC17C2
:100B6000FD0741F410928001DF91CF911F910F9109
:100B7000FF90089581918D93F2CF0F931F93CF93A0
:100B8000DF93C62FD42F022FFC0182818823C9F066
:100B9000609383010E94C414909382018093810129
:100BA00080E28C0F883008F050C0C77081E001C02F
:100BB000880FCA95EAF7DF91CF911F910F910C949E
:100BC000010A10918301161335C080918101909123
:100BD00082010E94D014883C910560F5C0E2CD0FDF
:100BE0001D17B9F080E2810F883040F4177081E062
:100BF00001C0880F1A95EAF70E94080AC83048F425
:100C000081E09D2F977001C0880F9A95EAF70E94A6
:100C1000010A802F0E94EE09C830B8F4D77081E035
:100C200001C0880FDA95EAF7DF91CF911F910F91FC
:100C30000C94080A80E28C0F883038F4C77081E089
:100C400001C0880FCA95EAF7EFCFDF91CF911F91CE
:100C50000F9108959C01CB01233F4CE5340731F1FE
:100C600090F4283DFCE53F07E9F0293D4CE53407C9
:100C700069F1273D3C4579F426E241EE61EE0E94A0
:100C8000BD0580E00895253FFCE53F07B9F090F0F1
:100C9000263F3C45B9F0FC0182818823D1F01092B7
:100CA0008301089527E245EE65EEE9CF26E241EEA5
:100CB00060EEE5CF27E245EE64EEE1CF26E241EEBD
:100CC00062EEDDCF27E245EE66EED9CF28E241E0C5
:100CD000EBCF81E00895CF93DF93EC01FB0182819C
:100CE000882309F419C1C230FCE5DF07C0F1C63121
:100CF0009CE5D90730F09E012A5F3C45293031053B
:100D000070F50E94F21290933C0280933B02C03136
:100D1000ECE5DE0709F4CFC008F05BC0C8308CE515
:100D2000D80709F4B6C088F5C430ECE5DE0709F44D
:100D3000A8C0C0F4C2308CE5D80709F49CC08091EB
:100D40003B028260C330DC4509F498C080913B02CD
:100D500090913C020E9400130E94A40C80E0DF915D
:100D6000CF91089580913B028061C630ECE5DE07AB
:100D700009F484C080913B028860C730DC4508F4E8
:100D80007DC080913B02806279C0CC308CE5D80771
:100D900009F489C070F480913B028C60CA30ECE5A4
:100DA000DE0709F46BC008F478C080913B028E7FA7
:100DB00065C0CE308CE5D80709F479C080913B023C
:100DC0008B7FCF30DC4508F459C080913B028F7E89
:100DD00055C0CB3FECE5DE0709F457C030F5C33111
:100DE0008CE5D80709F46FC078F4C131ECE5DE0773
:100DF00009F465C0C231DC4509F0A8CF0E94A40CFB
:100E000080913B028F773AC0C5318CE5D80709F451
:100E100062C008F476C080913C028160CA3FDC4524
:100E200009F094CF80933C0291CFCF3FFCE5DF07E0
:100E300009F44DC088F480913C028D7FCD3F9CE544
:100E4000D90781F380913C028E7FCE3FDC4550F381
:100E500080913C028360E6CFC130FDE5DF0709F4F5
:100E600059C008F444C080E0C230DD4509F06ECFBF
:100E70000E947E136BCF80913B02816080933B0286
:100E800065CF80913B028460F9CF80913C02826003
:100E9000C9CF80913B028064F1CF0E94A40C809165
:100EA0003B028068EBCF80913B028D7FE7CF809142
:100EB0003B02877FE3CF80913B028F7DDFCF809124
:100EC0003B028F7BDBCF80913B02837FD7CF80912A
:100ED0003C028C7FA7CF80913B0282FB992790F93F
:100EE00021E0922790FB82F990FB83F9C7CF809194
:100EF0003C02982F909591708E7F892B90FB81F901
:100F000091CF0E94A40C90913B02892F97FB87F907
:100F10008058B4CF81E0ACCF81E021CFCF93DF9375
:100F2000EB0186319C4511F50E9426129A81992386
:100F300099F08A7A91E009F490E09093840181110C
:100F400009C089E20E9401120E94721280E0DF91C2
:100F5000CF91089585E3F6CF80918401811104C07B
:100F600089E20E940812F0CF85E3FBCF81E0EFCF4A
:100F700090938A01809389010895E0918901F0910D
:100F80008A01309721F00190F081E02D099480E0F2
:100F90000895E0918901F0918A01309799F02091AC
:100FA0001401222359F020913B0227FF07C0DC01E6
:100FB0002C9111962C93119725E02C930280F381AC
:100FC000E02D09940895E0918901F0918A0130970C
:100FD00039F022E0DC012C930480F581E02D0994A6
:100FE000089520918701309188012817390771F001
:100FF0009093880180938701E0918901F0918A01A3
:10100000309721F00680F781E02D09940895209112
:101010008501309186012817390771F09093860178
:1010200080938501E0918901F0918A01309721F048
:101030000084F185E02D0994089585B7806885BF07
:1010400085B7806885BF0895089508950C94240895
:1010500008950C9428080E941D080E9425080C94ED
:10106000260881E008950C9431080E94BB140E9468
:10107000D5040E9457150C942908AF92BF92CF92C5
:10108000DF92EF92FF920F931F93CF93DF93CDB731
:10109000DEB72A970FB6F894DEBF0FBECDBF0E9411
:1010A00006050E943308882309F45FC08CE8A82E47
:1010B00081E0B82E10E000E0C02E802F0E94CA040C
:1010C000E82EF501D1905F01D81609F44BC080914C
:1010D000FE0181FD0E94D00480E0FF24F394DE2411
:1010E0009D2D9F21D1F18E83CF82EF2081E009F4E5
:1010F00080E088870E94C4148160782F9A8789874E
:101100004E815F8168858A850E94D708F801E4577F
:10111000FE4F8081F826F0820E94E6170E94BD07EC
:1011200090918B01891791F10E94BD0780938B01EB
:101130002A960FB6F894DEBF0FBECDBFDF91CF91D8
:101140001F910F91FF90EF90DF90CF90BF90AF90E5
:101150000C94660201E010E0AFCF8F5FFF0C85308A
:1011600009F0BECF01301105A9F78FEF89838A837B
:101170001B820E94C4148160782F9D838C834981D7
:101180005A816B818D810E94D708C6CF2A960FB6EF
:10119000F894DEBF0FBECDBFDF91CF911F910F91AD
:1011A000FF90EF90DF90CF90BF90AF900895CF93D6
:1011B000DF93CDB7DEB72B970FB6F894DEBF0FBE27
:1011C000CDBF4F83588769877A878B871E821D82A0
:1011D00085E0FE013796DE01119601900D928A9509
:1011E000E1F749815A816B817C818D819E812B96AB
:1011F0000FB6F894DEBF0FBECDBFDF91CF910C9438
:101200001A0FFC01808191810C94D311CF93C82FC8
:10121000882309F48BC08238C1F40E94BD0781FD88
:1012200085C089E30E9401120E9472122FEF80E7AD
:1012300092E0215080409040E1F700C0000089E337
:101240000E940812CF910C9472128338A1F40E946C
:10125000BD0780FD6BC083E50E9401120E947212DF
:101260002FEF80E792E0215080409040E1F700C0EE
:10127000000083E5E5CF8438A1F40E94BD0782FD1C
:1012800055C087E40E9401120E9472122FEF80E77E
:1012900092E0215080409040E1F700C0000087E4D8
:1012A000CFCF8CEF8C0F813A90F46C2F809100019E
:1012B000909101010E949713882329F08C2F0E949E
:1012C00008120E9472128C2F0E940112BBCF80E282
:1012D0008C0F883048F4C77081E001C0880FCA9530
:1012E000EAF70E942912AECFEBE5EC0FE33040F4B1
:1012F000F0E0E558FE4F808190E0CF910C94F1072B
:10130000E8E5EC0FE73150F4F0E0EE0FFF1FE35B90
:10131000FE4F80819181CF910C940708C03F30F03F
:101320008C2F0E94F416CF910C94DB17CF91089567
:10133000882309F452C0823871F40E94BD0781FFEE
:101340004CC089E30E9401120E94721289E30E943C
:1013500008120C947212833859F40E94BD0780FF62
:101360003CC083E50E9401120E94721283E5EFCF18
:10137000843859F40E94BD0782FF2FC087E40E9481
:1013800001120E94721287E4E2CF9CEF980F913A0B
:10139000F0F290E2980F983050F4877091E001C01D
:1013A000990F8A95EAF7892F0E942F12D2CF9BE5D9
:1013B000980F933020F490E080E00C94F10798E5CA
:1013C000980F973120F490E080E00C940708803F5C
:1013D00020F00E945C170C94DB170895CF93C82F60
:1013E0000E940609C93349F42FEF83EF91E02150A1
:1013F00080409040E1F700C000008C2FCF910C940A
:101400009809882321F00E9429120C9472120895E1
:10141000882321F00E942F120C9472120895BF921B
:10142000CF92DF92EF92FF920F931F93CF93DF93B0
:101430006C01D62FC72FFC01058102950F70128118
:1014400011110E9446120E941F12E82E882371F08B
:101450001123B1F080E28D0F883090F082E00E947D
:10146000BD120E941F1291E0E82EE926BC2EB29414
:101470009FE0B922EB2DF0E0EE59FF4D0C940420D3
:10148000E12CF4CF0C2F0F70C07F11F00295007F7C
:101490001123A9F0002359F080E28D0F883010F05D
:1014A000D11109C0802F0E9429120E9472128D2F23
:1014B0000E94060914C0802F0E943912F6CF8D2F8A
:1014C0000E949809002359F080E28D0F883010F0B7
:1014D000D1112CC0802F0E942F120E9472122B2D2E
:1014E0002850330B2430310520F40E94BD070E94A0
:1014F0006602EE2009F4D5C10E941B1280FDD1C105
:10150000F60112820E9415120E949E10C6010E94CE
:10151000720C0E941512DF91CF911F910F91FF90D5
:10152000EF90DF90CF90BF900C94BF10802F0E945F
:101530003F12D3CFFC2FFF70FF2EC07FC03219F0B7
:10154000F29480EFF822DD2369F0D13049F11123C4
:1015500091F1002351F1F601858180FFA8CF8F70B2
:10156000858323C0112381F0011106C00E94591206
:101570008F290E94010AB3CF0130C1F70E9459128E
:101580008F290E945F12ABCF011106C00E94681222
:101590008F2D0E94080AA3CF013009F4A0CFF6CF07
:1015A000112329F0063008F09ACF8F2DE2CF0530B5
:1015B00008F095CFEDCF002359F3D93349F4FFEF6D
:1015C00023EF31E0F15020403040E1F700C000004F
:1015D0008D2F0E94980983CF8C2F869586958370D6
:1015E00069F0813009F07BCF8D2F9C2F9370111102
:1015F00002C090E080E00E94070871CF8D2F9C2FE1
:101600009370111102C090E080E00E94F10767CF53
:10161000112309F1D53F99F0D63FB9F0D43F49F4F1
:1016200080913502909136028160909336028093CA
:1016300035028D2F0E94F4160E94DB1750CF809147
:101640003502909136028260F0CF80913502909100
:1016500036028460EACFD53F89F0D63FA9F0D43F67
:1016600049F480913502909136028E7F9093360234
:10167000809335028D2F0E945C17DECF809135025A
:10168000909136028D7FF2CF809135029091360293
:101690008B7FECCF8C2F837009F041C011111FCFCD
:1016A0004D2F429546954770440F440F0D2F0F70F4
:1016B00010E030E020E0042E04C0000F111F221FB4
:1016C000331F0A94D2F760E070E0CB01D4FF0FC063
:1016D0006FE070E080E090E004C0660F771F881F25
:1016E000991F4A95D2F76095709580959095C6950B
:1016F000C695C370602B712B822B932BC23049F09F
:1017000058F4C13019F00E945010E9CE0E943E10EA
:10171000E6CE0E946210E3CE0E943C10E0CE869599
:10172000112311F08C2F8170882309F4D8CE4D2F0E
:10173000429546954770440F440F0D2F0F7010E0EF
:1017400030E020E0042E04C0000F111F221F331FC1
:101750000A94D2F760E070E0CB01D4FF0FC06FE0D5
:1017600070E080E090E004C0660F771F881F991F2B
:101770004A95D2F76095709580959095C695C695D7
:10178000C370602B712B822B932BC23049F058F41D
:10179000C13019F00E941511A2CE0E9403119FCEF4
:1017A0000E9427119CCE0E94781099CECF701123F1
:1017B00029F08C2F0E949E108D2FDBCE8D2F0E9442
:1017C000080A8C2F0E94BF108ACED23F89F160F4A4
:1017D000D03FC9F0D13F29F1112309F442C00111D2
:1017E00066CE8C2F8F7121C0D33F39F1D43FA1F742
:1017F000112369F1CF718C2F0E949E1063E08C2F12
:101800000E94A8126CCE112341F0053008F067CE7B
:101810008C2F8F710E94E21062CE063008F05FCEEE
:10182000F7CF8C2F8F71112369F20E949E1057CE33
:101830008C2F8F711123C9F3C5CF112329F08C2F61
:101840008F710E9489104BCE0E94841048CE81E097
:101850000E94BD12023008F442CE82E00E94BD1206
:101860003ECE002359F0D93309F0B2CE8FEF93EF7B
:10187000E1E081509040E040E1F7A8CE8C2F8F71DD
:10188000A1CF4C2F4F706D2FC6010E94FA010E940C
:10189000B40F25CE4C2F4F706D2FC6010E94BA0297
:1018A0001ECEDF91CF911F910F91FF90EF90DF90AF
:1018B000CF90BF9008950F931F93CF93DF93EC01C8
:1018C000688179818A810E94DD118C010E94391121
:1018D0000E943B10B801CE01DF91CF911F910F9173
:1018E0000C940F0ACF93DF93EC018B819C81892BA1
:1018F00029F08881998189238F3F19F4DF91CF9155
:101900000895CE010E947E028823C1F3CE010E9479
:101910005B0CCE01DF91CF910C944B020E944612DA
:101920000E9456120E9472120E9400190E94DB1738
:1019300090E080E00E94F10790E080E00C940708BE
:101940000E940F120C948E0C0E9436120C94A00C64
:10195000E92FE295EF70E250EE3070F4F0E0EE58CF
:10196000FF4D0C940420803F19F020F4883E20F4B1
:1019700081E00895843FE1F380E00895883EC0F35C
:10198000813FD1F7F5CF93FB882780F908950E9416
:10199000D3110C94A80CCF93DF9300D000D00F92FA
:1019A000CDB7DEB70F900F900F900F900F90DF9193
:1019B000CF910895CF93DF9300D000D000D0CDB762
:1019C000DEB726960FB6F894DEBF0FBECDBFDF910F
:1019D000CF9108951F93CF93DF93C0918F0116E0AD
:1019E000809190018C1304C0DF91CF911F910895D5
:1019F000D0E01C9FF0011D9FF00D1124EF56FE4F0B
:101A00004081518162817381848195810E94DA0CC9
:101A10002196C770E5CF4091C1015091C2016091FC
:101A2000C3017091C4018091C5019091C6010C94CD
:101A3000DA0C1F93CF93DF938091C601807FA9F4C6
:101A40008091C301882389F080918F01C09190011A
:101A50006091C1017091C201A091C401B091C50112
:101A6000D62FD72316E0C81304C0DF91CF911F9162
:101A7000089590E0109711F0DF3F19F401968770F8
:101A8000F2CF189F9001199F300D1124F901EF56E4
:101A9000FE4F41814713F2CF40814613EFCF428181
:101AA0004111ECCF438154814A1B5B0B483C5105EB
:101AB00028F78091C6018F7080618093C601F9017B
:101AC000EA56FE4F80818F708061808381EC91E0C7
:101AD0000E94720CDF91CF911F910C94EA0CAF928F
:101AE000BF92CF92DF92EF92FF920F931F93CF930B
:101AF000DF93CDB7DEB761970FB6F894DEBF0FBEA8
:101B0000CDBF8C0185E0F801DE011D9601900D929C
:101B10008A95E1F7F80140815181E28081ECC82E7D
:101B200081E0D82E6091C4017091C50161157105E5
:101B300009F461C19091C1012091C201892F8223D2
:101B40008F3F09F458C1A380B480F090C301F50120
:101B5000E61BF70BFF2009F4FCC08091C601382F6B
:101B6000307FE83CF10508F0B2C0311179C0FE2C9D
:101B7000251323C0941321C0E1101FC08F70806112
:101B80008093C6010E940B0DC6010E94720C8091C9
:101B9000C601F80185838F2D61960FB6F894DEBFDC
:101BA0000FBECDBFDF91CF911F910F91FF90EF90AE
:101BB000DF90CF90BF90AF900895AB2829F0842F8D
:101BC00085238F3F09F033C180E0F82FF170DF2EBD
:101BD00080FF3CC080918F012091900136E08213FC
:101BE00015C04D875E878D859E850E94D311292F54
:101BF00022952F702230F0F0243018F59F70F1F00C
:101C0000F8019581907FD1F4D12C1EC090E0389FCF
:101C1000F001399FF00D1124EF56FE4F61816513DD
:101C200006C06081641303C062816E110FC001960B
:101C30008770D5CF9F7011F0882331F3805E883094
:101C400018F3C8010E94720CFD2CA5CFEE2009F4F8
:101C5000A2CF8091C60181608093C601F12C9BCFF9
:101C6000251306C0941304C0F801EE2009F48DC0BA
:101C70004D875E878D859E850E94C70C882319F14C
:101C8000EE2009F18091C601803270F02091C101EF
:101C90003091C20138872F831986BB86AA868C872C
:101CA000CE0107960E94720C86E0F801A1ECB1E02B
:101CB00001900D928A95E1F70E94190D0E940B0D7B
:101CC000FF24F39468CFC8010E94720CF9CF311140
:101CD00013C07A2DB98AA88A6E2D89890E94CB0CEF
:101CE00081EC91E00E94720C86E0F60111928A95D7
:101CF000E9F70E940B0DB2CF25130FC094130DC04E
:101D0000E1100BC0F8018583C8010E94720C86E0C7
:101D1000F60111928A95E9F73ECF4D875E878D8552
:101D20009E850E94C70C882371F2EE2061F280919B
:101D3000C601803208F4B8CF2091C1013091C201B0
:101D40003A8329831B82BD82AC828E83CE010196A9
:101D5000A9CFE83CF10508F041C0FE2CEE2009F4C3
:101D6000B2CF25132AC0941328C08091C60180FDEC
:101D70001BC0982F907FC1F0F8018583903F31F010
:101D8000982F907F905F8F70892B8583C8010E9468
:101D9000720C86E0F801A1ECB1E001900D928A95F9
:101DA000E1F70E940B0DF7CE86E0F801A1ECB1E05F
:101DB00001900D928A95E1F7EECE4D875E878D8575
:101DC0009E850E94C70C81116FCF8091C6018160F2
:101DD0008093C601C8010E94720CDDCE7A2DB98AAB
:101DE000A88A6E2D89890E94CB0C86E0F60111929B
:101DF0008A95E9F7D6CFEE2009F465CF4D875E8747
:101E00008D859E850E94C70CF82E882309F45BCF30
:101E100086E0F801A1ECB1E001900D928A95E1F71E
:101E200081EC91E00E9401090E94190DBACF81E076
:101E30008E25CBCE1F93CF93DF93CDB7DEB72C97F4
:101E40000FB6F894DEBF0FBECDBF4F8358876987AA
:101E50007A878B879C87CE0107960E946F0D882317
:101E600069F08A859B85892B39F04F815885842FAD
:101E700085238F3F09F071C016E05FC086E0FE0148
:101E80003796DE01119601900D928A95E1F78A85C9
:101E90009B85892B89F388859F8189238F3F61F3F7
:101EA0002091900130E0C9010196877099274091F7
:101EB0008F014817190671F40E94A40C109290012A
:101EC00010928F0186E0E1ECF1E0DF011D928A952E
:101ED000E9F7D2CF96E0929FD001939FB00D1124E5
:101EE000AF56BE4FFE01319601900D929A95E1F7E3
:101EF000809390010E94EA0CBFCF819FC001112402
:101F00008F569E4F0E946F0D8823E9F0E0918F015C
:101F10001E9FF0011124EF56FE4F408151816281D6
:101F20007381848195810E94DA0C80918F0190E009
:101F300001968770992780938F0180918F019091EE
:101F400090018913DACF2C960FB6F894DEBF0FBE3E
:101F5000CDBFDF91CF911F91089569857A858B85DB
:101F60009C850E94DA0C88CFEF92FF920F931F930B
:101F7000CF93DF938C01892B81F0F12CEE24E39435
:101F8000E8012196F8018491843770F4843008F0D8
:101F90005FC08130B1F08230A1F1DF91CF911F910C
:101FA0000F91FF90EF900895853709F44CC008F425
:101FB0003DC09CE7980F903780F78F770E94980973
:101FC00049C00E5F1F4FFE01849190E2980F983038
:101FD00060F48770FE2D01C0FF0F8A95EAF78F2FFE
:101FE0000E9449120E94721202C00E9406098F2D9F
:101FF000815030F2EFECF7E03197F1F700C00000CC
:10200000F7CF0E5F1F4FFE01849190E2980F98303A
:1020100050F48770FE2D01C0FF0F8A95EAF78F2FCD
:102020000E944F12DFCF0E949809E1CF0E5F1F4F31
:10203000FE01C491C150D8F28FEC97E00197F1F7FF
:1020400000C00000F7CF0E5F1F4FFE01F490CFCF0E
:102050000E9406098E01CBCF08950C942C100E948B
:102060002D106093D5017093D6018093D701909382
:10207000D8010C948E0C08950C942F100F931F937D
:102080000091D5011091D6012091D7013091D8014E
:10209000602B712B822B932B1F910F910C942F107F
:1020A0000F931F930091D5011091D6012091D70174
:1020B0003091D80160237123822393231F910F91C4
:1020C0000C942F100F931F930091D5011091D601FE
:1020D0002091D7013091D80160277127822793275B
:1020E0001F910F910C942F100C942C100C947410C1
:1020F0000E9476106093D1017093D2018093D30136
:102100009093D4010C948E0C60E070E0CB010C94A1
:1021100078100F931F9341E050E060E070E08A0177
:102120009B0104C0000F111F221F331F8A95D2F795
:10213000C901B8011F910F910C9478100F931F9350
:1021400041E050E060E070E004C0440F551F661F9E
:10215000771F8A95D2F78091D1019091D201A091F9
:10216000D301B091D4018A019B01082B192B2A2B92
:102170003B2BC901B8011F910F910C9478100F935C
:102180001F9341E050E060E070E004C0440F551F31
:10219000661F771F8A95D2F7CB01BA0160957095BB
:1021A000809590950091D1011091D2012091D30199
:1021B0003091D40160237123822393231F910F91C7
:1021C0000C9478100F931F9341E050E060E070E0B2
:1021D00004C0440F551F661F771F8A95D2F7809160
:1021E000D1019091D201A091D301B091D4018A0183
:1021F0009B01082719272A273B27C901B8011F91EE
:102200000F910C9478100F931F930091D1011091AE
:10221000D2012091D3013091D401602B712B822BFC
:10222000932B1F910F910C9478100F931F93009193
:10223000D1011091D2012091D3013091D4016023BA
:102240007123822393231F910F910C9478100F9385
:102250001F930091D1011091D2012091D3013091AF
:10226000D40160277127822793271F910F910C9427
:1022700078100895E92FEE0FEE0F9E0F890F982F1B
:10228000977041E001C0440F9A95EAF786958695CC
:10229000869595E0899FF0011124E953FE4F30E0C7
:1022A00020E070E05191DF011197CB01022E02C0B6
:1022B000969587950A94E2F7817081958527842306
:1022C00085278C932F5F3F4F2530310559F70895AF
:1022D000E92FEE0FEE0F9E0F890F982F97708695BE
:1022E0008695869525E0829FF0011124E953FE4FE3
:1022F00050E040E080E0219130E0092E02C03695A8
:1023000027950A94E2F721703327042E01C0220F8B
:102310000A94EAF7822B4F5F5F4F4530510559F71A
:102320000895BF92CF92DF92EF92FF920F931F9387
:10233000CF93DF938C01C090D101D090D201E09077
:10234000D301F090D4018091D5019091D601A09154
:10235000D701B091D801C82AD92AEA2AFB2ACFE1AD
:10236000D0E0BC2ED701C6010C2E04C0B695A795AF
:10237000979587950A94D2F780FD0EC0219788F72C
:10238000B12C8B2DDF91CF911F910F91FF90EF908A
:10239000DF90CF90BF900895B8018C2F0E94D70294
:1023A000019761F3EECFCF93DF93EC010E9491117F
:1023B000BE01DF91CF910C94D7021F93CF93DF938F
:1023C000EB0190918E01992331F0CB01DF91CF91F8
:1023D0001F910C94D311882379F0CB010E949111A5
:1023E000182F682FCE010E943A11BE01812FDF9174
:1023F000CF911F910C94D702CB010E946811182F26
:10240000F4CF682F80910001909101010C94171472
:10241000682F80910001909101010C942214809109
:102420000001909101010C942D148091D9018595A2
:102430008595859508958091D9018770089590912B
:10244000D901977081E009F480E008958091FD0141
:1024500008959091FD01892B8093FD010895809549
:102460009091FD0198239093FD0108951092FD0134
:1024700008959091FC01892B8093FC01089580952B
:102480009091FC0198239093FC0108951092FC0117
:1024900008959091FB01892B8093FB01089580950D
:1024A0009091FB0198239093FB0108951092FB01FA
:1024B00008958091DA01089508950C945C1290912A
:1024C000DA01981721F08093DA010C945D120895D7
:1024D0008091DA01882329F01092DA0180E00C94CF
:1024E0005D120895E0910001F09101018091FD01DC
:1024F0008083E0910001F091010180819091FC01C5
:10250000892B8083E0910001F091010180819091FD
:10251000FB01892B80839091DA01992381F0E0916E
:102520000001F09101018081892B8083809100015D
:10253000909101010E94831381110E946812809181
:102540000001909101010C94C90708950C94A51203
:1025500098E0899F90011124622B6093D9010E9419
:102560009E108091D9018595859585950C94A6122C
:102570001092D90180E00C94A6129091D901809517
:1025800089238093D901282F277071F4282F082ED2
:10259000000C330B9217130639F0859585958595B8
:1025A0000E94BF100C94B812089590E080E00E9441
:1025B000262021E08C3E9E4F09F020E0822F0895D6
:1025C00082E090E00C941E20682F82E090E00C9452
:1025D0002C2083E090E00C941E20682F83E090E094
:1025E0000C942C20CF9384E090E00E941E20C82FF2
:1025F00081E290E00E941E20982F8C2FCF910895A9
:10260000CF93C92F682F84E090E00E942C206C2F7C
:1026100081E290E0CF910C942C20AB01BC018FE0C3
:1026200090E00C943E20AB01BC0183E190E00C945F
:102630003E2060E070E0CB010C94131360E070E08A
:10264000CB010E940D130C9419136CEE7EEF90E0F9
:1026500080E00E944A2060E082E090E00E942C200E
:1026600060E083E090E00E942C201092D50110924F
:10267000D6011092D7011092D80160E084E090E07A
:102680000E942C2060E081E290E00E942C2060E01B
:1026900085E090E00E942C2060E086E090E00E94BF
:1026A0002C206FEF87E090E00E942C2040E050E06B
:1026B000BA0188E090E00E943E2060E08DE090E06A
:1026C0000E942C2040E050E0BA0188E190E00E9496
:1026D0003E2060E087E190E00E942C2040E050E046
:1026E000BA018CE190E00E943E2060E080E290E040
:1026F0000E942C200C941E130C942513682F8EE03E
:1027000090E00C942C20FC013296809114018823D7
:1027100021F080913B029EE187FF96E080E091509E
:1027200008F4089521912223D1F38F5FF8CF662317
:1027300001F1209114012223F1F020913B0227FFA7
:102740001AC0462F4695469546954E3190F46770CF
:1027500021E030E002C0220F331F6A95E2F7840FB8
:10276000911DFC01828190E02823392381E0232BF5
:1027700069F480E00895FC013296089621912617AD
:1027800021F0E817F907D1F7F4CF81E008959C0113
:10279000FC0132969FEF80E04191461751F09F3F38
:1027A00019F4411101C0982F8F5F8630A9F79F3F20
:1027B00009F40895290F311D97FD3A95F9016283B7
:1027C0000895FC01329608962191261303C0DF017B
:1027D00011971C92E817F907B9F70895E62FE695C7
:1027E000E695E695EE3168F4E80FF92FF11D677074
:1027F00021E030E001C0220F6A95EAF78281822B46
:1028000082830895E62FE695E695E695EE3170F41D
:10281000E80FF92FF11D677021E030E001C0220FB1
:102820006A95EAF7209582812823228308952091D2
:102830001401222329F020913B0227FD0C94EE1372
:102840000C94C71320911401222329F020913B02FC
:1028500027FD0C9402140C94E113FC013296809134
:102860001401882351F080913B0287FF06C08EE15E
:10287000DF011D928A95E9F7089586E0F9CF089562
:1028800008950C9440140E944114809141028430B8
:1028900049F11092FF0188E190E020E40FB6F8942E
:1028A000A895809360000FBE2093600080E00E9496
:1028B00066020E94411483B7817F846083BF83B71F
:1028C000816083BF7894889583B78E7F83BF0FB66E
:1028D000F894A895809160008861809360001092C0
:1028E00060000FBE089508950E943F140E940605DF
:1028F0000E94731480E00E94CA0491E0811107C015
:1029000081E00E94CA0491E0811101C090E0892F0A
:10291000089508950C9489140E94A40C0E94BD0788
:102920000E9466020C948A141F921FB61F921124F3
:102930008F939F93AF93BF938091FF01811113C039
:102940008091370290913802A0913902B0913A02F9
:102950004196A11DB11D8093370290933802A09338
:102960003902B0933A02BF91AF919F918F911F901E
:102970001FBE1F90189582E084BD93E095BD9DE732
:1029800097BD80936E0008952FB7F8948091370219
:1029900090913802A0913902B0913A022FBF089568
:1029A0009C014FB7F8948091370290913802A09122
:1029B0003902B0913A024FBF821B930B089578946D
:1029C0001F921FB61F9211248F939F93AF93BF93B3
:1029D0008091370290913802A0913902B0913A0269
:1029E0000196A11DB11D8093370290933802A093E8
:1029F0003902B0933A02BF91AF919F918F911F908E
:102A00001FBE1F90189587E797E790930108809362
:102A1000000888E19AE00FB6F894A89580936000CA
:102A20000FBE90936000FFCFCF92DF92EF92FF92A4
:102A30001F93CF93DF9310E0E82EF12C812F0E949B
:102A4000CA04D0E0C0E0C82ED12CC6010C2E02C0B2
:102A5000959587950A94E2F780FD11C02196C530BF
:102A6000D10599F7113049F480E0DF91CF911F91A2
:102A7000FF90EF90DF90CF90089511E0DFCF6C2FA3
:102A8000712F80E00E94BB02E816F90639F781E059
:102A9000ECCFCF93C82F8CE20E941415882321F02D
:102AA0008C2FCF910C94141580E0CF910895CF9383
:102AB0000E94D512811102C00E947C13C5E608C095
:102AC0000E9406058FE19EE40197F1F700C0000027
:102AD000C150B1F789E20E944915811100C18AE213
:102AE0000E94491581110E947C1385E00E944915BE
:102AF00081110E9403150E94E0128093FE0187E07D
:102B00000E944915882371F08BE10E9449158823A2
:102B100009F4C2C09091FE01892F8D7F91FF8260E0
:102B20008093FE018091FE010E94E4120E94F21245
:102B300090933C0280933B0280EE0E9449158823CB
:102B400041F090913B02892F8E7F90FF81608093AE
:102B50003B0289E30E944915882341F090913B0292
:102B6000892F8D7F91FF826080933B0282EE0E94CD
:102B70004915882341F090913B02892F8B7F92FF6A
:102B8000846080933B0286EE0E944915882341F0C1
:102B900090913B02892F877F93FF886080933B024F
:102BA00083EE0E944915882341F090913B02892FC2
:102BB0008F7E94FF806180933B0285E30E944915DC
:102BC000882341F090913B02892F8F7D95FF806291
:102BD00080933B0281E30E944915882341F0909144
:102BE0003B02892F8F7B96FF806480933B0281E1BB
:102BF0000E944915882341F090913B02892F97FB51
:102C000087F9805880933B0280913B0290913C026F
:102C10000E94001387E20E944915C82F8EE10E948E
:102C200049158111C2608FE10E9449158111C4606C
:102C300080E20E9449158111C86081E20E94491515
:102C40008111C06182E20E9449158111C06283E254
:102C50000E9449158111C06484E20E9449158823AD
:102C6000C1F1C0688C2F0E94ED126C2F70E090E0D3
:102C700080E00E943C108FE00E944915882319F0E3
:102C800081E00E947E1385E10E944915882339F175
:102C900080E0CF910C947E138EE00E94491588232A
:102CA00039F09091FE01892F8B7F92FF846038CF9D
:102CB00080E10E9449159091FE01882329F0892F17
:102CC000877F93FF88602CCF892F8E7F90FF816054
:102CD00027CFC111C7CF0E94E912682FC7CFCF916C
:102CE00008958091070280FF12C06091070185E07E
:102CF000689FB00111247595679575956795603843
:102D00007105A8F561157105A1F1862F089581FF60
:102D100009C06091070185E0689FB0011124759595
:102D20006795EDCF6091070182FD0AC08091060290
:102D30008823D1F09091060160910701891728F04E
:102D400085E0689FB0011124DACF869FB00111247D
:102D500085E0869F9001879F300D1124692F70E0D8
:102D6000C9010E94F01FCBCF65E070E0CECF8FE7A6
:102D7000089581E008958091070280FF0CC0609162
:102D8000030170E0759567957595679561157105F7
:102D900049F1862F089581FF06C06091030170E01C
:102DA00075956795F3CF6091030182FD0BC09091FB
:102DB00006029923A1F06091020180910301961708
:102DC00038F0682F70E06038710500F38FE70895E0
:102DD000899FC001112470E00E94F01FF4CF61E0D0
:102DE00070E0D7CF81E00895803F31F40E947116E2
:102DF000819580930B020895813F19F40E9471160A
:102E0000F8CF823F31F40E947116819580930A02B7
:102E10000895833F19F40E947116F8CF893F29F471
:102E20000E94BB1680930C0208958A3F21F40E94F1
:102E3000BB168195F7CF8B3F31F40E94BB1681956D
:102E400080930D0208958C3F19F40E94BB16F8CFB1
:102E5000843F31F4809109028160809309020895D2
:102E6000853F21F4809109028260F7CF863F21F4EB
:102E7000809109028460F1CF873F21F4809109029B
:102E80008860EBCF883F21F4809109028061E5CF13
:102E90008D3F31F48091070281608093070208958D
:102EA0008E3F21F4809107028260F7CF8F3FB9F700
:102EB000809107028460F1CF90910A02803F41F433
:102EC00080910B0287FD10920B02992371F00895F7
:102ED000813F29F480910B021816ACF3F6CF823FA4
:102EE00081F497FFF2CF10920A0280910B02909129
:102EF0000C02892B90910D02892B49F71092060242
:102F00000895833F19F4191674F3DFCF893F39F41C
:102F100080910C021816CCF610920C02D6CF8A3F84
:102F200029F480910C0287FFD0CFF6CF8B3F39F484
:102F300080910D0287FFC9CF10920D02C6CF8C3F42
:102F400029F480910D021816BCF3BFCF843F31F4F1
:102F5000809109028E7F80930902B7CF853F21F4CB
:102F6000809109028D7FF7CF863F21F4809109027D
:102F70008B7FF1CF873F21F480910902877FEBCFD0
:102F8000883F21F4809109028F7EE5CF8D3F31F497
:102F9000809107028E7F8093070297CF8E3F21F4A6
:102FA000809107028D7FF7CF8F3F09F08ECF809100
:102FB00007028B7FF0CF88E092E00E94E3070E9437
:102FC000C41490930502809304020895CF93DF9375
:102FD00000D000D000D0CDB7DEB786E0E8E0F2E068
:102FE000DE01119601900D928A95E1F780910A0217
:102FF00090910B02892B81F0809102029091030243
:103000000E94D014AC0190910602992331F1809175
:1030100008018417150670F180910C0290910D0241
:10302000892B91F080910002909101020E94D014AE
:10303000AC0190910602992309F478C080910401B3
:103040008417150608F480C026960FB6F894DEBFE4
:103050000FBECDBFDF91CF910895209109018AE085
:10306000289F9001112424173507B0F69F5F909395
:10307000060202C09F3FD1F710920C0210920D027F
:1030800080910A02181624F40E94711680930A0295
:1030900080910A0287FF05C00E9471168195809376
:1030A0000A0280910B02181624F40E947116809374
:1030B0000B0280910B0287FF05C00E94711681955B
:1030C00080930B0230910A023323A1F020910B026E
:1030D000222381F045EB3403C00111249923F1F040
:1030E00090930A0245EB2403900111243323D1F07D
:1030F00030930B020E94DB1780910402909105022D
:10310000909303028093020286E0FE013196A8E0CC
:10311000B2E001900D928A95E1F77ECF81E0809335
:103120000A02E0CF81E080930B02E4CF20910501F9
:103130008AE0289F900111242417350708F084CFD6
:103140009F5F9093060202C09F3FD1F710920A0240
:1031500010920B0280910C02181624F40E94BB16E8
:1031600080930C0280910C0287FF05C00E94BB1661
:10317000819580930C0280910D02181624F40E9410
:10318000BB1680930D0280910D0287FF05C00E943F
:10319000BB16819580930D0230910C023323A1F070
:1031A00020910D02222381F045EB3403C00111244C
:1031B0009923F1F090930C0245EB24039001112424
:1031C0003323D1F030930D020E94DB17809104026B
:1031D00090910502909301028093000286E0FE0127
:1031E0003196A8E0B2E001900D928A95E1F72CCFDC
:1031F00081E080930C02E0CF81E080930D02E4CF68
:1032000086E0E8E0F2E0DF011D928A95E9F710928E
:10321000060210920702089580912E020895CF931E
:10322000DF9300D00F92CDB7DEB79091410294307A
:1032300019F589837B836A8382E08093E9008FEFAD
:103240009091E800815095FD06C09AE69A95F1F7B5
:1032500000C08111F5CF8091E80085FF0DC050E0DE
:1032600040E063E070E0CE0101960E94621B809115
:10327000E8008E778093E8000F900F900F90DF9119
:10328000CF910895CF93DF93EC010E94461B8230CB
:1032900011F0843031F4BE0184E0DF91CF910C94C1
:1032A0000F19DF91CF910895BC0183E00C940F19A1
:1032B000CF93DF93EC010E94461B823011F08430E3
:1032C000F9F482E08093E9008FEF9091E80081505B
:1032D00095FD06C09AE69A95F1F700C08111F5CFE9
:1032E0008091E80085FF0CC050E040E066E070E0AF
:1032F000CE010E94621B8091E8008E778093E800E7
:10330000DF91CF910895CF93DF93EC010E94461B8C
:10331000823011F08430B9F5809114018823B1F125
:1033200080913B0287FF32C060E282E08093E90037
:103330008FEF9091E800815095FD06C09AE69A952E
:10334000F1F700C08111F5CF8091E80085FF1BC027
:103350008091140170E050E040E0811104C050E021
:1033600040E068E070E0CE010E94621B8091E800BE
:103370008E778093E80080E2FE01AEE0B2E001903B
:103380000D928A95E1F7DF91CF91089568E081E091
:10339000CDCF80914002811109C00E94F21C0E9491
:1033A0004F1D8091E20084608093E20008951092A6
:1033B00040020895089508950C948C1442E061EC45
:1033C00081E00E946E1C42E261EC82E00C946E1C73
:1033D00080914302833009F45FC030F48130C1F141
:1033E000823009F49BC008958A3009F487C08B307D
:1033F00009F46DC0893009F04EC0809142028132DB
:1034000009F049C08091460290914702029708F066
:1034100042C08091E800877F8093E8008091E800B7
:1034200082FF35C09091F3008091F200029729F459
:103430008091F1008B7F813021F48091F1008093A5
:103440002E028091E8008B778093E8000C94A21CF8
:1034500080914202813AF9F48091E800877F80935D
:10346000E8008091460290914702892B61F460E266
:103470008EE092E070E00E94B11B8091E8008B77B3
:103480008093E800089560E090E080E0F3CF8091C1
:1034900041028111C3CF089580914202813AD9F748
:1034A0008091460290914702892BA9F78091E8000C
:1034B000877F8093E8008091E80080FFFCCF8091B7
:1034C00014018093F1008091E8008E77BDCF809148
:1034D0004202813201F78091460290914702892B86
:1034E000D1F68091E800877F8093E8000E94A21CBB
:1034F00080914402809314010C94A40C80914202A8
:10350000813249F68091E800877F8093E8000E942D
:10351000A21C8091450280932F020895809142025F
:10352000813A09F0B8CF8091E800877F8093E80066
:103530008091E80080FFFCCF80912F02C2CF84B73A
:10354000877F84BF0FB6F894A8958091600088614A
:1035500080936000109260000FBE80E890E00FB68C
:10356000F89480936100909361000FBE0E942B0835
:103570000E94F21C0E944F1D8091E20084608093A3
:10358000E20078940E94D51F0E9435088AE091E0FD
:103590000E94B80780914102853019F00E943D08D1
:1035A000F9CF0E94431480913F02882399F30E942F
:1035B0007414882379F30E944D1BECCF0C94E01A0D
:1035C000292F33272330310519F168F421303105D3
:1035D00009F44AC02230310509F44BC090E080E084
:1035E00030E020E028C02132310579F12232310566
:1035F000A9F780E490E021E233E061157105D9F08C
:103600008CEB90E025E632E061307105A1F0E6CF69
:1036100099278130910599F0009741F0823091050A
:1036200089F00397D9F6ECEEF1E002C0E4E1F2E0B4
:10363000849190E09F01FA01318320830895E8E0AE
:10364000F2E0F6CFE2EFF1E0F3CF89E090E02AE29A
:1036500032E06115710579F389E090E023E432E00E
:103660006130710541F3BACF82E190E023E532E0A9
:10367000E2CF8BE390E028E132E0DDCF80914102A0
:10368000843011F482E0089581E008958091300241
:10369000811102C00C943E1B089519BC82E089BDC3
:1036A00009B400FEFDCF8091D8008F7D8093D800B3
:1036B0008091E00082608093E0008091E00081FDD5
:1036C000FCCF0895AF92BF92CF92DF92FF920F93FB
:1036D0001F93CF93DF936C01EB018A010E94C11C01
:1036E000F82E811123C00115110539F0F8018081F0
:1036F0009181C81BD90BC80ED91EB12CA12C2097C3
:10370000A9F08091E80085FD22C08091E8008E77C5
:103710008093E80001151105A1F0F80180819181E5
:10372000A80EB91EB182A08285E0F82E8F2DDF9100
:10373000CF911F910F91FF90DF90CF90BF90AF90EE
:1037400008950E94C11C8823D1F2F82EEFCFF60114
:1037500081916F018093F1002197FFEFAF1ABF0AAB
:10376000CECFFC01809148029091490286179707BD
:10377000A0F06115710529F49091E8009E7790936F
:10378000E80090E06115710551F4911108C0809135
:10379000E80082FF34C080E00895BC01F2CF809140
:1037A00041028823C1F18530C1F18091E80083FD99
:1037B00030C08091E80082FDEACF8091E80080FF70
:1037C000E1CF8091F3002091F200382F611571054F
:1037D00019F02830310558F091E02830310509F012
:1037E00090E02091E8002E772093E800CBCF8191E4
:1037F0008093F100615071092F5F3F4FE7CF8091B7
:103800004102882341F0853041F08091E80083FF38
:10381000BECF81E0089582E0089583E00895FC0121
:10382000809148029091490286179707A0F0611590
:10383000710529F48091E8008E778093E80090E08C
:103840006115710551F4911108C08091E80082FF63
:1038500035C080E00895BC01F2CF809141028823F9
:10386000C9F18530C9F18091E80083FD31C08091B4
:10387000E80082FDEACF8091E80080FFE1CF8091EF
:10388000F3002091F200382F6115710519F02830EE
:10389000310558F091E02830310509F090E0809131
:1038A000E8008E778093E800CBCF84918093F1007D
:1038B0003196615071092F5F3F4FE6CF80914102F1
:1038C000882341F0853041F08091E80083FFBDCF2F
:1038D00081E0089582E0089583E00895982F97305D
:1038E00028F08F708093E90081E008959093E900BB
:1038F000242F762F50E0981731F07091EC00209132
:10390000ED005091F00021FD02C09F5FE8CF3091A3
:10391000EB003E7F3093EB003091ED003D7F309324
:10392000ED003091EB0031603093EB007093EC00D0
:103930002093ED005093F0002091EE0027FDE5CF9D
:1039400080E008958091420287FF13C08091E800D3
:1039500082FF06C08091E8008B778093E80004C066
:10396000809141028111F2CF089580914102882314
:10397000D9F38091E80080FFF8CF8091E8008E773E
:10398000ECCF2091E4003091E50095E6A90120916B
:10399000EC00822F817020FF06C08091E80080FF3C
:1039A00006C080E008952091E80022FD1AC08091B1
:1039B0004102882389F0853089F08091EB0085FDF4
:1039C0000FC02091E4003091E50042175307F9F24F
:1039D0009150E1F684E0089582E0089583E008952F
:1039E00081E008950E94601D0E94681DE0EEF0E0F5
:1039F000808181608083E8EDF0E080818F77808333
:103A000019BCA7EDB0E08C918E7F8C9380818F7E66
:103A100080831092400208950F931F93CF93DF93FA
:103A20000E94601D0E94681DC8EDD0E088818F77DC
:103A3000888388818068888388818F7D888319BC8A
:103A40001092410210923D0210923F0210923E02EB
:103A500000EE10E0F80180818B7F80838881816097
:103A6000888342E060E080E00E946E1CE1EEF0E0BE
:103A700080818E7F8083E2EEF0E0808181608083B0
:103A8000808188608083F80180818E7F8083888137
:103A900080618883DF91CF911F910F910895E8EDA8
:103AA000F0E080818F7E8083E7EDF0E080818160AF
:103AB000808384E082BF81E0809340020C940C1DDF
:103AC000E8EDF0E080818E7F80831092E20008951F
:103AD0001092DA001092E10008951F920F920FB633
:103AE0000F9211242F933F934F935F936F937F9384
:103AF0008F939F93AF93BF93EF93FF938091E100D8
:103B000082FF0BC08091E20082FF07C08091E1003C
:103B10008B7F8093E1000E94D41F8091DA0080FFA8
:103B200018C08091D80080FF14C08091DA008E7F89
:103B30008093DA008091D90019BC80FF93C082E0A5
:103B400089BD09B400FEFDCF81E0809341020E944F
:103B5000C9198091E10080FF19C08091E20080FFC7
:103B600015C08091E2008E7F8093E2008091E20098
:103B700080618093E2008091D80080628093D800B9
:103B800019BC85E0809341020E94DB198091E1001D
:103B900084FF2AC08091E20084FF26C019BC82E025
:103BA00089BD89B5982F917080FFFBCF8091D80097
:103BB0008F7D8093D8008091E1008F7E8093E1001B
:103BC0008091E2008F7E8093E2008091E20081602C
:103BD0008093E20080913D02882309F448C084E08C
:103BE000809341020E94DC198091E10083FF29C08B
:103BF0008091E20083FF25C08091E100877F809360
:103C0000E10082E08093410210923D028091E10048
:103C10008E7F8093E1008091E2008E7F8093E200AE
:103C20008091E20080618093E20042E060E080E009
:103C30000E946E1C8091F00088608093F0000E94CA
:103C4000DA19FF91EF91BF91AF919F918F917F9181
:103C50006F915F914F913F912F910F900FBE0F90F9
:103C60001F901895109241020E94D71972CF80912F
:103C7000E30087FD93E090934102B4CF1F920F922F
:103C80000FB60F9211242F933F934F935F936F932F
:103C90007F938F939F93AF93BF93CF93DF93EF93D4
:103CA000FF93D091E900DF708091EC00C82FC170C4
:103CB00080FDC0E81092E9008091F000877F80933A
:103CC000F00078940E94821E1092E9008091F0002A
:103CD00088608093F000CD2BCF70C093E900FF91F6
:103CE000EF91DF91CF91BF91AF919F918F917F9194
:103CF0006F915F914F913F912F910F900FBE0F9059
:103D00001F9018951F93CF93DF93CDB7DEB7AA9777
:103D10000FB6F894DEBF0FBECDBF82E492E02091D3
:103D2000F100FC012193CF01F2E08A349F07B9F73B
:103D30000E94E8198091E80083FF1EC18091420231
:103D4000909143029A3008F017C1E92FF0E0E05853
:103D5000FF4D0C940420803899F0823809F00CC192
:103D6000809146028F70873008F006C18093E90089
:103D70008091EB0085FB882780F91092E90006C04E
:103D800080913E0290913F02911182609091E800F3
:103D9000977F9093E8008093F1001092F10080915A
:103DA000E8008E77E5C0882309F4D3C0823009F09B
:103DB000E3C0809144028111D6C0809146028F7089
:103DC0002FEF280F263008F0D7C08093E90020910C
:103DD000EB0020FFC8C0933031F48091EB0080628B
:103DE0008093EB00C0C09091EB0090619093EB004A
:103DF00021E030E001C0220F8A95EAF72093EA0023
:103E00001092EA008091EB008860EACF8111B4C083
:103E1000109144021F778091E3008078812B80937A
:103E2000E3008091E800877F8093E8000E94A21C55
:103E30008091E80080FFFCCF8091E3008068809350
:103E4000E30082E0111183E08093410295C0805825
:103E5000823008F091C080914402909145028C3DDF
:103E600023E09207A1F583E08A838AE289834FB732
:103E7000F894DE01139620E03EE051E2E32FF0E0FB
:103E800050935700E49120FF03C0E295EF703F5F2D
:103E9000EF708E2F90E0EA30C0F0C7968D939D931F
:103EA0002F5F243159F74FBF8091E800877F8093BF
:103EB000E8006AE270E0CE0101960E94B11B809199
:103EC000E8008B778093E80057C0C096E7CF6091F9
:103ED000460270914702AE014F5F5F4F0E94DE1AAB
:103EE000BC01892B09F448C09091E800977F90931A
:103EF000E80089819A810E940F1CE1CF8038E1F5AA
:103F00008091E800877F8093E80080913D02809354
:103F1000F10045CF811130C090914402923060F59C
:103F20008091E800877F8093E80090933D020E9493
:103F3000A21C80913D02882311F084E005C080918D
:103F4000E30087FDFACF81E0809341020E94DE19F1
:103F500013C080914402813079F481E0933009F0FC
:103F600080E080933F021092E9008091E800877F13
:103F70008093E8000E94A21C8091E80083FF0AC0A1
:103F80008091E800877F8093E8008091EB00806259
:103F90008093EB00AA960FB6F894DEBF0FBECDBF9C
:103FA000DF91CF911F9108950895CF9380914102A1
:103FB0008823A1F0C091E900CF709091EC00892F87
:103FC000817090FD80E8C82B1092E9008091E80094
:103FD00083FD0E94821ECF70C093E900CF910895A7
:103FE00097FB072E16F4009407D077FD09D00E94A6
:103FF0000A2007FC05D03EF4909581959F4F0895C7
:10400000709561957F4F0895EE0FFF1F0590F49115
:10401000E02D0994AA1BBB1B51E107C0AA1FBB1FBF
:10402000A617B70710F0A61BB70B881F991F5A9544
:10403000A9F780959095BC01CD010895F999FECF1F
:1040400092BD81BDF89A992780B50895A8E1B0E0A6
:1040500042E050E00C945220262FF999FECF92BDF9
:1040600081BDF89A019700B4021639F01FBA20BD3D
:104070000FB6F894FA9AF99A0FBE08950396272F6F
:104080000E942D200E942C20252F0E942D20242FBD
:104090000C942D200196272F0E942D200C942C206B
:1040A000DC01CB01FC01F999FECF06C0F2BDE1BDF8
:1040B000F89A319600B40D9241505040B8F70895E7
:1040C000F894FFCF420A420A9A0A9A0AEC0A080BAD
:1040D0006F0A6F0A4A0BD60BE50BE50B410C6F0A12
:1040E0006F0A4A0CB30CB30CBC0CBC0CBE0CBC0C61
:1040F000BC0CBC0CB30CB30CC30CBC0CBC0CC30C84
:10410000AB1ED31EBC1FD31EBC1F061F271FBC1F08
:044110007E1F8A1F65
:10411400DB012808641E140A321E0C19831958196D
:104124005419421901E200E900EA00B500B600B7EB
:1041340000CD008301CC008A019201940121022365
:104144000224022502260227022A02B300B4006FC9
:104154000070008182836697C634353236E200E906
:1041640000EA00B500B600B700CD008301CC008A98
:10417400019201940121022302240225022602272E
:0E418400022A02B300B4006F00700081828333
:00000001FF
