:100000000C947E020C94C5020C94C5020C94C5029B
:100010000C94C5020C94C5020C94C5020C94C50244
:100020000C94C5020C94C5020C94971F0C94662086
:100030000C94A2160C94C5020C94C5020C94C50233
:100040000C94C5020C94C5020C94C5020C94C50214
:100050000C94C5020C94EF160C94C5020C94C502C6
:100060000C94C5020C94C5020C94C5020C94C502F4
:100070000C94C5020C94C5020C94C5020C94C502E4
:100080000C94C5020C94C5020C94C5020C94C502D4
:100090000C94C5020C94C5020C94C5020C94C502C4
:1000A0000C94C5020C94C5020C94C502120C120CDF
:1000B000440C440C910CAF0CD00DD00DBA0C4F0D6C
:1000C000600D600DC00DD00DD00DC90D700E700EFD
:1000D000820E820E790E820E820E820E700E700ECD
:1000E0007E0E820E820E7E0ED320FA20F221FA209E
:1000F000F22146216921F221C021CF21530038008D
:1001000025022D005F006000420000005C005D00E1
:100110005E002E0259005A005B00000000006200E1
:100120000151580001000100010001000B00F00026
:100130000D000000F2000100F00001000500F100D8
:1001400007000000000004000100010001000100A0
:100150000100010001000100010000000100010098
:100160000100010001000100010000000000010089
:100170000100010001000100010001000100010077
:100180000100000001000100010001000100010068
:100190000100000000000100010001000100010059
:1001A0000100010001000100010000000100010048
:1001B0000100010001000100010000000000010039
:1001C0000100010001000100010001000100010027
:1001D0000100000001000100010001000100010018
:1001E0000100000000000100010001000100010009
:1001F00001000100010001000100000001000100F8
:1002000001000100010001000100000000000100E8
:1002100001000100010001000100010001000100D6
:1002200001000000010001000100010001000100C7
:1002300001000000000001000100010001000100B8
:1002400001000100010001000100000001000100A7
:100250000100010001000100010000000000010098
:100260000100010001000100010001000100010086
:100270000100000001000100010001000100010077
:100280000100000000000100010001000100010068
:100290000100010001000100010000000100010057
:1002A0000100010001000100010000000000010048
:1002B0000100010001000100010001000100010036
:1002C0000100000001000100010001000100010027
:1002D0000100000000000100010001000100010018
:1002E0000100010001000100010000000100010007
:1002F00001000100010001000100000000000100F8
:1003000001000100010001000100010001000100E5
:1003100001000000010001000100010001000100D6
:1003200001000000000001000100010001000100C7
:1003300001000100010001000100000001000100B6
:1003400001000100010001000100000000000100A7
:100350000100010001000100010001000100010095
:100360000100000001000100010001000100010086
:100370000100000000000100010001000403300042
:10038000000012036B006500790062006F006100DD
:10039000720064000000160371006D006B006200C3
:1003A000750069006C0064006500720000000403C1
:1003B000090409023B00020100A0FA09040000013F
:1003C00003010100092111010001224000070581FC
:1003D0000308000A090401000103000000092111BB
:1003E00001000122BC000705820320000A1201104F
:1003F0000100000008EDFE6060010001020301053C
:10040000010902A10185020901A1000509190129BB
:10041000051500250195057501810295017503817A
:10042000010501093009311581257F950275088183
:100430000609381581257F950175088106050C0A86
:1004400038021581257F950175088106C0C0050118
:100450000980A101850319012AB700150126B700FB
:10046000950175108100C0050C0901A101850419D1
:10047000012AA002150126A002950175108100C075
:1004800005010906A1018505050719E029E7150001
:1004900025019508750181020507190029EF15004E
:1004A000250195F0750181020508190129059505B9
:1004B00075019102950175039101C005010906A11D
:1004C00001050719E029E715002501950875018147
:1004D000029501750881010507190029FF150026FD
:1004E000FF00950675088100050819012905950585
:1004F00075019102950175039101C00011241FBE81
:10050000CFEFDAE0DEBFCDBF04B603FE27C0809197
:10051000690290916A02A0916B02B0916C028730DF
:10052000904BA740B04BD1F41092690210926A022E
:1005300010926B0210926C0214BE84B7877F84BF46
:100540000FB6F894A8958091600088618093600050
:10055000109260000FBEE0E0F8E3099511E0A0E022
:10056000B1E0E0E3F5E402C005900D92A039B107D7
:10057000D9F722E0A0E9B1E001C01D92A936B20787
:10058000E1F70E94D61C0C9496220C94000080E0A7
:1005900090E008950895089581E0089508958111E7
:1005A00007C0662311F081E501C082E50C94BB0B06
:1005B000089581E008950C94CC0208950C94DD0216
:1005C0001F93CF93DF9300D000D01F92CDB7DEB73B
:1005D00049835A836B833091A60189819A813111B5
:1005E00014C0662359F0222349F00E94AA13182F41
:1005F000682F89819A810E94551303C00E947F133E
:10060000182F69817A81812F04C00E94AA13698101
:100610007A810F900F900F900F900F90DF91CF91F4
:100620001F910C948E03FC01262F40815181628121
:10063000738184810C94E002CF93DF93EC0160E03E
:100640000E941303BE01DF91CF910C94DE020E9441
:10065000DC14811102C00E9486150C94A6050C942E
:10066000A40508950E945E0E0E9431032FE78AE1DF
:1006700096E0215080409040E1F700C000000C94CB
:1006800015170F931F93CF93DF93EC0161E00E9446
:1006900013038C01BE010E94DB02882349F1BE01D5
:1006A000C8010E94A407882319F1BE01C8010E9455
:1006B000F6078823E9F0BE01C8010E9421098823BA
:1006C000B9F08A81882369F001158CE5180731F0AB
:1006D0000E3D1C4531F40E9486150AC00E9432036B
:1006E00007C0CE01DF91CF911F910F910C94D902D9
:1006F00080E0DF91CF911F910F9108950C94CE026D
:1007000081E008950C948003CF93C82F0E947E034C
:100710008C2F0E948203CF9108950895E72FF0E077
:1007200095E0899FE00DF11D1124EE0FFF1FEE0FE4
:10073000FF1FE60FF11DEE0FFF1FE450FF4F8591E5
:1007400094910895880F991FFC01E458FC4F8591FE
:1007500094910895CF93DF930E948E030E94C20468
:10076000EC018115904508F041C0C11580E4D8071F
:1007700008F0D1C0C83ED10510F5C03ED10508F043
:10078000FDC0C83AD10578F4C53AD10508F0A2C039
:10079000C130D10509F4F2C008F4EEC0C430D1056F
:1007A00008F0ECC0E9C0CF3BD10508F49BC0C03CC9
:1007B000D10508F4E1C0CE01805C91099EC0C1154D
:1007C00090E2D90758F4C11521E0D20708F0D6C04D
:1007D000C03FD10508F4D0C0D065D0C0C11580E3BA
:1007E000D80708F08EC0CE019F7087C0C11595E56F
:1007F000D90708F043C0C11524E5D20708F0A2C00C
:10080000C11582E5D80708F5C11591E5D90708F0AB
:1008100085C0CE0174E0969587957A95E1F783704F
:100820009C2F937021E030E002C0220F331F9A9575
:10083000E2F73C68382BCF70C695C69580E2C89F1A
:10084000E0011124C22BD32B99C09E0123703327C2
:100850008C2F86958695C115D34508F064C0C1E0FC
:10086000D0E002C0CC0FDD1F2A95E2F720E2829F84
:10087000C0011124C82BD92BDC6880C0C11529E523
:10088000D207A0F4C11588E5D80708F060C0C115EB
:1008900096E5D90708F070C08C2F0E9456058F711D
:1008A000C82FD0E0DC2FCC27D06268C0C1152AE564
:1008B000D20708F451C0CE0190568115904208F03D
:1008C0005BC08D2F8F710E945605DD27D0628F711E
:1008D000D82B54C0C55AD0E0CD5BDE4FC881D0E0E4
:1008E000D0644CC0C85AD0E0CC0FDD1FCB5EDE4FC9
:1008F0000990D881C02DD46441C00E94A203EC01AC
:100900003DC0CE019927D3FF03C0EC01D86C36C09F
:10091000EC01D06C33C0DF70D06A30C0DC2FCC2744
:10092000C16FD06A2BC0C1E0D0E002C0CC0FDD1F88
:100930002A95E2F720E2829FC0011124C82BD92B0F
:10094000DA681CC0DC2FCC27C46FD06A17C0DC2F3C
:10095000CC27C06FD06A12C08C2F8F700E945605B2
:1009600094E0D695C7959A95E1F7CF70D0E0DC2F4B
:10097000CC27D069C82B02C0C0E0D0E0CE01DF9107
:10098000CF9108958238910569F1B0F481339105D2
:1009900009F46DC048F48932910509F463C08A32C4
:1009A000910509F469C008958533910509F455C08E
:1009B00089339105B9F00895833E910569F138F4C2
:1009C000803E9105B1F0823E910509F10895863E81
:1009D0009105A9F1873E9105B9F1843E910509F091
:1009E00064C023C020915A0220FD4FC021FD4DC09C
:1009F000089580915A0280FD44C080915B0280FF7F
:100A000044C080915A0284FD42C083EE4DC0809163
:100A10005A0282FF38C0F5CF80915A0282FD33C05E
:100A200080915B0280FD31C0ECCF80915B0281FF41
:100A300032C080915A0284FD2AC087EE35C0809171
:100A40005A0283FF26C0F5CF80915A0283FD21C050
:100A500080915B0281FD1FC0ECCF80915A0285FD21
:100A60001CC01DC080915A0285FD19C016C080911E
:100A70005A0286FD16C017C080915A0286FD13C027
:100A800010C089E311C082EE0FC080EE0DC080E07F
:100A90000BC086EE09C084EE07C089E205C085E37D
:100AA00003C08AE201C081E390E0089590915A0268
:100AB00092FF0DC0282F2871283019F4877F846099
:100AC00006C0282F2471243011F48B7F886093FF97
:100AD0000DC0282F2871283119F4877E846106C043
:100AE000282F2471243111F48B7E886120915B02C0
:100AF00020FF0DC0382F3871383019F4877F81609E
:100B000006C0382F3171313011F48E7F886021FF9B
:100B10000DC0282F2871283119F4877E816106C005
:100B2000282F2171213111F48E7E886194FD877EFA
:100B30000895E82FF0E0EF5AFD4F80810895089561
:100B400080E58A95F1F708950C94CB020C94CA02C3
:100B5000CF93DF93AAE4B1E04FE451E061E070E0AD
:100B60008D91E82FE295EF70F0E021A18F70EB01FD
:100B700002C0CC0FDD1F8A95E2F7CE019C2F909525
:100B8000922391A392A1892B82A34A175B0741F775
:100B9000A6E4B1E04AE451E061E070E08D91E82F15
:100BA000E295EF70F0E021A18F70EB0102C0CC0F55
:100BB000DD1F8A95E2F7CE019C2F9095922391A399
:100BC00092A1892B82A34A175B0741F7ECE4F2E07C
:100BD000A1E5B2E081E592E011921D928E179F0788
:100BE000D9F785E00E947E06DF91CF910C94270310
:100BF0006F927F928F929F92AF92BF92CF92DF922D
:100C0000EF92FF920F931F93CF93DF938AE4882E86
:100C100081E0982E0CE412E091E5A92E92E0B92E25
:100C2000712CCC24C394D12CF40181914F01C82F95
:100C3000C295CF70D0E099A18F70760101C0EE0C03
:100C40008A95EAF7892F8E2989A38AA16E2C609450
:100C500086218AA30E94A005E6E4F1E040E050E08E
:100C600020E03191A32FA295AF70B0E090968C91C7
:100C700090E03F7002C0959587953A95E2F780FD28
:100C800007C08C2D042E01C0880F0A94EAF701C01A
:100C900080E0282B4F5F5F4F4430510511F789A149
:100CA000682269A28AA1E82AEAA2F80180812817AD
:100CB00019F0208381E001C080E0782A0F5F1F4F88
:100CC000A016B10609F0B0CF272D45E061E572E02E
:100CD0008CE492E00E947F060E942F03872DDF9113
:100CE000CF911F910F91FF90EF90DF90CF90BF9029
:100CF000AF909F908F907F906F9008950895FF928E
:100D00000F931F93CF93DF938C01F62ED72FC42F11
:100D1000222349F081E0809392010E94D41690939F
:100D2000910180939001809192018823C1F080917C
:100D30009001909191010E94E016069780F0EF2DAE
:100D4000FD2FD8014C2F50E0CD01801B910B841753
:100D500095071CF48D918193F7CF10929201DF914A
:100D6000CF911F910F91FF9008950C94CF0251984D
:100D7000599A5098589A89B186958170489902C0BD
:100D800090E001C092E0892B809395010895E09155
:100D90009501EE0FEE0FE093950129B121FB882715
:100DA00080F990E0489903C020E030E002C022E0E2
:100DB00030E0822B932B8E2B809395018F70E82F40
:100DC000F0E0E15BFE4F908180919401890F809368
:100DD000940184304CF0809193018F5F8093930154
:100DE00060E080E00E94B506809194018D3F4CF454
:100DF0008091930181508093930161E080E00E9493
:100E0000B50680919401837887FF03C081508C6F71
:100E10008F5F809394010895AF92BF92CF92DF923B
:100E2000EF92FF920F931F93CF93DF937C015B01AF
:100E3000C42FD22FFC0182818823F9F040939801BE
:100E40000E94D416909397018093960180E28C0FB4
:100E5000883008F06EC0C77081E001C0880FCA9565
:100E6000EAF7DF91CF911F910F91FF90EF90DF9004
:100E7000CF90BF90AF900C94CE0B80919801481307
:100E800035C080919601909197010E94E0166C0107
:100E9000B701C5010E941711C816D90638F510E22E
:100EA0001D0FCD17B9F080E28C0F883040F4C77069
:100EB00081E001C0880FCA95EAF70E94D50B18306F
:100EC00058F581E09D2F977001C0880F9A95EAF739
:100ED0000E94CE0B802F0E94BB0B183050F5D770AC
:100EE00081E001C0880FDA95EAF70AC080E28C0F32
:100EF0008830F8F4C77081E001C0880FCA95EAF71E
:100F0000DF91CF911F910F91FF90EF90DF90CF90E5
:100F1000BF90AF900C94D50B802FDF91CF911F9194
:100F20000F91FF90EF90DF90CF90BF90AF900C9417
:100F3000BB0BDF91CF911F910F91FF90EF90DF904E
:100F4000CF90BF90AF9008950F939C01CB01233FAA
:100F50004CE5340731F188F4283DFCE53F07D9F032
:100F6000293D4CE5340779F1273D3C45A9F506E2DA
:100F700021EE41EE67ED7CE52BC0253FFCE53F0708
:100F8000E1F0A8F0263F3C4539F507E225EE46EEB4
:100F900066EF7CE51DC007E225EE45EE68ED7CE5D9
:100FA00017C006E221EE40EE63EF7CE511C007E2D8
:100FB00025EE44EE64EF7CE50BC006E221EE42EE46
:100FC00065EF7CE505C008E221E045EE69ED7CE5D2
:100FD0000E940C0780E008C0FC018281882319F080
:100FE0001092980101C081E00F910895CF93DF9393
:100FF000EC01FB018281882309F41FC1C230FCE5AA
:10100000DF0708F41BC1C6319CE5D90738F09E0103
:101010002A5F3C452930310508F010C10E94F914BF
:1010200090935B0280935A02C031ECE5DE0709F42D
:10103000C3C008F041C0C8308CE5D80709F49AC095
:10104000F0F4C430ECE5DE0709F487C068F4C23080
:101050008CE5D80709F477C0C330DC4509F0E3C05C
:1010600080915A02826076C0C630ECE5DE0709F452
:101070006EC008F07BC080915A0288606BC0CC3093
:101080008CE5D80709F485C068F4CA30ECE5DE07C2
:1010900009F474C008F079C00E945E0E80915A0273
:1010A000806858C0CE308CE5D80709F476C008F0C7
:1010B0007FC080915A028BC0CB3FECE5DE0709F47C
:1010C0004FC018F5C3318CE5D80709F47DC078F41A
:1010D000C131ECE5DE0709F473C0C231DC4509F02B
:1010E000A2C00E945E0E80915A028F7733C0C53134
:1010F0008CE5D80709F472C008F486C0CA3FDC4505
:1011000009F091C080915B023EC0CF3FFCE5DF0754
:1011100009F45FC058F4CD3F9CE5D90709F444C0F9
:1011200008F43FC080915B0282602DC0C130FDE5B4
:10113000DF0709F475C008F45DC0C230DD4509F071
:1011400072C080E06EC080915A02816003C08091BD
:101150005A02806180935A0266C080915A0211C07F
:1011600080915B02826080935B025DC080915A0235
:101170008062F0CF80915A028064ECCF80915A0255
:1011800088608460E7CF8160EECF80915A028E7FC5
:10119000E1CF80915A028D7FDDCF80915A02877F07
:1011A000D9CF80915B0218C080915B028D7FDBCF2D
:1011B00080915A028F7ECECF80915A028F7DCACF06
:1011C00080915A028F7BC6CF80915A02877F8B7F96
:1011D000C1CF80915B028D7F8E7FC5CF80915A02F7
:1011E00082FB222720F991E0922790FB82F990FB65
:1011F00083F9B0CF80915B02982F909591708E7F8C
:10120000892B90FB81F9AFCF0E945E0E80915A022C
:1012100087FB222720F991E0922790FB87F99ACF4C
:1012200081E00E94881580915A0290915B020E9491
:101230000A150E945E0E80E001C081E0DF91CF912F
:101240000895CF93DF9386319C4541F5EB010E94D1
:101250002B14982F8A81209100013091010188235D
:1012600079F09A7A81E009F480E0809399019111F4
:1012700002C069E201C065E3C9010E9423160AC0E9
:1012800080919901811102C069E201C065E3C90141
:101290000E942E160E94791480E001C081E0DF9147
:1012A000CF91089590939F0180939E010895E091BE
:1012B0009E01F0919F01309721F00190F081E02D87
:1012C000099480E00895E0919E01F0919F0130978C
:1012D00099F020911401222359F020915A0227FFFE
:1012E00007C0DC012C9111962C93119725E02C93CB
:1012F0000280F381E02D09940895E0919E01F09120
:101300009F01309739F022E0DC012C930480F581B5
:10131000E02D0994089520919C0130919D0128179A
:10132000390771F090939D0180939C01E0919E019B
:10133000F0919F01309721F00680F781E02D09940C
:10134000089520919A0130919B012817390771F077
:1013500090939B0180939A01E0919E01F0919F01EF
:10136000309721F00084F185E02D0994089585B728
:10137000806885BF85B7806885BF089508950C94FF
:10138000BE090C94BF090C94BE090C94BE090E94BE
:10139000B7090E94C3090C94C10981E008950C9417
:1013A000CD090E94CB160E94A8050E946A170E94D0
:1013B000B7060C94C509AF92BF92CF92DF92EF921D
:1013C000FF920F931F93CF93DF93CDB7DEB72A978A
:1013D0000FB6F894DEBF0FBECDBF0E94F8050E9485
:1013E000CF09811111C08FEF89838A831B820E94EC
:1013F000D4168160782F9D838C8349815A816B81BB
:101400008D810E94750A40C081EAA82E81E0B82E25
:1014100000E010E0C02E802F0E949905E82EF50113
:10142000D1905F01D82631F40F5F1F4F05301105B1
:1014300089F7D9CF80911B0281FD0E949F0580E032
:10144000FF24F3949D2D9F21D1F08E83CF82EF2036
:1014500081E009F480E088870E94D4168160782FAB
:101460009A8789874E815F8168858A850E94750A7F
:10147000F801EF55FE4F8081F826F08205C08F5F9E
:10148000FF0C8430F9F6D0CF0E94C7060E943B1AA9
:101490000E9457099091A0018917B1F00E94570945
:1014A0008093A0012A960FB6F894DEBF0FBECDBF81
:1014B000DF91CF911F910F91FF90EF90DF90CF9030
:1014C000BF90AF900C9484032A960FB6F894DEBFB9
:1014D0000FBECDBFDF91CF911F910F91FF90EF9085
:1014E000DF90CF90BF90AF900895CF93DF93CDB7AB
:1014F000DEB72B970FB6F894DEBF0FBECDBF4F837C
:10150000588769877A878B87DE01119686E0FD010F
:1015100011928A95E9F785E0FE01379601900D92C8
:101520008A95E1F749815A816B817C818D819E8109
:101530000E941A112B960FB6F894DEBF0FBECDBFD6
:10154000DF91CF910895FC01808191810E94EC137D
:101550000895CF93882309F4A4C0C82F8238C1F41A
:101560000E94570981FD9DC069E38091000190911F
:1015700001010E9423160E9479142FEF80E792E068
:10158000215080409040E1F700C0000069E319C09D
:10159000833801F50E94570980FD83C063E580917F
:1015A0000001909101010E9423160E9479142FEFEF
:1015B00080E792E0215080409040E1F700C00000B9
:1015C00063E580910001909101010E942E16CF9158
:1015D0000C9479148438C1F40E94570982FD61C0CB
:1015E00067E480910001909101010E9423160E94FE
:1015F00079142FEF80E792E0215080409040E1F78E
:1016000000C0000067E4DDCF8CEF8C0F813AD0F48E
:101610006C2F80910001909101010E94A3158823F5
:1016200049F06C2F80910001909101010E942E16CB
:101630000E9479146C2F80910001909101010E9409
:101640002316C5CF80E28C0F883048F4C77081E044
:1016500001C0880FCA95EAF70E942E14B8CFEBE5B7
:10166000EC0FE33040F4F0E0E357FE4F808190E070
:10167000CF910C948B09E8E5EC0FE73150F4F0E0E2
:10168000EE0FFF1FE15AFE4F80819181CF910C94A4
:10169000A109C03F30F08C2F0E943019CF910C94DB
:1016A0001D1ACF910895882309F464C0823879F413
:1016B0000E94570981FF5EC069E38091000190910B
:1016C00001010E9423160E94791469E310C0833837
:1016D000B1F40E94570980FF4DC063E5809100017D
:1016E000909101010E9423160E94791463E5809174
:1016F0000001909101010E942E160C9479148438F7
:1017000079F40E94570982FF35C067E48091000197
:10171000909101010E9423160E94791467E4E7CF9B
:101720009CEF980F913A10F4682FE1CF90E2980F58
:10173000983050F4877091E001C0990F8A95EAF7CC
:10174000892F0E943414D9CF9BE5980F933020F451
:1017500080E090E00C948B0998E5980F973120F485
:1017600080E090E00C94A109803F20F00E9498193D
:101770000C941D1A0895CF93C82F0E94A90AC9334B
:1017800049F42FEF83EF91E0215080409040E1F742
:1017900000C000008C2FCF910C94530B882321F0B4
:1017A0000E942E140C9479140895882321F00E942D
:1017B00034140C9479140895CF92DF92EF92FF9233
:1017C0000F931F93CF93DF937C01062FC72FFC014C
:1017D000158112951F70D281D1110E944B140E9465
:1017E0002414882399F0DD2389F08C2F807F8034A6
:1017F00021F080E2800F883048F082E00E94C3141C
:101800000E94241491E0D82ED92601C0D12CCC2ED0
:10181000C2948FE0C8228C2D90E0FC01EA5AFF4F61
:101820000C943A228C2F807FCF70882311F0C295C0
:10183000C07FDD2399F0CC2309F48DC180E2800FB5
:10184000883010F0011104C08C2F0E942E1403C0A8
:101850008C2F0E943E140E9479147DC1802F0E941B
:10186000530BCC2309F49CC180E2800F883010F028
:10187000011104C08C2F0E94341403C08C2F0E94CD
:1018800044140E9479148CC18C2F807FCF708032D9
:1018900011F0C295C07F002319F00130C9F022C0B9
:1018A000DD2371F0112341F0113031F40E945E14F8
:1018B0008C2B0E94661474C10E945E148C2B1DC078
:1018C000112319F0113009F46BC10E946F1425C067
:1018D000DD2321F0163008F063C10EC0153008F08A
:1018E0005FC11BC0DD2361F0112331F0F701858159
:1018F00080FF31C18F7085838C2F0E94CE0B50C129
:10190000112359F0093309F037C1FFEF23EF81E0CC
:10191000F15020408040E1F72DC18C2F0E94D50B63
:101920003FC18C2F86958695837019F0813061F0C8
:1019300037C1DD2321F0802F9C2F937002C080E0FF
:1019400090E00E948B0934C1DD2321F0802F9C2F71
:10195000937002C080E090E00E94A10929C1802F0D
:10196000DD2319F00E94301902C00E9498190E94CC
:101970001D1A1EC18C2F837009F045C0D11114C1EE
:10198000402F429546954770440F440F602F6F706B
:10199000862F90E0A0E0B0E0042E04C0880F991FCD
:1019A000AA1FBB1F0A94D2F704FF10C00FE010E07B
:1019B00020E030E004C0000F111F221F331F4A95A2
:1019C000D2F7009510952095309503C000E010E007
:1019D0009801C695C695C370BC01CD01602B712BD3
:1019E000822B932BC23049F058F4C13019F00E9479
:1019F0006B12DAC00E945912D7C00E947D12D4C067
:101A00000E945712D1C0DD2319F08C2F817001C0C4
:101A10008695882309F4C8C0402F429546954770A3
:101A2000440F440F602F6F70862F90E0A0E0B0E06D
:101A3000042E04C0880F991FAA1FBB1F0A94D2F757
:101A400004FF10C00FE010E020E030E004C0000F01
:101A5000111F221F331F4A95D2F70095109520952C
:101A6000309503C000E010E09801C695C695C3709C
:101A7000BC01CD01602B712B822B932BC23049F01E
:101A800058F4C13019F00E9430138EC00E941E130A
:101A90008BC00E94421388C00E94911285C0CF70F3
:101AA000DD2339F08C2F0E94B712802F0E94CE0BBD
:101AB0007BC0802F0E94D50B8C2F0E94D81274C03F
:101AC000023F01F128F4003F41F0013FA1F03FC087
:101AD000033FF9F0043F39F13AC0DD2341F01530FE
:101AE00008F05EC08C2F8F710E94FD1259C0163015
:101AF00008F056C0F7CFDD2339F08C2F8F710E948C
:101B0000B7124EC0DD23C9F38C2F8F710E94D812FB
:101B100047C0DD2329F08C2F8F710E94A21240C094
:101B20000E949D123DC0DD2349F0CF718C2F0E9491
:101B3000B71263E08C2F0E94AE1432C081E00E9485
:101B4000C314123068F182E00E94C31429C0DD235F
:101B500031F0112391F2802F0E94A90A21C0112394
:101B600099F2093349F49FEFE3EFF1E09150E0403F
:101B7000F040E1F700C00000802F0E94530B10C01E
:101B80004C2F4F70602FC7010E94C7020E94C811DE
:101B90000FC04C2F4F70602FC7010E948D0308C0EB
:101BA00088EF8C0D843020F40E9457090E94840332
:101BB000DD20C9F00E94201480FD15C0F7011282BB
:101BC0000E941A140E94B712C7010E94140E0E94AC
:101BD0001A14DF91CF911F910F91FF90EF90DF903A
:101BE000CF900C94D812DF91CF911F910F91FF905D
:101BF000EF90DF90CF9008950F931F93CF93DF93D3
:101C0000EC01688179818A810E94F7138C010E941E
:101C100054130E944512B801CE010E94DC0BDF91E3
:101C2000CF911F910F910895CF93DF93EC0198818D
:101C300089812B813C81232B31F08F3F31F481E06E
:101C40009F3F19F403C081E001C080E080FD19C00E
:101C5000CE010E94410381110CC00E9424148823EC
:101C600081F08A81882369F082E0DF91CF910C9422
:101C7000C314CE010E94FC0DCE01DF91CF910C94D4
:101C80001C03DF91CF9108950E944B140E945B14B6
:101C90000E9479140E944E1B0E941D1A80E090E061
:101CA0000E948B0980E090E00C94A10980910001D2
:101CB000909101010E9439160C94440E0E943B142D
:101CC0000C94560EE92FE295EF704E2F50E0FA017A
:101CD0003297EE30F105B0F4EA59FF4F0C943A22F6
:101CE000803F91F018F4883E68F40EC0843F51F4B0
:101CF0000BC0883E48F0813F29F406C093FB88273B
:101D000080F9089580E0089581E008950E94EC1321
:101D10000E94620E0895CF93DF9300D000D01F92EF
:101D2000CDB7DEB70F900F900F900F900F90DF910F
:101D3000CF910895CF93DF9300D000D000D0CDB7DE
:101D4000DEB726960FB6F894DEBF0FBECDBFDF918B
:101D5000CF9108951F93CF93DF93C091A70116E011
:101D60008091A801C81799F0D0E01C9FF0011D9F39
:101D7000F00D1124E755FE4F40815181628173813E
:101D8000848195810E949A0E2196C770E9CFDF91D8
:101D9000CF911F9108954091D9015091DA0160913E
:101DA000DB017091DC018091DD019091DE010C94EA
:101DB0009A0E0F931F93CF93DF938091DE0182954C
:101DC0008F7009F05DC08091DB01882309F458C051
:101DD0008091A7011091A8016091D9017091DA0159
:101DE000C091DC01D091DD0191E06F3F09F090E0FE
:101DF000292F06E0811709F443C0209721F07F3F87
:101E000021F030E003C031E001C0322F90E030FD1E
:101E100034C0089FF001099FF00D1124DF01A75580
:101E2000BE4F11963C911197371327C03C91361342
:101E300024C012963C91129731111FC013964D91F8
:101E40005C9114974C1B5D0B483C5105B0F480919C
:101E5000DE018F7080618093DE01E255FE4F80814C
:101E60008F708061808389ED91E00E94140EDF9174
:101E7000CF911F910F910C94AA0E01968770BACF43
:101E8000DF91CF911F910F9108959F92AF92BF92D2
:101E9000CF92DF92EF92FF920F931F93CF93DF9336
:101EA000CDB7DEB761970FB6F894DEBF0FBECDBFDA
:101EB0008C0185E0F801DE011D9601900D928A9556
:101EC000E1F7F80140815181E2809091D901609160
:101ED000DA012091DC013091DD012115310531F06D
:101EE0006F3F31F481E09F3F19F403C081E001C0EE
:101EF00080E0F82FF1709F2E80FD46C1F801A3808D
:101F0000B48089EDC82E81E0D82EF090DB01F50178
:101F1000E21BF30BFF2009F4DFC08091DE01E83CF7
:101F2000F10508F09BC0282F207F09F052C05613FE
:101F300013C0491311C0FE2CE1100EC08F708061D8
:101F40008093DE010E94CB0EC6010E94140E809188
:101F5000DE01F801858358C1AB2831F05F3F31F4D1
:101F600081E04F3F19F403C081E001C080E080FDB3
:101F700003C081E08E2502C080E090E0F82FF17070
:101F8000FF2E80FF1CC08091A7012091A80136E0A0
:101F9000821709F417C190E0389FF001399FF00DC6
:101FA0001124E755FE4F6181561306C06081461328
:101FB00003C06281E61203C001968770E9CFFE2C50
:101FC000EE2009F421C18091DE0181608093DE0161
:101FD0005AC0561306C0491304C0E11002C0F801EC
:101FE0009FC04D875E878D859E850E94860E8823C3
:101FF00079F1EE2069F12091DE01822F82958F70B8
:1020000090E0029774F08091D9019091DA0198875D
:102010008F831986BB86AA862C87CE0107960E94DD
:10202000140E86E0F801A9EDB1E001900D928A95B9
:10203000E1F70E94D90E0E94CB0E0DC0561729F170
:102040004D875E878D859E850E94860E81112CC0EE
:10205000C8010E94140EFF24F394D6C0282F207FBD
:1020600069F77A2DB98AA88A6E2D89890E948B0E0C
:1020700089ED91E00E94140E86E0F60111928A9596
:10208000E9F70E94CB0EF12CBFC04913D9CFE11064
:10209000D7CFF8018583C8010E94140E86E0F601AF
:1020A00011928A95E9F7B0C0EE2091F22091DE01FD
:1020B000822F82958F7090E002970CF4B2CF8091BE
:1020C000D9019091DA019A8389831B82BD82AC8207
:1020D0002E83CE010196A3CFE83CF10508F047C05E
:1020E000FE2CEE2009F4B4CF561330C049132EC095
:1020F0002091DE0120FD21C0822F82958F70482F14
:1021000050E041155105C9F0F80125834F305105C4
:1021100041F08F5F982F9295907F822F8F70892B3F
:102120008583C8010E94140E86E0F801A9EDB1E094
:1021300001900D928A95E1F742C086E0F801A9ED81
:10214000B1E001900D928A95E1F75EC04D875E8700
:102150008D859E850E94860E811163CF8091DE0160
:1021600081608093DE01C8010E94140E4DC07A2D5B
:10217000B98AA88A6E2D89890E948B0E86E0F601A5
:1021800011928A95E9F71BC0EE2009F461CF4D87C3
:102190005E878D859E850E94860EF82E882309F421
:1021A00057CF86E0F801A9EDB1E001900D928A9534
:1021B000E1F789ED91E00E94A30A0E94D90E0E94E6
:1021C000CB0E22C04D875E878D859E850E94EC13C5
:1021D000292F22952F70223028F49F7039F0811119
:1021E00005C00BC0243028F49F7049F4805E88300D
:1021F00020F0C8010E94140E9F2CF92C05C0F80194
:102200009581907F99F7F9CF8F2D61960FB6F8944D
:10221000DEBF0FBECDBFDF91CF911F910F91FF9019
:10222000EF90DF90CF90BF90AF909F90089588EC93
:1022300090E008951F93CF93DF93CDB7DEB72C972F
:102240000FB6F894DEBF0FBECDBF4F8358876987A6
:102250007A878B879C87CE0107960E94450F88233B
:10226000D1F09F8188852A853B85232B31F08F3FD4
:1022700031F481E09F3F19F403C081E001C080E0A8
:1022800080FD47C04F81588569857A858B859C85FF
:102290000E949A0E3EC086E0FE013796DE0111963E
:1022A00001900D928A95E1F7FF81E8856A857B852B
:1022B0006115710531F0EF3F31F481E0FF3F19F412
:1022C00003C081E001C080E080FD23C02091A8010F
:1022D00030E0C9010196877099274091A70150E02D
:1022E00084179507F1F1F983EA837D836C8396E087
:1022F000929FD001939FB00D1124A755BE4FFE01B0
:10230000319601900D929A95E1F78093A8010E9471
:10231000AA0E16E08091A7019091A801891771F18A
:10232000189FC001112487559E4F0E94450F882396
:1023300029F1E091A7011E9FF0011124E755FE4FFE
:102340004081518162817381848195810E949A0EBE
:102350008091A70190E00196877099278093A7014B
:10236000D9CF0E945E0E1092A8011092A701E9ED4C
:10237000F1E086E0DF011D928A95E9F72C960FB611
:10238000F894DEBF0FBECDBFDF91CF911F910895AE
:10239000EF92FF920F931F93CF93DF938C01892BC2
:1023A00009F46CC0F12CEE24E394E8012196F801C5
:1023B0008491843740F4843008F051C0813081F03A
:1023C000823019F15BC0853709F444C0A8F19CE75D
:1023D000980F903708F052C08F770E94530B41C07E
:1023E0000E5F1F4FFE01849190E2980F983050F4D9
:1023F0008770FE2D01C0FF0F8A95EAF78F2F0E948C
:102400004E1414C00E94A90A2DC00E5F1F4FFE017A
:10241000849190E2980F983060F48770FE2D01C08F
:10242000FF0F8A95EAF78F2F0E9454140E947914A7
:1024300019C00E94530B16C00E5F1F4FFE01C491BE
:10244000CC2381F08FEC97E00197F1F700C00000FA
:10245000C150F6CF0E5F1F4FFE01F49003C00E94E3
:10246000A90A8E018F2D882309F49FCFEFECF7E0A6
:102470003197F1F700C000008150F5CFDF91CF9187
:102480001F910F91FF90EF900895089508950C9477
:1024900046120C9447120E9449126093F201709305
:1024A000F3018093F4019093F5010C94440E0C9485
:1024B0004B120F931F930091F2011091F3012091A1
:1024C000F4013091F501602B712B822B932B1F911E
:1024D0000F910C944B120F931F930091F2011091E6
:1024E000F3012091F4013091F501602371238223DF
:1024F00093231F910F910C944B120F931F930091F4
:10250000F2011091F3012091F4013091F50160275F
:102510007127822793271F910F910C944B120C94D3
:1025200046120E948F126093EE017093EF01809328
:10253000F0019093F1010C94440E60E070E0CB0147
:102540000C9491120F931F9341E050E060E070E013
:102550008A019B0104C0000F111F221F331F8A959F
:10256000D2F7C901B8011F910F910C9491120F93EA
:102570001F9341E050E060E070E004C0440F551F3D
:10258000661F771F8A95D2F78091EE019091EF0137
:10259000A091F001B091F1018A019B01082B192B48
:1025A0002A2B3B2BC901B8011F910F910C9491125A
:1025B0000F931F9341E050E060E070E004C0440FCF
:1025C000551F661F771F8A95D2F7409550956095E5
:1025D00070958091EE019091EF01A091F001B09182
:1025E000F1018A019B01082319232A233B23C901F6
:1025F000B8011F910F910C9491120F931F9341E01A
:1026000050E060E070E004C0440F551F661F771F64
:102610008A95D2F78091EE019091EF01A091F0019F
:10262000B091F1018A019B01082719272A273B272E
:10263000C901B8011F910F910C9491120F931F9330
:102640000091EE011091EF012091F0013091F10124
:10265000602B712B822B932B1F910F910C94911255
:102660000F931F930091EE011091EF012091F00163
:102670003091F10160237123822393231F910F91E5
:102680000C9491120F931F930091EE011091EF01A2
:102690002091F0013091F101602771278227932763
:1026A0001F910F910C9491120895990F990F890F12
:1026B000E82FE695E695E695877051E001C0550F45
:1026C0008A95EAF785E0E89FF0011124E152FE4F78
:1026D00020E030E070E04081CB01022E02C09695F0
:1026E00087950A94E2F78170819584278523842752
:1026F00081932F5F3F4F2530310569F70895990F7A
:10270000990F890F682F669566956695982F977033
:1027100085E0689FB001112440E050E080E0FB01BB
:10272000E40FF51FE152FE4F208130E0092E02C078
:10273000369527950A94E2F721703327042E01C0BD
:10274000220F0A94EAF7822B4F5F5F4F4530510505
:1027500031F70895BF92CF92DF92EF92FF920F93DD
:102760001F93CF93DF938C01C090EE01D090EF01C7
:10277000E090F001F090F1018091F2019091F3016D
:10278000A091F401B091F501C82AD92AEA2AFB2ABE
:10279000CFE1D0E0D701C6010C2E04C0B695A795B5
:1027A000979587950A94D2F780FD04C0219790F7FA
:1027B000B12C07C0BC2EB8018C2F0E94AA03019730
:1027C000A9F38B2DDF91CF911F910F91FF90EF9087
:1027D000DF90CF90BF900895CF93DF93EC010E94DC
:1027E000AA13BE010E94AA03DF91CF9108951F93FF
:1027F000CF93DF93EB019091A601992321F0CB01B8
:102800000E94EC1313C0882349F0CB010E94AA1345
:10281000182F682FCE010E94551304C0CB010E94CF
:102820007F13182FBE01812F0E94AA03DF91CF9141
:102830001F9108958091F601859585958595089558
:102840008091F601877008959091F601977081E06C
:1028500009F480E0089580911A02089590911A0277
:10286000892B80931A020895809590911A028923EA
:1028700080931A02089510921A02089590911902F5
:10288000892B8093190208958095909119028923CC
:1028900080931902089510921902089590911802D8
:1028A000892B8093180208958095909118028923AE
:1028B0008093180208951092180208958091F701EC
:1028C000089508950C9461140C9462149091F7018A
:1028D000981721F08093F7010C9464140895809167
:1028E000F701882329F01092F70180E00C9464141A
:1028F0000895E0910001F091010180911A02808316
:10290000E0910001F0910101908180911902892BE1
:102910008083E0910001F091010190818091180283
:10292000892B80838091F701882381F0E091000159
:10293000F09101019081892B808380910001909119
:1029400001010E948D1581110E946F148091000178
:10295000909101010C9463090C94611498E0899F93
:1029600090011124262B2093F6010E94B71280912A
:10297000F6018595859585950C94AC141092F60119
:1029800080E00C94AC142091F60180958223809312
:10299000F601982F977079F430E0482F082E000C3C
:1029A000550B2417350739F08595859585950E9437
:1029B000D8120C94BE14089580E090E00E945C222E
:1029C00021E08C3E9E4F09F020E0822F089582E0A6
:1029D00090E00C945422682F82E090E00C946222E4
:1029E00083E090E00C945422682F83E090E00C94F4
:1029F0006222CF9384E090E00E945422C82F81E2AB
:102A000090E00E9454222C2F30E0A901582BCA01DB
:102A1000CF910895CF93C92F682F84E090E00E9452
:102A200062226C2F81E290E0CF910C946222AB0184
:102A3000BC018FE090E00C947422AB01BC0183E1F7
:102A400090E00C94742260E070E0CB010C941D15B2
:102A500060E070E0CB010E9417150C9423156CEE1A
:102A60007EEF80E090E00E94802260E082E090E0D3
:102A70000E94622260E083E090E00E946222109255
:102A8000F2011092F3011092F4011092F50160E04E
:102A900084E090E00E94622260E081E290E00E9487
:102AA000622260E085E090E00E94622260E086E0C1
:102AB00090E00E9462226FEF87E090E00E94622225
:102AC00040E050E0BA0188E090E00E94742260E0AB
:102AD0008DE090E00E94622240E050E0BA0188E17F
:102AE00090E00E94742260E087E190E00E94622200
:102AF00040E050E0BA018CE190E00E94742260E076
:102B000080E290E00E9462220C9428150C942F150C
:102B1000682F8EE090E00C946222FC013296809146
:102B20001401882331F080915A0287FF02C09EE190
:102B300001C096E080E0915028F021912223D9F342
:102B40008F5FF9CF0895662351F12091140122235C
:102B5000E9F020915A0227FF19C0462F4695469565
:102B600046954E31E0F4677021E030E002C0220F5C
:102B7000331F6A95E2F7FC01E40FF11D828190E0BA
:102B80002823392381E0232B69F409C0FC01329604
:102B900008962191621729F0E817F907D1F780E02C
:102BA000089581E008959C01FC0132969FEF80E03A
:102BB0004191461789F09F3F19F4411101C0982FA8
:102BC0008F5F8630A9F79F3F39F0F901E90FF11DBA
:102BD00097FDFA956283089508959C012A5F3F4FFF
:102BE000FC014281461301C01282019682179307AD
:102BF000B9F70895262F2695269526952E3168F447
:102C0000FC01E20FF11D677021E030E001C0220FEE
:102C10006A95EAF78281282B22830895262F26952C
:102C2000269526952E3170F4FC01E20FF11D677098
:102C300021E030E001C0220F6A95EAF720958281F9
:102C400028232283089520911401222329F0209122
:102C50005A0227FD0C94FA150C94D31520911401F7
:102C6000222329F020915A0227FD0C940E160C9471
:102C7000ED1520911401FC013296222331F0809150
:102C80005A0287FF02C08EE101C086E0DF011D927B
:102C90008A95E9F7089508950C944B160C944B16F9
:102CA000CF930E944E160E94F8050E944C16C0E079
:102CB0008C2F0E949905811104C0CF5FC530C1F7E8
:102CC00001C081E0CF9108950C944B160C946416CA
:102CD0000E94661680916002843049F110921C02B5
:102CE00020E488E190E00FB6F894A8958093600006
:102CF0000FBE2093600080E00E9484030E9466164D
:102D000083B7817F846083BF83B7816083BF7894FA
:102D1000889583B78E7F83BF0FB6F894A89580916E
:102D20006000886180936000109260000FBE08957B
:102D30000C944B160E945E0E0E9457090E94840359
:102D40000C9498161F920F920FB60F9211248F9326
:102D50009F93AF93BF9380911C02811113C0809108
:102D6000560290915702A0915802B0915902419693
:102D7000A11DB11D8093560290935702A093580253
:102D8000B0935902BF91AF919F918F910F900FBE59
:102D90000F901F90189582E084BD93E095BD9DE74C
:102DA00097BD80936E0008952FB7F89480915602D6
:102DB00090915702A0915802B09159022FBF0895E7
:102DC0009C014FB7F8948091560290915702A091C0
:102DD0005802B09159024FBF821B930B089578940B
:102DE0001F920F920FB60F9211248F939F93AF9360
:102DF000BF938091560290915702A0915802B091D2
:102E000059020196A11DB11D80935602909357025D
:102E1000A0935802B0935902BF91AF919F918F91A7
:102E20000F900FBE0F901F90189587E797E790932C
:102E30000108809300089AE088E10FB6F894A895FD
:102E4000809360000FBE90936000FFCFCF92DF921F
:102E5000EF92FF920F931F93CF93C0E0E82EF12CD7
:102E60008C2F0E94990500E010E0C82ED12CC601DD
:102E7000002E02C0959587950A94E2F780FD06C062
:102E80000F5F1F4F0430110591F70AC0602F7C2F90
:102E900080E00E948E03E816F90691F781E004C0F5
:102EA000CF5FC530E9F680E0CF911F910F91FF9081
:102EB000EF90DF90CF900895CF93C82F8CE20E94BF
:102EC0002617882321F08C2FCF910C94261780E0B1
:102ED000CF910895CF930E94DC14811102C00E940B
:102EE0008615C5E6C15049F00E94F8058FE19EE4C1
:102EF0000197F1F700C00000F5CF89E20E945C174E
:102F000081112AC18AE20E945C1781110E948615F4
:102F100085E00E945C1781110E9415170E94E7143A
:102F200080931B0287E00E945C178823A9F18BE144
:102F30000E945C17882351F080911B0281FB22279D
:102F400020F991E0922790FB81F90EC08EE00E945B
:102F50005C17882361F080911B0282FB222720F9F5
:102F600091E0922790FB82F980931B0215C080E1CB
:102F70000E945C1790911B02882341F093FB22274B
:102F800020F981E0822780FB93F904C0892F809586
:102F900080FB90F990931B0280911B020E94EB141E
:102FA0000E94F91490935B0280935A0280EE0E9473
:102FB0005C17882341F080915A02982F909590FBDE
:102FC00080F980935A0289E30E945C17882359F0A4
:102FD00080915A0281FB222720F991E0922790FBF1
:102FE00081F980935A0282EE0E945C17882359F07F
:102FF00080915A0282FB222720F991E0922790FBD0
:1030000082F980935A0286EE0E945C17882359F059
:1030100080915A0283FB222720F991E0922790FBAE
:1030200083F980935A0283EE0E945C17882359F03B
:1030300080915A0284FB222720F991E0922790FB8D
:1030400084F980935A0285E30E945C17882359F023
:1030500080915A0285FB222720F991E0922790FB6C
:1030600085F980935A0281E30E945C17882359F006
:1030700080915A0286FB222720F991E0922790FB4B
:1030800086F980935A0281E10E945C17882359F0E7
:1030900080915A0287FB222720F991E0922790FB2A
:1030A00087F980935A0280915A0290915B020E94A4
:1030B0000A1587E20E945C17C82F8EE10E945C17F8
:1030C0008111C2608FE10E945C178111C46080E2AF
:1030D0000E945C178111C86081E20E945C17811117
:1030E000C06182E20E945C178111C06283E20E948B
:1030F0005C178111C06484E20E945C17882311F080
:10310000C06802C0CC2329F08C2F0E94F4146C2FCD
:1031100003C00E94F014682F70E080E090E00E94ED
:1031200057126091EE017091EF018091F001909142
:10313000F1010E948F128FE00E945C17882319F022
:1031400081E00E94881585E10E945C17882321F0A8
:1031500080E0CF910C948815CF910895809123023F
:1031600080FF0BC06091070185E0689FB0011124CA
:1031700075956795759567952BC081FF09C060911E
:10318000070185E0689FB00111247595679520C0FF
:1031900082FF07C06091070185E0689FB00111249C
:1031A00017C0909122029923D1F0609106019617E1
:1031B00088F72091070185E0289F90011124929FB4
:1031C000A001939F500D112470E0CA010E94262295
:1031D0006038710540F46115710519F406C065E0A9
:1031E00070E0862F08958FE7089581E0089580911B
:1031F000230280FF08C06091030170E07595679518
:103200007595679521C081FF06C06091030170E04C
:103210007595679519C082FF04C06091030170E045
:1032200010C090912102992399F0609102019617A4
:10323000A0F780910301899FC001112470E00E94D2
:1032400026226038710540F46115710519F406C035
:1032500061E070E0862F08958FE7089581E008957A
:10326000803F21F40E94AE18819504C0813F29F46B
:103270000E94AE18809327020895823F21F40E9495
:10328000AE18819504C0833F29F40E94AE18809344
:1032900026020895893F19F40E94F71805C08A3F55
:1032A00031F40E94F71881958093280208958B3F8E
:1032B00021F40E94F718819504C08C3F29F40E94E4
:1032C000F718809329020895843F21F48091250204
:1032D000816017C0853F21F480912502826011C072
:1032E000863F21F48091250284600BC0873F21F442
:1032F00080912502886005C0883F31F480912502C5
:1033000080618093250208958D3F21F480912302EE
:1033100081600BC08E3F21F480912302826005C042
:103320008F3F29F4809123028460809323020895C3
:10333000803F39F48091270287FF6AC010922702EC
:1033400067C0813F29F4809127021816BCF360C042
:1033500090912602823F29F497FF5AC010922602CC
:1033600057C0833F19F41916CCF352C0909128022C
:10337000893F31F419160CF04BC01092280248C056
:103380008A3F19F497FF44C0F8CF8B3F39F48091FE
:10339000290287FF3DC0109229023AC08C3F29F4D0
:1033A000809129021816BCF333C0843F21F4809128
:1033B00025028E7F17C0853F21F4809125028D7FE5
:1033C00011C0863F21F4809125028B7F0BC0873F7F
:1033D00021F480912502877F05C0883F31F48091D8
:1033E00025028F7E8093250213C08D3F21F48091AA
:1033F00023028E7F0BC08E3F21F4809123028D7FAC
:1034000005C08F3F29F4809123028B7F8093230294
:1034100080912602811106C080912702811102C08D
:103420001092220280912802811106C08091290207
:10343000811102C01092210208950E94D416209199
:103440002602211104C020912702222321F090930B
:10345000200280931F0220912802211104C0209194
:103460002902222321F090931E0280931D0284E200
:1034700092E00C947D09EF92FF920F931F93CF93EC
:10348000DF9300D000D000D0CDB7DEB786E0E4E215
:10349000F2E0DE01119601900D928A95E1F7E0903D
:1034A0002602F09027020091280210912902109222
:1034B0002602109227021092280210922902E1108F
:1034C00003C0FF2009F45DC080911F02909120028B
:1034D0000E94E016AC0190912202992339F02091CC
:1034E000080130E02417350758F04BC0209109013E
:1034F0008AE0289F900111242417350718F041C055
:103500009F3F19F09F5F90932202EE2061F00E948E
:10351000AE181E1414F09FEF01C091E0989F902DFB
:10352000112490932602FF2061F00E94AE181F1410
:1035300014F09FEF01C091E0989F902D112490937B
:103540002702309126023323E1F020912702222323
:10355000C1F045EB3403C0011124992319F0909375
:10356000260203C081E08093260235EB2303C001CD
:103570001124992319F09093270203C081E08093CE
:103580002702011103C0112309F45DC080911D02BF
:1035900090911E020E94E016AC01909121029923A5
:1035A00039F02091040130E02417350758F04BC062
:1035B000209105018AE0289F9001112424173507E6
:1035C00018F041C09F3F19F09F5F909321020023A4
:1035D00061F00E94F718101614F09FEF01C091E0FF
:1035E000989F902D112490932802112361F00E943E
:1035F000F718111614F09FEF01C091E0989F902DDD
:10360000112490932902309128023323E1F0209174
:1036100029022223C1F045EB3403C0011124992370
:1036200019F09093280203C081E08093280235EBC3
:103630002303C0011124992319F09093290203C098
:1036400081E0809329028091260281110BC0809134
:103650002702811107C080912802811103C0809147
:10366000290281110E941D1AEB82FC820D831E83A8
:1036700086E0FE013196A4E2B2E001900D928A95B7
:10368000E1F726960FB6F894DEBF0FBECDBFDF91EF
:10369000CF911F910F91FF90EF900895E4E2F2E037
:1036A00086E0DF011D928A95E9F7109222021092BE
:1036B000210210922302089580914A020895CF9327
:1036C000DF9300D01F92CDB7DEB7909160029430A7
:1036D00019F589837B836A8382E08093E9008FEF09
:1036E0009091E800815095FD06C09AE69A95F1F711
:1036F00000C08111F5CF8091E80085FF0DC040E04A
:1037000050E063E070E0CE0101960E948B1D809135
:10371000E8008E778093E8000F900F900F90DF9174
:10372000CF910895BC0184E00C945F1BBC0183E041
:103730000C945F1B22E02093E9002FEF3091E8000A
:10374000215035FD06C03AE63A95F1F700C0211147
:10375000F5CF2091E80025FF0BC040E050E066E087
:1037600070E00E948B1D8091E8008E778093E800C6
:103770000895CF93DF9320911401222339F02091F3
:103780005A0227FF03C060E222E002C068E021E0A5
:103790002093E9002FEF3091E800215035FD06C05D
:1037A0003AE63A95F1F700C02111F5CF2091E800F3
:1037B00025FF1DC0EC0180911401811105C040E07E
:1037C00050E068E070E003C070E040E050E0CE01FF
:1037D0000E948B1D8091E8008E778093E80080E244
:1037E000FE01AAE2B2E001900D928A95E1F7DF9125
:1037F000CF91089580915F02811109C00E941C1F22
:103800000E94791F8091E20084608093E200089515
:1038100010925F020895089508950C949A1642E05C
:1038200061EC81E00E94951E42E261EC82E00C9422
:10383000951E80916202833009F460C030F48130BB
:1038400071F0823009F499C008958A3009F485C076
:103850008B3009F46BC0893009F0A7C020C080917B
:103860006102813A09F0A1C08091E800877F8093CE
:10387000E8008091650290916602892B21F460E254
:103880008AE292E003C060E080E090E070E00E9495
:10389000D61D8091E8008B778093E8000895809191
:1038A0006102813209F081C08091650290916602C7
:1038B000029708F07AC08091E800877F8093E80043
:1038C0008091E80082FD05C0809160028111F8CFEF
:1038D0006CC02091F3008091F20090E0922B02974F
:1038E00029F48091F1008B7F813021F48091F100E7
:1038F00080934A028091E8008B7753C080916102E7
:10390000813A09F052C08091650290916602892B3C
:1039100009F04BC08091E800877F8093E800809198
:10392000E80080FFFCCF8091140136C080916102D5
:103930008132D9F58091650290916602892BA9F5B3
:103940008091E800877F8093E8000E94CA1E8091E2
:103950006302809314010C945E0E809161028132A7
:1039600021F58091E800877F8093E8000E94CA1EBD
:103970008091640280934B02089580916102813AA4
:10398000A1F48091E800877F8093E8008091E800AF
:1039900080FFFCCF80914B028093F1008091E80082
:1039A0008E778093E8000C94CA1E089584B7877FB1
:1039B00084BF0FB6F894A8958091600088618093C9
:1039C0006000109260000FBE90E080E80FB6F8949F
:1039D00080936100909361000FBE0E94C7090E940E
:1039E0001C1F0E94791F8091E20084608093E20096
:1039F00078940E940B220E94D1098AE091E00E94F3
:103A0000520980916002853069F40E9468168091A5
:103A10005E028823B1F30E945016882391F30E941E
:103A2000761DEFCF0E94DB09ECCF0C94171D292FD8
:103A3000332723303105C9F060F42130310581F09E
:103A40002230310509F04AC08BE390E022EB33E0ED
:103A500049C02132310511F12232310579F13EC0E0
:103A600082E190E02DEE33E03DC099278130910551
:103A700061F040F08230910559F0039779F5ECE759
:103A8000F3E008C0EEEAF3E005C0E6E9F3E002C0C7
:103A9000E2E8F3E0849190E09F0124C06115710594
:103AA00041F061307105D1F489E090E02DED33E013
:103AB00019C089E090E024EC33E014C06115710571
:103AC00041F06130710551F48CEB90E02FEF33E061
:103AD00009C080E490E02BEB34E004C080E090E08B
:103AE00020E030E0FA0131832083089519BC82E0A0
:103AF00089BD09B400FEFDCF8091D8008F7D8093F1
:103B0000D8008091E00082608093E0008091E00026
:103B100081FDFCCF0895CF92DF92EF92FF920F9339
:103B20001F93CF93DF93EC018B017A010E94E91E72
:103B3000811133C0E114F10439F0F70180819181E2
:103B4000081B190BC80FD91FC12CD12C0115110549
:103B500019F18091E80085FD16C08091E8008E770C
:103B60008093E800E114F10449F0F701808191812C
:103B7000C80ED91ED182C08285E00FC00E94E91E06
:103B8000882321F30AC089918093F1000150110923
:103B9000FFEFCF1ADF0ADACF80E0DF91CF911F91DC
:103BA0000F91FF90EF90DF90CF90089520916702E2
:103BB000309168022617370748F06115710539F40E
:103BC0002091E8002E772093E80001C0B901FC01A4
:103BD00020E06115710579F1809160028823F1F18F
:103BE0008530F1F18091E80083FD3CC08091E800D0
:103BF00082FD2EC08091E80080FFEBCF2091F30082
:103C00008091F20090E0922B6115710551F088309F
:103C1000910538F421912093F100615071090196CA
:103C2000F3CF21E0089709F020E08091E8008E773B
:103C30008093E800CECF2111CFCF0AC080916002DF
:103C4000882361F0853061F08091E80083FD0AC02F
:103C50008091E80082FFF2CF80E0089582E008952D
:103C600083E0089581E00895209167023091680211
:103C70002617370748F06115710539F42091E800DF
:103C80002E772093E80001C0B901FC0120E0611506
:103C9000710591F180916002882309F440C085305C
:103CA00009F43FC08091E80083FD3DC08091E800A9
:103CB00082FD2FC08091E80080FFE9CF2091F300C2
:103CC0008091F20090E0922B6115710559F08830D7
:103CD000910540F424912093F100319661507109CF
:103CE0000196F2CF21E0089709F020E08091E800EA
:103CF0008E778093E800CBCF2111CCCF0AC0809182
:103D00006002882361F0853061F08091E80083FDD6
:103D10000AC08091E80082FFF2CF80E0089582E03F
:103D2000089583E0089581E00895982F973068F50D
:103D30009093E900981739F07091EC002091ED0014
:103D40005091F00003C0242F762F50E021FD02C0D7
:103D50009F5FECCF3091EB003E7F3093EB003091D2
:103D6000ED003D7F3093ED003091EB0031603093FA
:103D7000EB007093EC002093ED005093F000209145
:103D8000EE0027FDE5CF80E008958F708093E90075
:103D900081E008958091610287FF11C08091E80061
:103DA00082FD05C0809160028111F8CF11C0809121
:103DB000E8008B770BC080916002882349F08091E6
:103DC000E80080FFF8CF8091E8008E778093E800CC
:103DD00008952091E4003091E50095E64091EC00D3
:103DE000842F817040FF23C08091E80080FD1DC0BA
:103DF00080916002882399F0853099F08091EB00E2
:103E000085FD11C04091E4005091E500241735076D
:103E100029F3915011F09A01E1CF84E0089582E0F6
:103E2000089583E0089581E0089580E00895409129
:103E3000E80042FFDDCF08950E948A1F0E94921F72
:103E4000E0EEF0E0808181608083E8EDF0E0808149
:103E50008F77808319BCA7EDB0E08C918E7F8C9317
:103E600080818F7E808310925F0208950F931F934D
:103E7000CF93DF930E948A1F0E94921FC8EDD0E06B
:103E800088818F77888388818068888388818F7D07
:103E9000888319BC1092600210925C0210925E023C
:103EA00010925D0200EE10E0F80180818B7F80832C
:103EB00088818160888342E060E080E00E94951EF6
:103EC000E1EEF0E080818E7F8083E2EEF0E08081A1
:103ED00081608083808188608083F80180818E7F0B
:103EE0008083888180618883DF91CF911F910F91BA
:103EF0000895E8EDF0E080818F7E8083E7EDF0E0CB
:103F000080818160808384E082BF81E080935F0252
:103F10000C94361FE8EDF0E080818E7F8083109254
:103F2000E20008951092DA001092E10008951F92C5
:103F30000F920FB60F9211242F933F934F935F93DD
:103F40006F937F938F939F93AF93BF93EF93FF9361
:103F50008091E10082FF0BC08091E20082FF07C0E8
:103F60008091E1008B7F8093E1000E940A22809182
:103F7000DA0080FF1DC08091D80080FF19C08091B9
:103F8000DA008E7F8093DA008091D90019BC80FF1F
:103F90000BC082E089BD09B400FEFDCF81E08093B3
:103FA00060020E94FA1B04C0109260020E94081C6A
:103FB0008091E10080FF19C08091E20080FF15C070
:103FC0008091E2008E7F8093E2008091E200806128
:103FD0008093E2008091D80080628093D80019BC61
:103FE00085E0809360020E940C1C8091E10084FFB8
:103FF0002FC08091E20084FF2BC019BC82E089BDF4
:1040000009B400FEFDCF8091D8008F7D8093D80049
:104010008091E1008F7E8093E1008091E2008F7EAD
:104020008093E2008091E20081608093E2008091C1
:104030005C02882311F084E007C08091E30087FDD3
:1040400002C081E001C083E0809360020E940D1CE9
:104050008091E10083FF29C08091E20083FF25C0A9
:104060008091E100877F8093E10082E0809360028D
:1040700010925C028091E1008E7F8093E10080913C
:10408000E2008E7F8093E2008091E2008061809365
:10409000E20042E060E080E00E94951E8091F00026
:1040A00088608093F0000E940B1CFF91EF91BF91FC
:1040B000AF919F918F917F916F915F914F913F91C0
:1040C0002F910F900FBE0F901F9018951F920F9277
:1040D0000FB60F9211242F933F934F935F936F93DB
:1040E0007F938F939F93AF93BF93CF93DF93EF9380
:1040F000FF93C091E900CF708091EC00D82FD17070
:1041000080FDD0E81092E9008091F000877F8093D5
:10411000F00078940E94AA201092E9008091F000AB
:1041200088608093F000CD2BCF70C093E900FF91A1
:10413000EF91DF91CF91BF91AF919F918F917F913F
:104140006F915F914F913F912F910F900FBE0F9004
:104150001F9018951F93CF93DF93CDB7DEB7AA9723
:104160000FB6F894DEBF0FBECDBFE1E6F2E080915E
:10417000F100819322E0E936F207C9F70E94191C89
:104180008091E80083FF2EC18091610290916202CC
:10419000492F50E04A30510508F024C1FA01EC588B
:1041A000FF4F0C943A22803821F0823809F01AC16E
:1041B00008C080915D0290915E02992389F082602F
:1041C0000FC0809165028F70873008F00BC180931B
:1041D000E9008091EB0085FB882780F91092E900C7
:1041E0009091E800977F9093E8008093F1001092FF
:1041F000F100D1C0282F2D7F09F0F4C0882319F0D9
:10420000823061F0EFC080916302813009F0EAC032
:10421000933009F080E080935E022EC080916302AB
:1042200081112AC0809165028F702FEF280F2630F0
:1042300008F0D8C08093E9002091EB0020FF1CC05B
:10424000933021F48091EB00806214C09091EB00D8
:1042500090619093EB0021E030E0A90102C0440F8F
:10426000551F8A95E2F74093EA001092EA00809188
:10427000EB0088608093EB001092E9008091E800E9
:10428000877F8093E8000E94CA1EACC08111AAC03B
:10429000109163021F778091E3008078812B8093D7
:1042A000E3008091E800877F8093E8000E94CA1EA7
:1042B0008091E80080FFFCCF8091E30080688093CC
:1042C000E300111102C082E001C083E0809360022C
:1042D00089C08058823008F085C080916302909137
:1042E00064028C3D53E0950779F583E08A838AE286
:1042F00089834FB7F894DE01139620E03EE051E247
:10430000E32FF0E050935700E49120FF03C0E295C3
:10431000EF703F5FEF708E2F90E0EA3010F0C7969D
:1043200001C0C0968D939D932F5F243149F74FBFF5
:104330008091E800877F8093E8006AE270E0CE0118
:1043400001960E94D61D16C06091650270916602AA
:10435000AE014F5F5F4F0E94151DBC01892B09F410
:1043600041C09091E800977F9093E80089819A81FD
:104370000E94341E8091E8008B778093E80032C061
:10438000803881F58091E800877F8093E8008091F4
:104390005C028093F1008091E8008E7772CF8111EA
:1043A00021C0809163029091640299270297D4F40E
:1043B0008091E800877F8093E8008091630280937A
:1043C0005C020E94CA1E80915C02811106C080912D
:1043D000E30087FD02C081E001C084E080936002B9
:1043E0000E940F1C8091E80083FF0AC08091E800C2
:1043F000877F8093E8008091EB0080628093EB00E0
:10440000AA960FB6F894DEBF0FBECDBFDF91CF9155
:104410001F9108950895CF93809160028823A1F0A1
:10442000C091E900CF709091EC00892F817090FDD0
:1044300080E8C82B1092E9008091E80083FD0E947B
:10444000AA20CF70C093E900CF91089597FB072E63
:1044500016F4009407D077FD09D00E94402207FC93
:1044600005D03EF4909581959F4F08957095619584
:104470007F4F0895EE0FFF1F0590F491E02D0994F2
:10448000AA1BBB1B51E107C0AA1FBB1FA617B7077A
:1044900010F0A61BB70B881F991F5A95A9F7809596
:1044A0009095BC01CD010895F999FECF92BD81BDD3
:1044B000F89A992780B50895A8E1B0E042E050E06D
:1044C0000C948822262FF999FECF92BD81BDF89ACF
:1044D000019700B4021639F01FBA20BD0FB6F89448
:1044E000FA9AF99A0FBE08950396272F0E94632225
:1044F0000E946222252F0E946322242F0C946322A3
:104500000196272F0E9463220C946222DC01CB01CA
:10451000FC01F999FECF06C0F2BDE1BDF89A3196D3
:1045200000B40D9241505040B8F70895F894FFCF71
:10453000F8012808641E140A321E5C1BB91B9A1B62
:10454000961B921B01E200E900EA00B500B600B735
:1045500000CD008301CC008A019201940121022345
:104560000224022502260227022A02B300B4006FA9
:104570000070008182833536376030313233340049
:10458000FF0100010000FFFF0000010001FF00E249
:1045900000E900EA00B500B600B700CD008301CC09
:1045A000008A01920194012102230224022502269D
:1045B0000227022A02B300B4006F007000818283D8
:00000001FF
