:100000000C9447010C948E010C948E010C948E017B
:100010000C948E010C948E010C948E010C948E0124
:100020000C948E010C948E010C94FE1C0C94CD1D2E
:100030000C9429140C948E010C948E010C948E0156
:100040000C948E010C948E010C948E010C948E01F4
:100050000C948E010C9476140C948E010C948E01E9
:100060000C948E010C948E010C948E010C948E01D4
:100070000C948E010C948E010C948E010C948E01C4
:100080000C948E010C948E010C948E010C948E01B4
:100090000C948E010C948E010C948E010C948E01A4
:1000A0000C948E010C948E010C948E01A209A2096D
:1000B000D409D409210A3F0A600B600B4A0ADF0AFF
:1000C000F00AF00A500B600B600B590B000C000C8F
:1000D000120C120C090C120C120C120C000C000C5D
:1000E0000E0C120C120C0E0C3A1E611E591F611ED2
:1000F000591FAD1ED01E591F271F361FE3000100D8
:1001000001000100010001000100010001000100E7
:1001100001000100010001000100010004033000A2
:10012000000010036F006E0065005F006B0065004B
:10013000790000000A035A006900540065000000BD
:100140000403090409023B00020100A0FA090400AB
:1001500000010301010009211101000122400007F3
:1001600005810308000A09040100010300000009D9
:10017000211101000122BC000705820320000A12A0
:1001800001100100000008EDFE60600100010203A3
:100190000105010902A10185020901A10005091952
:1001A0000129051500250195057501810295017547
:1001B0000381010501093009311581257F950275FB
:1001C00008810609381581257F9501750881060586
:1001D0000C0A38021581257F950175088106C0C07B
:1001E00005010980A101850319012AB7001501261F
:1001F000B700950175108100C0050C0901A10185AA
:100200000419012AA002150126A00295017510818A
:1002100000C005010906A1018505050719E029E7C8
:10022000150025019508750181020507190029EFC0
:100230001500250195F075018102050819012905B0
:10024000950575019102950175039101C00501099C
:1002500006A101050719E029E71500250195087594
:100260000181029501750881010507190029FF1513
:100270000026FF009506750881000508190129056B
:10028000950575019102950175039101C000112436
:100290001FBECFEFDAE0DEBFCDBF04B603FE27C03E
:1002A0008091380290913902A0913A02B0913B02BC
:1002B0008730904BA740B04BD1F410923802109287
:1002C000390210923A0210923B0214BE84B7877F23
:1002D00084BF0FB6F894A8958091600088618093E0
:1002E0006000109260000FBEE0E0F8E3099511E0B5
:1002F000A0E0B1E0EEEFFFE302C005900D92A83759
:10030000B107D9F722E0A8E7B1E001C01D92A833F8
:10031000B207E1F70E943D1A0C94FD1F0C940000F7
:1003200080E090E008950895089581E0089508958B
:1003300081E008950C94950108950C949C011F93FD
:10034000CF93DF9300D000D01F92CDB7DEB74983A3
:100350005A836B833091870189819A81311114C04E
:10036000662359F0222349F00E943611182F682F76
:1003700089819A810E94E51003C00E940D11182FF7
:1003800069817A81812F04C00E94361169817A8146
:100390000F900F900F900F900F90DF91CF911F91C2
:1003A0000C944D02FC01262F4081518162817381A2
:1003B00084810C949F01CF93DF93EC0160E00E9455
:1003C000D201BE01DF91CF910C949D010E94681271
:1003D000811102C00E9412130C945F040C945D04FE
:1003E00008950E94EE0B0E94F0012FE78AE196E04B
:1003F000215080409040E1F700C000000C949C1414
:100400000F931F93CF93DF93EC0161E00E94D20121
:100410008C01BE010E949A01882349F1BE01C801E6
:100420000E946505882319F1BE01C8010E94B70525
:100430008823E9F0BE01C8010E94E2068823B9F0D2
:100440008A81882369F001158CE5180731F00E3D8B
:100450001C4531F40E9412130AC00E94F10107C02A
:10046000CE01DF91CF911F910F910C94980180E004
:10047000DF91CF911F910F9108950C94970181E026
:1004800008950C943F02CF93C82F0E943D028C2FF9
:100490000E944102CF9108950895972F70E0690F4F
:1004A000711DFB01E80FF11DEE0FFF1FE450FF4F20
:1004B000859194910895880F991FFC01E45EFE4F89
:1004C000859194910895CF93DF930E944D020E94ED
:1004D0007B03EC018115904508F041C0C11580E413
:1004E000D80708F0D1C0C83ED10510F5C03ED105EF
:1004F00008F0FDC0C83AD10578F4C53AD10508F036
:10050000A2C0C130D10509F4F2C008F4EEC0C43075
:10051000D10508F0ECC0E9C0CF3BD10508F49BC081
:10052000C03CD10508F4E1C0CE01805C91099EC0B9
:10053000C11590E2D90758F4C11521E0D20708F09F
:10054000D6C0C03FD10508F4D0C0D065D0C0C11519
:1005500080E3D80708F08EC0CE019F7087C0C11518
:1005600095E5D90708F043C0C11524E5D20708F086
:10057000A2C0C11582E5D80708F5C11591E5D907D4
:1005800008F085C0CE0174E0969587957A95E1F7DD
:1005900083709C2F937021E030E002C0220F331F44
:1005A0009A95E2F73C68382BCF70C695C69580E2E5
:1005B000C89FE0011124C22BD32B99C09E01237048
:1005C00033278C2F86958695C115D34508F064C0D6
:1005D000C1E0D0E002C0CC0FDD1F2A95E2F720E297
:1005E000829FC0011124C82BD92BDC6880C0C115A3
:1005F00029E5D207A0F4C11588E5D80708F060C046
:10060000C11596E5D90708F070C08C2F0E940F0421
:100610008F71C82FD0E0DC2FCC27D06268C0C11505
:100620002AE5D20708F451C0CE01905681159042B8
:1006300008F05BC08D2F8F710E940F04DD27D06200
:100640008F71D82B54C0C55AD0E0CD5BDE4FC88126
:10065000D0E0D0644CC0C85AD0E0CC0FDD1FCB5ED8
:10066000DE4F0990D881C02DD46441C00E945B0246
:10067000EC013DC0CE019927D3FF03C0EC01D86C3B
:1006800036C0EC01D06C33C0DF70D06A30C0DC2FD4
:10069000CC27C16FD06A2BC0C1E0D0E002C0CC0F24
:1006A000DD1F2A95E2F720E2829FC0011124C82BAA
:1006B000D92BDA681CC0DC2FCC27C46FD06A17C0D6
:1006C000DC2FCC27C06FD06A12C08C2F8F700E9495
:1006D0000F0494E0D695C7959A95E1F7CF70D0E0D6
:1006E000DC2FCC27D069C82B02C0C0E0D0E0CE01FF
:1006F000DF91CF9108958238910569F1B0F481338B
:10070000910509F46DC048F48932910509F463C07C
:100710008A32910509F469C008958533910509F479
:1007200055C089339105B9F00895833E910569F16B
:1007300038F4803E9105B1F0823E910509F10895AB
:10074000863E9105A9F1873E9105B9F1843E910558
:1007500009F064C023C02091290220FD4FC021FD73
:100760004DC008958091290280FD44C080912A02E5
:1007700080FF44C08091290284FD42C083EE4DC0B9
:100780008091290282FF38C0F5CF8091290282FD35
:1007900033C080912A0280FD31C0ECCF80912A02C3
:1007A00081FF32C08091290284FD2AC087EE35C0C6
:1007B0008091290283FF26C0F5CF8091290283FD15
:1007C00021C080912A0281FD1FC0ECCF80912902B7
:1007D00085FD1CC01DC08091290285FD19C016C071
:1007E0008091290286FD16C017C08091290286FDDE
:1007F00013C010C089E311C082EE0FC080EE0DC09F
:1008000080E00BC086EE09C084EE07C089E205C017
:1008100085E303C08AE201C081E390E008959091EE
:10082000290292FF0DC0282F2871283019F4877FE4
:10083000846006C0282F2471243011F48B7F8860D7
:1008400093FF0DC0282F2871283119F4877E846109
:1008500006C0282F2471243111F48B7E88612091E9
:100860002A0220FF0DC0382F3871383019F4877FE5
:10087000816006C0382F3171313011F48E7F88606D
:1008800021FF0DC0282F2871283119F4877E81613E
:1008900006C0282F2171213111F48E7E886194FDCC
:1008A000877E0895E82FF0E0EC5DFD4F808108958C
:1008B000089580E58A95F1F708950C9494010C94BD
:1008C00093015098589A5198599A10922302109275
:1008D000240281E00E9496040C94E601CF93DF93FA
:1008E000509A58980E94590489B186958170C82FF2
:1008F00080E0D82F81E0C827C1705098589A809125
:100900002302C81721F0C0932302C1E001C0C0E058
:100910002C2F41E064E272E083E292E00E949704AF
:100920000E94EE018C2FDF91CF9108950895FF92E0
:100930000F931F93CF93DF938C01F62ED72FC42FE5
:10094000222349F081E080937A010E945B14909306
:1009500079018093780180917A018823C1F0809198
:100960007801909179010E946714069780F0EF2D2D
:10097000FD2FD8014C2F50E0CD01801B910B841727
:1009800095071CF48D918193F7CF10927A01DF9136
:10099000CF911F910F91FF900895AF92BF92CF9288
:1009A000DF92EF92FF920F931F93CF93DF937C011F
:1009B0005B01C42FD22FFC0182818823F9F0409380
:1009C0007D010E945B1490937C0180937B0180E207
:1009D0008C0F883008F06EC0C77081E001C0880FAE
:1009E000CA95EAF7DF91CF911F910F91FF90EF9099
:1009F000DF90CF90BF90AF900C945E0980917D0105
:100A0000481335C080917B0190917C010E9467144E
:100A10006C01B701C5010E94A70EC816D90638F5AA
:100A200010E21D0FCD17B9F080E28C0F883040F432
:100A3000C77081E001C0880FCA95EAF70E94650976
:100A4000183058F581E09D2F977001C0880F9A9556
:100A5000EAF70E945E09802F0E944B09183050F57A
:100A6000D77081E001C0880FDA95EAF70AC080E20A
:100A70008C0F8830F8F4C77081E001C0880FCA95E8
:100A8000EAF7DF91CF911F910F91FF90EF90DF90E8
:100A9000CF90BF90AF900C946509802FDF91CF91DC
:100AA0001F910F91FF90EF90DF90CF90BF90AF908C
:100AB0000C944B09DF91CF911F910F91FF90EF9014
:100AC000DF90CF90BF90AF9008950F939C01CB0122
:100AD000233F4CE5340731F188F4283DFCE53F071E
:100AE000D9F0293D4CE5340779F1273D3C45A9F57E
:100AF00006E221EE41EE67ED7CE52BC0253FFCE5EB
:100B00003F07E1F0A8F0263F3C4539F507E225EE26
:100B100046EE66EF7CE51DC007E225EE45EE68ED8A
:100B20007CE517C006E221EE40EE63EF7CE511C0E4
:100B300007E225EE44EE64EF7CE50BC006E221EE11
:100B400042EE65EF7CE505C008E221E045EE69ED87
:100B50007CE50E94CD0480E008C0FC0182818823EE
:100B600019F010927D0101C081E00F910895CF939B
:100B7000DF93EC01FB018281882309F41FC1C2309D
:100B8000FCE5DF0708F41BC1C6319CE5D90738F046
:100B90009E012A5F3C452930310508F010C10E94B2
:100BA000851290932A0280932902C031ECE5DE077A
:100BB00009F4C3C008F041C0C8308CE5D80709F477
:100BC0009AC0F0F4C430ECE5DE0709F487C068F49D
:100BD000C2308CE5D80709F477C0C330DC4509F092
:100BE000E3C080912902826076C0C630ECE5DE0762
:100BF00009F46EC008F07BC08091290288606BC048
:100C0000CC308CE5D80709F485C068F4CA30ECE52F
:100C1000DE0709F474C008F079C00E94EE0B8091E1
:100C20002902806858C0CE308CE5D80709F476C018
:100C300008F07FC0809129028BC0CB3FECE5DE0736
:100C400009F44FC018F5C3318CE5D80709F47DC00D
:100C500078F4C131ECE5DE0709F473C0C231DC453C
:100C600009F0A2C00E94EE0B809129028F7733C059
:100C7000C5318CE5D80709F472C008F486C0CA3FB4
:100C8000DC4509F091C080912A023EC0CF3FFCE5CF
:100C9000DF0709F45FC058F4CD3F9CE5D90709F49C
:100CA00044C008F43FC080912A0282602DC0C13048
:100CB000FDE5DF0709F475C008F45DC0C230DD450D
:100CC00009F072C080E06EC080912902816003C08B
:100CD0008091290280618093290266C08091290257
:100CE00011C080912A02826080932A025DC08091A7
:100CF00029028062F0CF809129028064ECCF80913C
:100D0000290288608460E7CF8160EECF809129025C
:100D10008E7FE1CF809129028D7FDDCF80912902E6
:100D2000877FD9CF80912A0218C080912A028D7FB7
:100D3000DBCF809129028F7ECECF809129028F7DDB
:100D4000CACF809129028F7BC6CF80912902877FED
:100D50008B7FC1CF80912A028D7F8E7FC5CF8091FE
:100D6000290282FB222720F991E0922790FB82F949
:100D700090FB83F9B0CF80912A02982F90959170C3
:100D80008E7F892B90FB81F9AFCF0E94EE0B809173
:100D9000290287FB222720F991E0922790FB87F90F
:100DA0009ACF81E00E9414138091290290912A0227
:100DB0000E9496120E94EE0B80E001C081E0DF915C
:100DC000CF910895CF93DF9386319C4541F5EB0198
:100DD0000E94B711982F8A81209100013091010162
:100DE000882379F09A7A81E009F480E080937E018B
:100DF000911102C069E201C065E3C9010E94AF130D
:100E00000AC080917E01811102C069E201C065E3E0
:100E1000C9010E94BA130E94051280E001C081E05E
:100E2000DF91CF9108959093840180938301089579
:100E3000E0918301F0918401309721F00190F081DD
:100E4000E02D099480E00895E0918301F091840100
:100E5000309799F020911401222359F02091290212
:100E600027FF07C0DC012C9111962C93119725E0E8
:100E70002C930280F381E02D09940895E091830181
:100E8000F0918401309739F022E0DC012C9304804A
:100E9000F581E02D0994089520918101309182011E
:100EA0002817390771F09093820180938101E091B6
:100EB0008301F0918401309721F00680F781E02DC5
:100EC0000994089520917F013091800128173907F6
:100ED00071F09093800180937F01E0918301F09104
:100EE0008401309721F00084F185E02D0994089564
:100EF00085B7806885BF85B7806885BF08950895E8
:100F00000C947F070C9480070C947F070C947F0748
:100F10000E9478070E9484070C94820781E008955C
:100F20000C948E070E9452140E9461040E94D114F6
:100F30000C9486070F931F93CF93DF93CDB7DEB743
:100F40002A970FB6F894DEBF0FBECDBF0E946E0485
:100F50000E949007882331F180E00E945204182FEC
:100F6000009186010827F1F08091F20181FD0E9435
:100F7000580400FF17C01E821F82117018870E943C
:100F80005B148160782F9A8789874E815F8168859D
:100F90008A850E9405089091860181E089278093C7
:100FA000860110C08FEF89838A831B820E945B14A5
:100FB0008160782F9D838C8349815A816B818D81DB
:100FC0000E9405080E94A2170E94180790918501AF
:100FD000891781F00E941807809385012A960FB621
:100FE000F894DEBF0FBECDBFDF91CF911F910F915F
:100FF0000C9443022A960FB6F894DEBF0FBECDBF05
:10100000DF91CF911F910F910895CF93DF93CDB7CB
:10101000DEB72B970FB6F894DEBF0FBECDBF4F8360
:10102000588769877A878B87DE01119686E0FD01F4
:1010300011928A95E9F785E0FE01379601900D92AD
:101040008A95E1F749815A816B817C818D819E81EE
:101050000E94AA0E2B960FB6F894DEBF0FBECDBF2E
:10106000DF91CF910895FC01808191810E947811D8
:101070000895CF93882309F4A4C0C82F8238C1F4FF
:101080000E94180781FD9DC069E380910001909145
:1010900001010E94AF130E9405122FEF80E792E03A
:1010A000215080409040E1F700C0000069E319C082
:1010B000833801F50E94180780FD83C063E58091A5
:1010C0000001909101010E94AF130E9405122FEFC1
:1010D00080E792E0215080409040E1F700C000009E
:1010E00063E580910001909101010E94BA13CF91B4
:1010F0000C9405128438C1F40E94180782FD61C067
:1011000067E480910001909101010E94AF130E9459
:1011100005122FEF80E792E0215080409040E1F7E8
:1011200000C0000067E4DDCF8CEF8C0F813AD0F473
:101130006C2F80910001909101010E942F13882350
:1011400049F06C2F80910001909101010E94BA1327
:101150000E9405126C2F80910001909101010E9464
:10116000AF13C5CF80E28C0F883048F4C77081E0A0
:1011700001C0880FCA95EAF70E94BA11B8CFEBE513
:10118000EC0FE33040F4F0E0EC58FE4F808190E04B
:10119000CF910C944C07E8E5EC0FE73150F4F0E008
:1011A000EE0FFF1FEA5BFE4F80819181CF910C947F
:1011B0006207C03F30F08C2F0E949716CF910C949D
:1011C0008417CF910895882309F464C0823879F494
:1011D0000E94180781FF5EC069E380910001909131
:1011E00001010E94AF130E94051269E310C0833809
:1011F000B1F40E94180780FF4DC063E580910001A3
:10120000909101010E94AF130E94051263E5809145
:101210000001909101010E94BA130C9405128438C8
:1012200079F40E94180782FF35C067E480910001BD
:10123000909101010E94AF130E94051267E4E7CF6D
:101240009CEF980F913A10F4682FE1CF90E2980F3D
:10125000983050F4877091E001C0990F8A95EAF7B1
:10126000892F0E94C011D9CF9BE5980F933020F4AD
:1012700080E090E00C944C0798E5980F973120F4AB
:1012800080E090E00C946207803F20F00E94FF16FF
:101290000C9484170895CF93C82F0E943908C9333E
:1012A00049F42FEF83EF91E0215080409040E1F727
:1012B00000C000008C2FCF910C94E308882321F00C
:1012C0000E94BA110C9405120895882321F00E94FF
:1012D000C0110C9405120895CF92DF92EF92FF9205
:1012E0000F931F93CF93DF937C01062FC72FFC0131
:1012F000158112951F70D281D1110E94D7110E94C1
:10130000B011882399F0DD2389F08C2F807F803401
:1013100021F080E2800F883048F082E00E944F1276
:101320000E94B01191E0D82ED92601C0D12CCC2E2C
:10133000C2948FE0C8228C2D90E0FC01EA5AFF4F46
:101340000C94A11F8C2F807FCF70882311F0C29541
:10135000C07FDD2399F0CC2309F48DC180E2800F9A
:10136000883010F0011104C08C2F0E94BA1103C004
:101370008C2F0E94CA110E9405127DC1802F0E94ED
:10138000E308CC2309F49CC180E2800F883010F080
:10139000011104C08C2F0E94C01103C08C2F0E9429
:1013A000D0110E9405128CC18C2F807FCF708032AB
:1013B00011F0C295C07F002319F00130C9F022C09E
:1013C000DD2371F0112341F0113031F40E94EA1154
:1013D0008C2B0E94F21174C10E94EA118C2B1DC04B
:1013E000112319F0113009F46BC10E94FB1125C0C3
:1013F000DD2321F0163008F063C10EC0153008F06F
:101400005FC11BC0DD2361F0112331F0F70185813D
:1014100080FF31C18F7085838C2F0E945E0950C17F
:10142000112359F0093309F037C1FFEF23EF81E0B1
:10143000F15020408040E1F72DC18C2F0E946509BA
:101440003FC18C2F86958695837019F0813061F0AD
:1014500037C1DD2321F0802F9C2F937002C080E0E4
:1014600090E00E944C0734C1DD2321F0802F9C2F97
:10147000937002C080E090E00E94620729C1802F33
:10148000DD2319F00E94971602C00E94FF160E94E9
:1014900084171EC18C2F837009F045C0D11114C16F
:1014A000402F429546954770440F440F602F6F7050
:1014B000862F90E0A0E0B0E0042E04C0880F991FB2
:1014C000AA1FBB1F0A94D2F704FF10C00FE010E060
:1014D00020E030E004C0000F111F221F331F4A9587
:1014E000D2F7009510952095309503C000E010E0EC
:1014F0009801C695C695C370BC01CD01602B712BB8
:10150000822B932BC23049F058F4C13019F00E945D
:10151000FB0FDAC00E94E90FD7C00E940D10D4C0A3
:101520000E94E70FD1C0DD2319F08C2F817001C01C
:101530008695882309F4C8C0402F42954695477088
:10154000440F440F602F6F70862F90E0A0E0B0E052
:10155000042E04C0880F991FAA1FBB1F0A94D2F73C
:1015600004FF10C00FE010E020E030E004C0000FE6
:10157000111F221F331F4A95D2F700951095209511
:10158000309503C000E010E09801C695C695C37081
:10159000BC01CD01602B712B822B932BC23049F003
:1015A00058F4C13019F00E94C0108EC00E94AE10D5
:1015B0008BC00E94D21088C00E94211085C0CF70BD
:1015C000DD2339F08C2F0E944710802F0E945E0986
:1015D0007BC0802F0E9465098C2F0E94681074C008
:1015E000023F01F128F4003F41F0013FA1F03FC06C
:1015F000033FF9F0043F39F13AC0DD2341F01530E3
:1016000008F05EC08C2F8F710E948D1059C016306B
:1016100008F056C0F7CFDD2339F08C2F8F710E9470
:1016200047104EC0DD23C9F38C2F8F710E946810C4
:1016300047C0DD2329F08C2F8F710E94321040C0EB
:101640000E942D103DC0DD2349F0CF718C2F0E94E8
:10165000471063E08C2F0E943A1232C081E00E9452
:101660004F12123068F182E00E944F1229C0DD2330
:1016700031F0112391F2802F0E94390821C01123EB
:1016800099F2093349F49FEFE3EFF1E09150E04024
:10169000F040E1F700C00000802F0E94E30810C076
:1016A0004C2F4F70602FC7010E9490010E94580F6D
:1016B0000FC04C2F4F70602FC7010E944C0208C012
:1016C00088EF8C0D843020F40E9418070E9443029A
:1016D000DD20C9F00E94AC1180FD15C0F701128217
:1016E0000E94A6110E944710C7010E94A40B0E94ED
:1016F000A611DF91CF911F910F91FF90EF90DF9096
:10170000CF900C946810DF91CF911F910F91FF90B3
:10171000EF90DF90CF9008950F931F93CF93DF93B7
:10172000EC01688179818A810E9483118C010E9479
:10173000E4100E94D50FB801CE010E946C09DF9120
:10174000CF911F910F910895CF93DF93EC01988172
:1017500089812B813C81232B31F08F3F31F481E053
:101760009F3F19F403C081E001C080E080FD19C0F3
:10177000CE010E94000281110CC00E94B01188238A
:1017800081F08A81882369F082E0DF91CF910C9407
:101790004F12CE010E948C0BCE01DF91CF910C94A1
:1017A000DB01DF91CF9108950E94D7110E94E711CC
:1017B0000E9405120E94B5180E94841780E090E0F4
:1017C0000E944C0780E090E00C9462078091000139
:1017D000909101010E94C5130C94D40B0E94C71173
:1017E0000C94E60BE92FE295EF704E2F50E0FA01D2
:1017F0003297EE30F105B0F4EA59FF4F0C94A11F77
:10180000803F91F018F4883E68F40EC0843F51F494
:101810000BC0883E48F0813F29F406C093FB88271F
:1018200080F9089580E0089581E008950E9478117C
:101830000E94F20B0895CF93DF9300D000D01F9247
:10184000CDB7DEB70F900F900F900F900F90DF91F4
:10185000CF910895CF93DF9300D000D000D0CDB7C3
:10186000DEB726960FB6F894DEBF0FBECDBFDF9170
:10187000CF9108951F93CF93DF93C091880116E015
:1018800080918901C81799F0D0E01C9FF0011D9F3D
:10189000F00D1124E657FE4F408151816281738122
:1018A000848195810E942A0C2196C770E9CFDF912F
:1018B000CF911F9108954091BA015091BB01609161
:1018C000BC017091BD018091BE019091BF010C944B
:1018D0002A0C0F931F93CF93DF938091BF018295C2
:1018E0008F7009F05DC08091BC01882309F458C055
:1018F00080918801109189016091BA017091BB01BA
:10190000C091BD01D091BE0191E06F3F09F090E020
:10191000292F06E0811709F443C0209721F07F3F6B
:1019200021F030E003C031E001C0322F90E030FD03
:1019300034C0089FF001099FF00D1124DF01A65764
:10194000BE4F11963C911197371327C03C91361327
:1019500024C012963C91129731111FC013964D91DD
:101960005C9114974C1B5D0B483C5105B0F4809181
:10197000BF018F7080618093BF01E157FE4F80816E
:101980008F70806180838AEB91E00E94A40BDF91CD
:10199000CF911F910F910C943A0C01968770BACF9A
:1019A000DF91CF911F910F9108959F92AF92BF92B7
:1019B000CF92DF92EF92FF920F931F93CF93DF931B
:1019C000CDB7DEB761970FB6F894DEBF0FBECDBFBF
:1019D0008C0185E0F801DE011D9601900D928A953B
:1019E000E1F7F80140815181E2809091BA01609164
:1019F000BB012091BD013091BE012115310531F0AF
:101A00006F3F31F481E09F3F19F403C081E001C0D2
:101A100080E0F82FF1709F2E80FD46C1F801A38071
:101A2000B4808AEBC82E81E0D82EF090BC01F5017D
:101A3000E21BF30BFF2009F4DFC08091BF01E83CFB
:101A4000F10508F09BC0282F207F09F052C05613E3
:101A500013C0491311C0FE2CE1100EC08F708061BD
:101A60008093BF010E945B0CC6010E94A40B809171
:101A7000BF01F801858358C1AB2831F05F3F31F4D5
:101A800081E04F3F19F403C081E001C080E080FD98
:101A900003C081E08E2502C080E090E0F82FF17055
:101AA000FF2E80FF1CC0809188012091890136E0C3
:101AB000821709F417C190E0389FF001399FF00DAB
:101AC0001124E657FE4F6181561306C0608146130C
:101AD00003C06281E61203C001968770E9CFFE2C35
:101AE000EE2009F421C18091BF0181608093BF0184
:101AF0005AC0561306C0491304C0E11002C0F801D1
:101B00009FC04D875E878D859E850E94160C882319
:101B100079F1EE2069F12091BF01822F82958F70BB
:101B200090E0029774F08091BA019091BB01988780
:101B30008F831986BB86AA862C87CE0107960E94C2
:101B4000A40B86E0F801AAEBB1E001900D928A9512
:101B5000E1F70E94690C0E945B0C0DC0561729F139
:101B60004D875E878D859E850E94160C81112CC045
:101B7000C8010E94A40BFF24F394D6C0282F207F15
:101B800069F77A2DB98AA88A6E2D89890E941B0C63
:101B90008AEB91E00E94A40B86E0F60111928A95EF
:101BA000E9F70E945B0CF12CBFC04913D9CFE110BB
:101BB000D7CFF8018583C8010E94A40B86E0F60107
:101BC00011928A95E9F7B0C0EE2091F22091BF0101
:101BD000822F82958F7090E002970CF4B2CF8091A3
:101BE000BA019091BB019A8389831B82BD82AC822A
:101BF0002E83CE010196A3CFE83CF10508F047C043
:101C0000FE2CEE2009F4B4CF561330C049132EC079
:101C10002091BF0120FD21C0822F82958F70482F17
:101C200050E041155105C9F0F80125834F305105A9
:101C300041F08F5F982F9295907F822F8F70892B24
:101C40008583C8010E94A40B86E0F801AAEBB1E0ED
:101C500001900D928A95E1F742C086E0F801AAEB67
:101C6000B1E001900D928A95E1F75EC04D875E87E5
:101C70008D859E850E94160C811163CF8091BF01D6
:101C800081608093BF01C8010E94A40B4DC07A2DD2
:101C9000B98AA88A6E2D89890E941B0C86E0F601FC
:101CA00011928A95E9F71BC0EE2009F461CF4D87A8
:101CB0005E878D859E850E94160CF82E882309F478
:101CC00057CF86E0F801AAEBB1E001900D928A951A
:101CD000E1F78AEB91E00E9433080E94690C0E94B0
:101CE0005B0C22C04D875E878D859E850E94781192
:101CF000292F22952F70223028F49F7039F08111FE
:101D000005C00BC0243028F49F7049F4805E8830F1
:101D100020F0C8010E94A40B9F2CF92C05C0F801EB
:101D20009581907F99F7F9CF8F2D61960FB6F89432
:101D3000DEBF0FBECDBFDF91CF911F910F91FF90FE
:101D4000EF90DF90CF90BF90AF909F90089588EC78
:101D500090E008951F93CF93DF93CDB7DEB72C9714
:101D60000FB6F894DEBF0FBECDBF4F83588769878B
:101D70007A878B879C87CE0107960E94D50C882393
:101D8000D1F09F8188852A853B85232B31F08F3FB9
:101D900031F481E09F3F19F403C081E001C080E08D
:101DA00080FD47C04F81588569857A858B859C85E4
:101DB0000E942A0C3EC086E0FE013796DE01119695
:101DC00001900D928A95E1F7FF81E8856A857B8510
:101DD0006115710531F0EF3F31F481E0FF3F19F4F7
:101DE00003C081E001C080E080FD23C02091890113
:101DF00030E0C9010196877099274091880150E031
:101E000084179507F1F1F983EA837D836C8396E06B
:101E1000929FD001939FB00D1124A657BE4FFE0193
:101E2000319601900D929A95E1F7809389010E9475
:101E30003A0C16E08091880190918901891771F11F
:101E4000189FC001112486579E4F0E94D50C8823ED
:101E500029F1E09188011E9FF0011124E657FE4F01
:101E60004081518162817381848195810E942A0C15
:101E70008091880190E0019687709927809388016E
:101E8000D9CF0E94EE0B1092890110928801EAEBE3
:101E9000F1E086E0DF011D928A95E9F72C960FB6F6
:101EA000F894DEBF0FBECDBFDF91CF911F91089593
:101EB000EF92FF920F931F93CF93DF938C01892BA7
:101EC00009F46CC0F12CEE24E394E8012196F801AA
:101ED0008491843740F4843008F051C0813081F01F
:101EE000823019F15BC0853709F444C0A8F19CE742
:101EF000980F903708F052C08F770E94E30841C0D6
:101F00000E5F1F4FFE01849190E2980F983050F4BD
:101F10008770FE2D01C0FF0F8A95EAF78F2F0E9470
:101F2000DA1114C00E9439082DC00E5F1F4FFE0148
:101F3000849190E2980F983060F48770FE2D01C074
:101F4000FF0F8A95EAF78F2F0E94E0110E94051279
:101F500019C00E94E30816C00E5F1F4FFE01C49116
:101F6000CC2381F08FEC97E00197F1F700C00000DF
:101F7000C150F6CF0E5F1F4FFE01F49003C00E94C8
:101F800039088E018F2D882309F49FCFEFECF7E0FD
:101F90003197F1F700C000008150F5CFDF91CF916C
:101FA0001F910F91FF90EF900895089508950C945C
:101FB000D60F0C94D70F0E94D90F6093C90170936C
:101FC000CA018093CB019093CC010C94D40B0C9458
:101FD000DB0F0F931F930091C9011091CA0120914B
:101FE000CB013091CC01602B712B822B932B1F9155
:101FF0000F910C94DB0F0F931F930091C901109167
:10200000CA012091CB013091CC016023712382233E
:1020100093231F910F910C94DB0F0F931F9300914B
:10202000C9011091CA012091CB013091CC016027E8
:102030007127822793271F910F910C94DB0F0C942B
:10204000D60F0E941F106093C5017093C601809344
:10205000C7019093C8010C94D40B60E070E0CB01F1
:102060000C9421100F931F9341E050E060E070E06A
:102070008A019B0104C0000F111F221F331F8A9584
:10208000D2F7C901B8011F910F910C9421100F9341
:102090001F9341E050E060E070E004C0440F551F22
:1020A000661F771F8A95D2F78091C5019091C6016E
:1020B000A091C701B091C8018A019B01082B192B7F
:1020C0002A2B3B2BC901B8011F910F910C942110B1
:1020D0000F931F9341E050E060E070E004C0440FB4
:1020E000551F661F771F8A95D2F7409550956095CA
:1020F00070958091C5019091C601A091C701B091E2
:10210000C8018A019B01082319232A233B23C90103
:10211000B8011F910F910C9421100F931F9341E070
:1021200050E060E070E004C0440F551F661F771F49
:102130008A95D2F78091C5019091C601A091C701FF
:10214000B091C8018A019B01082719272A273B273C
:10215000C901B8011F910F910C9421100F931F9387
:102160000091C5011091C6012091C7013091C801AD
:10217000602B712B822B932B1F910F910C942110AC
:102180000F931F930091C5011091C6012091C701C3
:102190003091C80160237123822393231F910F91F3
:1021A0000C9421100F931F930091C5011091C6014B
:1021B0002091C7013091C80160277127822793279A
:1021C0001F910F910C9421100895890FE82FE69527
:1021D000E695E695877051E001C0550F8A95EAF7BC
:1021E00085E0E89FF0011124E054FE4F20E030E04C
:1021F00070E04081CB01022E02C0969587950A942B
:10220000E2F78170819584278523842781932F5F4E
:102210003F4F2530310569F70895890F682F66957E
:1022200066956695982F977085E0689FB001112498
:1022300040E050E080E0FB01E40FF51FE054FE4F6A
:10224000208130E0092E02C0369527950A94E2F7E6
:1022500021703327042E01C0220F0A94EAF7822B43
:102260004F5F5F4F4530510531F70895BF92CF92D0
:10227000DF92EF92FF920F931F93CF93DF938C0126
:10228000C090C501D090C601E090C701F090C80190
:102290008091C9019091CA01A091CB01B091CC016C
:1022A000C82AD92AEA2AFB2ACFE1D0E0D701C60101
:1022B0000C2E04C0B695A795979587950A94D2F7EA
:1022C00080FD04C0219790F7B12C07C0BC2EB80147
:1022D0008C2F0E9463020197A9F38B2DDF91CF9180
:1022E0001F910F91FF90EF90DF90CF90BF900895D6
:1022F000CF93DF93EC010E943611BE010E9463026E
:10230000DF91CF9108951F93CF93DF93EB019091CD
:102310008701992321F0CB010E94781113C08823F3
:1023200049F0CB010E943611182F682FCE010E9470
:10233000E51004C0CB010E940D11182FBE01812FA2
:102340000E946302DF91CF911F9108958091CD018A
:1023500085958595859508958091CD01877008951F
:102360009091CD01977081E009F480E0089580910B
:10237000F10108959091F101892B8093F101089565
:1023800080959091F10189238093F1010895109235
:10239000F10108959091F001892B8093F001089547
:1023A00080959091F00189238093F0010895109217
:1023B000F00108959091EF01892B8093EF0108952A
:1023C00080959091EF0189238093EF0108951092F9
:1023D000EF0108958091CE01089508950C94ED11B8
:1023E0000C94EE119091CE01981721F08093CE01BC
:1023F0000C94F01108958091CE01882329F0109259
:10240000CE0180E00C94F0110895E0910001F0916C
:1024100001018091F1018083E0910001F0910101BF
:1024200090818091F001892B8083E0910001F091EF
:10243000010190818091EF01892B80838091CE01F1
:10244000882381F0E0910001F09101019081892BB6
:10245000808380910001909101010E9419138111E4
:102460000E94FB1180910001909101010C942407BE
:102470000C94ED1198E0899F90011124262B209354
:10248000CD010E9447108091CD0185958595859558
:102490000C9438121092CD0180E00C9438122091E7
:1024A000CD01809582238093CD01982F977079F488
:1024B00030E0482F082E000C550B2417350739F053
:1024C0008595859585950E9468100C944A1208950B
:1024D00080E090E00E94C31F21E08C3E9E4F09F0F7
:1024E00020E0822F089582E090E00C94BB1F682FBB
:1024F00082E090E00C94C91F83E090E00C94BB1F35
:10250000682F83E090E00C94C91FCF9384E090E0A3
:102510000E94BB1FC82F81E290E00E94BB1F2C2F9E
:1025200030E0A901582BCA01CF910895CF93C92F4C
:10253000682F84E090E00E94C91F6C2F81E290E038
:10254000CF910C94C91FAB01BC018FE090E00C94BB
:10255000DB1FAB01BC0183E190E00C94DB1F60E06A
:1025600070E0CB010C94A91260E070E0CB010E94F6
:10257000A3120C94AF126CEE7EEF80E090E00E940C
:10258000E71F60E082E090E00E94C91F60E083E006
:1025900090E00E94C91F1092C9011092CA011092C6
:1025A000CB011092CC0160E084E090E00E94C91F52
:1025B00060E081E290E00E94C91F60E085E090E069
:1025C0000E94C91F60E086E090E00E94C91F6FEF83
:1025D00087E090E00E94C91F40E050E0BA0188E027
:1025E00090E00E94DB1F60E08DE090E00E94C91F38
:1025F00040E050E0BA0188E190E00E94DB1F60E01B
:1026000087E190E00E94C91F40E050E0BA018CE1F0
:1026100090E00E94DB1F60E080E290E00E94C91F12
:102620000C94B4120C94BB12682F8EE090E00C94C2
:10263000C91FFC01329680911401882331F08091EA
:10264000290287FF02C09EE101C096E080E0915020
:1026500028F021912223D9F38F5FF9CF08956623C3
:1026600051F1209114012223E9F02091290227FF42
:1026700019C0462F4695469546954E31E0F4677051
:1026800021E030E002C0220F331F6A95E2F7FC011F
:10269000E40FF11D828190E02823392381E0232B70
:1026A00069F409C0FC01329608962191621729F05D
:1026B000E817F907D1F780E0089581E008959C01BB
:1026C000FC0132969FEF80E04191461789F09F3FD1
:1026D00019F4411101C0982F8F5F8630A9F79F3FF1
:1026E00039F0F901E90FF11D97FDFA95628308951C
:1026F00008959C012A5F3F4FFC014281461301C0AF
:102700001282019682179307B9F70895262F26950E
:10271000269526952E3168F4FC01E20FF11D6770B5
:1027200021E030E001C0220F6A95EAF78281282B70
:1027300022830895262F2695269526952E3170F40E
:10274000FC01E20FF11D677021E030E001C0220FB3
:102750006A95EAF7209582812823228308952091A3
:102760001401222329F02091290227FD0C948613BD
:102770000C945F1320911401222329F02091290247
:1027800027FD0C949A130C94791320911401FC01E9
:102790003296222331F08091290287FF02C08EE118
:1027A00001C086E0DF011D928A95E9F7089508953A
:1027B0000C94D7130C94D7130E94DA130E946E0462
:1027C0000E94D81380E00E94520491E0811101C060
:1027D00090E0892F08950C94D7130C94EB130E946A
:1027E000ED1380912F02843049F11092F30120E41F
:1027F00088E190E00FB6F894A895809360000FBE32
:102800002093600080E00E9443020E94ED1383B792
:10281000817F846083BF83B7816083BF789488950C
:1028200083B78E7F83BF0FB6F894A8958091600020
:10283000886180936000109260000FBE08950C9430
:10284000D7130E94EE0B0E9418070E9443020C94BB
:102850001F141F920F920FB60F9211248F939F9304
:10286000AF93BF938091F301811113C08091250232
:1028700090912602A0912702B09128024196A11DB5
:10288000B11D8093250290932602A0932702B09356
:102890002802BF91AF919F918F910F900FBE0F9023
:1028A0001F90189582E084BD93E095BD9DE797BD8C
:1028B00080936E0008952FB7F8948091250290912F
:1028C0002602A0912702B09128022FBF08959C01F3
:1028D0004FB7F8948091250290912602A09127028B
:1028E000B09128024FBF821B930B089578941F92DA
:1028F0000F920FB60F9211248F939F93AF93BF93B4
:102900008091250290912602A0912702B091280281
:102910000196A11DB11D8093250290932602A093DC
:102920002702B0932802BF91AF919F918F910F9092
:102930000FBE0F901F90189587E797E790930108B7
:10294000809300089AE088E10FB6F894A8958093E8
:1029500060000FBE90936000FFCFCF93C82F80E040
:102960000E94520480FD02C080E00BC060E070E075
:1029700080E00E944D022C2F30E028173907A1F784
:1029800081E0CF910895CF93C82F8CE20E94AD14BF
:10299000882321F08C2FCF910C94AD1480E0CF913F
:1029A0000895CF930E946812811102C00E941213F1
:1029B000C5E6C15049F00E946E048FE19EE4019784
:1029C000F1F700C00000F5CF89E20E94C314811125
:1029D0002AC18AE20E94C31481110E94121385E069
:1029E0000E94C31481110E949C140E947312809350
:1029F000F20187E00E94C3148823A9F18BE10E94B1
:102A0000C314882351F08091F20181FB222720F921
:102A100091E0922790FB81F90EC08EE00E94C314D2
:102A2000882361F08091F20182FB222720F991E056
:102A3000922790FB82F98093F20115C080E10E94F9
:102A4000C3149091F201882341F093FB222720F9CF
:102A500081E0822780FB93F904C0892F809580FB59
:102A600090F99093F2018091F2010E9477120E94F6
:102A7000851290932A028093290280EE0E94C3144B
:102A8000882341F080912902982F909590FB80F93E
:102A90008093290289E30E94C314882359F080910E
:102AA000290281FB222720F991E0922790FB81F9EE
:102AB0008093290282EE0E94C314882359F08091EA
:102AC000290282FB222720F991E0922790FB82F9CC
:102AD0008093290286EE0E94C314882359F08091C6
:102AE000290283FB222720F991E0922790FB83F9AA
:102AF0008093290283EE0E94C314882359F08091A9
:102B0000290284FB222720F991E0922790FB84F987
:102B10008093290285E30E94C314882359F0809191
:102B2000290285FB222720F991E0922790FB85F965
:102B30008093290281E30E94C314882359F0809175
:102B4000290286FB222720F991E0922790FB86F943
:102B50008093290281E10E94C314882359F0809157
:102B6000290287FB222720F991E0922790FB87F921
:102B7000809329028091290290912A020E94961244
:102B800087E20E94C314C82F8EE10E94C3148111F2
:102B9000C2608FE10E94C3148111C46080E20E9470
:102BA000C3148111C86081E20E94C3148111C06105
:102BB00082E20E94C3148111C06283E20E94C314A6
:102BC0008111C06484E20E94C314882311F0C0689C
:102BD00002C0CC2329F08C2F0E9480126C2F03C0DE
:102BE0000E947C12682F70E080E090E00E94E70F66
:102BF0006091C5017091C6018091C7019091C80193
:102C00000E941F108FE00E94C314882319F081E0F6
:102C10000E94141385E10E94C314882321F080E0F0
:102C2000CF910C941413CF9108958091FA0180FFF5
:102C30000BC06091070185E0689FB0011124759574
:102C40006795759567952BC081FF09C06091070155
:102C500085E0689FB00111247595679520C082FFBB
:102C600007C06091070185E0689FB001112417C07B
:102C70009091F9019923D1F060910601961788F798
:102C80002091070185E0289F90011124929FA001C7
:102C9000939F500D112470E0CA010E948D1F60386F
:102CA000710540F46115710519F406C065E070E026
:102CB000862F08958FE7089581E008958091FA01A5
:102CC00080FF08C06091030170E075956795759568
:102CD000679521C081FF06C06091030170E0759582
:102CE000679519C082FF04C06091030170E010C0B5
:102CF0009091F801992399F0609102019617A0F73D
:102D000080910301899FC001112470E00E948D1FF2
:102D10006038710540F46115710519F406C061E071
:102D200070E0862F08958FE7089581E00895803F31
:102D300021F40E941516819504C0813F29F40E9458
:102D400015168093FE010895823F21F40E94151606
:102D5000819504C0833F29F40E9415168093FD01DC
:102D60000895893F19F40E945E1605C08A3F31F428
:102D70000E945E1681958093FF0108958B3F21F498
:102D80000E945E16819504C08C3F29F40E945E1655
:102D9000809300020895843F21F48091FC018160BA
:102DA00017C0853F21F48091FC01826011C0863FED
:102DB00021F48091FC0184600BC0873F21F4809155
:102DC000FC01886005C0883F31F48091FC0180617E
:102DD0008093FC0108958D3F21F48091FA01816078
:102DE0000BC08E3F21F48091FA01826005C08F3FB5
:102DF00029F48091FA0184608093FA010895803F5C
:102E000039F48091FE0187FF6AC01092FE0167C00D
:102E1000813F29F48091FE011816BCF360C09091A7
:102E2000FD01823F29F497FF5AC01092FD0157C05F
:102E3000833F19F41916CCF352C09091FF01893FDA
:102E400031F419160CF04BC01092FF0148C08A3FB4
:102E500019F497FF44C0F8CF8B3F39F480910002FA
:102E600087FF3DC0109200023AC08C3F29F4809148
:102E700000021816BCF333C0843F21F48091FC019A
:102E80008E7F17C0853F21F48091FC018D7F11C09A
:102E9000863F21F48091FC018B7F0BC0873F21F49A
:102EA0008091FC01877F05C0883F31F48091FC014F
:102EB0008F7E8093FC0113C08D3F21F48091FA0135
:102EC0008E7F0BC08E3F21F48091FA018D7F05C06B
:102ED0008F3F29F48091FA018B7F8093FA018091D2
:102EE000FD01811106C08091FE01811102C0109286
:102EF000F9018091FF01811106C0809100028111CA
:102F000002C01092F80108950E945B142091FD0107
:102F1000211104C02091FE01222321F09093F7019A
:102F20008093F6012091FF01211104C0209100023D
:102F3000222321F09093F5018093F4018BEF91E02F
:102F40000C943E07EF92FF920F931F93CF93DF9362
:102F500000D000D000D0CDB7DEB786E0EBEFF1E0D7
:102F6000DE01119601900D928A95E1F7E090FD0146
:102F7000F090FE010091FF01109100021092FD01FE
:102F80001092FE011092FF0110920002E11003C0A6
:102F9000FF2009F45DC08091F6019091F7010E9435
:102FA0006714AC019091F901992339F0209108013F
:102FB00030E02417350758F04BC0209109018AE012
:102FC000289F900111242417350718F041C09F3F16
:102FD00019F09F5F9093F901EE2061F00E941516A1
:102FE0001E1414F09FEF01C091E0989F902D1124C2
:102FF0009093FD01FF2061F00E9415161F1414F03C
:103000009FEF01C091E0989F902D11249093FE01B5
:103010003091FD013323E1F02091FE012223C1F024
:1030200045EB3403C0011124992319F09093FD015D
:1030300003C081E08093FD0135EB2303C00111241F
:10304000992319F09093FE0103C081E08093FE0163
:10305000011103C0112309F45DC08091F401909126
:10306000F5010E946714AC019091F801992339F0A1
:103070002091040130E02417350758F04BC020910F
:1030800005018AE0289F900111242417350718F0C4
:1030900041C09F3F19F09F5F9093F801002361F0BA
:1030A0000E945E16101614F09FEF01C091E0989FE9
:1030B000902D11249093FF01112361F00E945E1660
:1030C000111614F09FEF01C091E0989F902D1124EC
:1030D000909300023091FF013323E1F02091000230
:1030E0002223C1F045EB3403C0011124992319F0C8
:1030F0009093FF0103C081E08093FF0135EB230330
:10310000C0011124992319F09093000203C081E0BB
:10311000809300028091FD0181110BC08091FE011E
:10312000811107C08091FF01811103C080910002CD
:1031300081110E948417EB82FC820D831E8386E03E
:10314000FE013196ABEFB1E001900D928A95E1F767
:1031500026960FB6F894DEBF0FBECDBFDF91CF919C
:103160001F910F91FF90EF900895EBEFF1E086E053
:10317000DF011D928A95E9F71092F9011092F8018A
:103180001092FA010895809121020895CF93DF9360
:1031900000D01F92CDB7DEB790912F02943019F571
:1031A00089837B836A8382E08093E9008FEF90912B
:1031B000E800815095FD06C09AE69A95F1F700C0A7
:1031C0008111F5CF8091E80085FF0DC040E050E00F
:1031D00063E070E0CE0101960E94F21A8091E8004F
:1031E0008E778093E8000F900F900F90DF91CF9132
:1031F0000895BC0184E00C94C618BC0183E00C94D3
:10320000C61822E02093E9002FEF3091E80021500A
:1032100035FD06C03AE63A95F1F700C02111F5CF29
:103220002091E80025FF0BC040E050E066E070E030
:103230000E94F21A8091E8008E778093E80008954A
:10324000CF93DF9320911401222339F0209129029A
:1032500027FF03C060E222E002C068E021E0209383
:10326000E9002FEF3091E800215035FD06C03AE625
:103270003A95F1F700C02111F5CF2091E80025FF24
:103280001DC0EC0180911401811105C040E050E0A7
:1032900068E070E003C070E040E050E0CE010E94C2
:1032A000F21A8091E8008E778093E80080E2FE01B8
:1032B000A1E0B2E001900D928A95E1F7DF91CF9104
:1032C000089580912E02811109C00E94831C0E94E2
:1032D000E01C8091E20084608093E20008951092E7
:1032E0002E020895089508950C94211442E061EC93
:1032F00081E00E94FC1B42E261EC82E00C94FC1B2A
:1033000080913102833009F460C030F4813071F073
:10331000823009F499C008958A3009F485C08B3051
:1033200009F46BC0893009F0A7C020C08091300239
:10333000813A09F0A1C08091E800877F8093E8007E
:103340008091340290913502892B21F460E281E072
:1033500092E003C060E080E090E070E00E943D1BDE
:103360008091E8008B778093E80008958091300287
:10337000813209F081C08091340290913502029728
:1033800008F07AC08091E800877F8093E800809100
:10339000E80082FD05C080912F028111F8CF6CC03A
:1033A0002091F3008091F20090E0922B029729F493
:1033B0008091F1008B7F813021F48091F100809326
:1033C00021028091E8008B7753C080913002813ACE
:1033D00009F052C08091340290913502892B09F096
:1033E0004BC08091E800877F8093E8008091E800DF
:1033F00080FFFCCF8091140136C080913002813271
:10340000D9F58091340290913502892BA9F58091EC
:10341000E800877F8093E8000E94311C809132028F
:10342000809314010C94EE0B80913002813221F5CF
:103430008091E800877F8093E8000E94311C809192
:10344000330280932202089580913002813AA1F4E0
:103450008091E800877F8093E8008091E80080FFFA
:10346000FCCF809122028093F1008091E8008E775A
:103470008093E8000C94311C089584B7877F84BF43
:103480000FB6F894A89580916000886180936000E1
:10349000109260000FBE90E080E80FB6F894809321
:1034A0006100909361000FBE0E9488070E94831CF8
:1034B0000E94E01C8091E20084608093E200789496
:1034C0000E94721F0E9492078AE091E00E941307F7
:1034D00080912F02853069F40E94EF1380912D02B4
:1034E0008823B1F30E94DC13882391F30E94DD1A34
:1034F000EFCF0E949A07ECCF0C947E1A292F332726
:1035000023303105C9F060F42130310581F02230DB
:10351000310509F04AC08BE390E024E431E049C072
:103520002132310511F12232310579F13EC082E1BB
:1035300090E02FE731E03DC099278130910561F09F
:1035400040F08230910559F0039779F5ECE1F1E014
:1035500008C0E0E4F1E005C0E4E3F1E002C0E2E22B
:10356000F1E0849190E09F0124C06115710541F064
:1035700061307105D1F489E090E02FE631E019C0A7
:1035800089E090E026E531E014C06115710541F055
:103590006130710551F48CEB90E021E931E009C014
:1035A00080E490E02DE432E004C080E090E020E090
:1035B00030E0FA0131832083089519BC82E089BD8F
:1035C00009B400FEFDCF8091D8008F7D8093D80094
:1035D0008091E00082608093E0008091E00081FDB6
:1035E000FCCF0895CF92DF92EF92FF920F931F933B
:1035F000CF93DF93EC018B017A010E94501C811163
:1036000033C0E114F10439F0F70180819181081B86
:10361000190BC80FD91FC12CD12C0115110519F197
:103620008091E80085FD16C08091E8008E77809338
:10363000E800E114F10449F0F70180819181C80E9E
:10364000D91ED182C08285E00FC00E94501C882301
:1036500021F30AC089918093F10001501109FFEF15
:10366000CF1ADF0ADACF80E0DF91CF911F910F915F
:10367000FF90EF90DF90CF90089520913602309127
:1036800037022617370748F06115710539F4209184
:10369000E8002E772093E80001C0B901FC0120E08A
:1036A0006115710579F180912F028823F1F1853040
:1036B000F1F18091E80083FD3CC08091E80082FD3B
:1036C0002EC08091E80080FFEBCF2091F300809125
:1036D000F20090E0922B6115710551F08830910550
:1036E00038F421912093F100615071090196F3CFD4
:1036F00021E0089709F020E08091E8008E77809320
:10370000E800CECF2111CFCF0AC080912F028823AD
:1037100061F0853061F08091E80083FD0AC08091FE
:10372000E80082FFF2CF80E0089582E0089583E010
:10373000089581E0089520913602309137022617CE
:10374000370748F06115710539F42091E8002E77AC
:103750002093E80001C0B901FC0120E0611571056A
:1037600091F180912F02882309F440C0853009F43B
:103770003FC08091E80083FD3DC08091E80082FD5C
:103780002FC08091E80080FFE9CF2091F300809165
:10379000F20090E0922B6115710559F08830910587
:1037A00040F424912093F100319661507109019603
:1037B000F2CF21E0089709F020E08091E8008E77B1
:1037C0008093E800CBCF2111CCCF0AC080912F028B
:1037D000882361F0853061F08091E80083FD0AC0A4
:1037E0008091E80082FFF2CF80E0089582E00895A2
:1037F00083E0089581E00895982F973068F59093BD
:10380000E900981739F07091EC002091ED0050918B
:10381000F00003C0242F762F50E021FD02C09F5FEF
:10382000ECCF3091EB003E7F3093EB003091ED0018
:103830003D7F3093ED003091EB0031603093EB0031
:103840007093EC002093ED005093F0002091EE0077
:1038500027FDE5CF80E008958F708093E90081E037
:1038600008958091300287FF11C08091E80082FDA9
:1038700005C080912F028111F8CF11C08091E8001E
:103880008B770BC080912F02882349F08091E8004C
:1038900080FFF8CF8091E8008E778093E80008954C
:1038A0002091E4003091E50095E64091EC00842FF2
:1038B000817040FF23C08091E80080FD1DC0809191
:1038C0002F02882399F0853099F08091EB0085FDD7
:1038D00011C04091E4005091E5002417350729F309
:1038E000915011F09A01E1CF84E0089582E00895AB
:1038F00083E0089581E0089580E008954091E80014
:1039000042FFDDCF08950E94F11C0E94F91CE0EEF9
:10391000F0E0808181608083E8EDF0E080818F7746
:10392000808319BCA7EDB0E08C918E7F8C93808151
:103930008F7E808310922E0208950F931F93CF9352
:10394000DF930E94F11C0E94F91CC8EDD0E0888131
:103950008F77888388818068888388818F7D88833A
:1039600019BC10922F0210922B0210922D0210926D
:103970002C0200EE10E0F80180818B7F808388812B
:103980008160888342E060E080E00E94FC1BE1EE01
:10399000F0E080818E7F8083E2EEF0E080818160C4
:1039A0008083808188608083F80180818E7F80831E
:1039B000888180618883DF91CF911F910F91089555
:1039C000E8EDF0E080818F7E8083E7EDF0E080819C
:1039D0008160808384E082BF81E080932E020C941A
:1039E0009D1CE8EDF0E080818E7F80831092E200E4
:1039F00008951092DA001092E10008951F920F923C
:103A00000FB60F9211242F933F934F935F936F93B1
:103A10007F938F939F93AF93BF93EF93FF93809187
:103A2000E10082FF0BC08091E20082FF07C080911D
:103A3000E1008B7F8093E1000E94711F8091DA008A
:103A400080FF1DC08091D80080FF19C08091DA00EE
:103A50008E7F8093DA008091D90019BC80FF0BC063
:103A600082E089BD09B400FEFDCF81E080932F0282
:103A70000E94611904C010922F020E946F19809158
:103A8000E10080FF19C08091E20080FF15C08091A5
:103A9000E2008E7F8093E2008091E200806180935B
:103AA000E2008091D80080628093D80019BC85E044
:103AB00080932F020E9473198091E10084FF2FC030
:103AC0008091E20084FF2BC019BC82E089BD09B45B
:103AD00000FEFDCF8091D8008F7D8093D80080912B
:103AE000E1008F7E8093E1008091E2008F7E8093E1
:103AF000E2008091E20081608093E20080912B02DD
:103B0000882311F084E007C08091E30087FD02C0A4
:103B100081E001C083E080932F020E94741980919C
:103B2000E10083FF29C08091E20083FF25C08091DE
:103B3000E100877F8093E10082E080932F02109262
:103B40002B028091E1008E7F8093E1008091E20062
:103B50008E7F8093E2008091E20080618093E2009A
:103B600042E060E080E00E94FC1B8091F0008860F1
:103B70008093F0000E947219FF91EF91BF91AF9175
:103B80009F918F917F916F915F914F913F912F9175
:103B90000F900FBE0F901F9018951F920F920FB6A7
:103BA0000F9211242F933F934F935F936F937F93C3
:103BB0008F939F93AF93BF93CF93DF93EF93FF9335
:103BC000C091E900CF708091EC00D82FD17080FDBA
:103BD000D0E81092E9008091F000877F8093F00098
:103BE00078940E94111E1092E9008091F000886084
:103BF0008093F000CD2BCF70C093E900FF91EF913F
:103C0000DF91CF91BF91AF919F918F917F916F91F4
:103C10005F914F913F912F910F900FBE0F901F908A
:103C200018951F93CF93DF93CDB7DEB7AA970FB642
:103C3000F894DEBF0FBECDBFE0E3F2E08091F1006B
:103C4000819322E0E833F207C9F70E94801980913E
:103C5000E80083FF2EC18091300290913102492FFC
:103C600050E04A30510508F024C1FA01EC58FF4FEA
:103C70000C94A11F803821F0823809F01AC108C0C5
:103C800080912C0290912D02992389F082600FC0BF
:103C9000809134028F70873008F00BC18093E90067
:103CA0008091EB0085FB882780F91092E9009091C4
:103CB000E800977F9093E8008093F1001092F10064
:103CC000D1C0282F2D7F09F0F4C0882319F082304D
:103CD00061F0EFC080913202813009F0EAC0933088
:103CE00009F080E080932D022EC080913202811174
:103CF0002AC0809134028F702FEF280F263008F0F1
:103D0000D8C08093E9002091EB0020FF1CC09330C5
:103D100021F48091EB00806214C09091EB009061DF
:103D20009093EB0021E030E0A90102C0440F551F41
:103D30008A95E2F74093EA001092EA008091EB0046
:103D400088608093EB001092E9008091E800877F03
:103D50008093E8000E94311CACC08111AAC0109170
:103D600032021F778091E3008078812B8093E300FB
:103D70008091E800877F8093E8000E94311C809149
:103D8000E80080FFFCCF8091E30080688093E3002F
:103D9000111102C082E001C083E080932F0289C02C
:103DA0008058823008F085C08091320290913302B1
:103DB0008C3D53E0950779F583E08A838AE2898315
:103DC0004FB7F894DE01139620E03EE051E2E32F76
:103DD000F0E050935700E49120FF03C0E295EF70AC
:103DE0003F5FEF708E2F90E0EA3010F0C79601C071
:103DF000C0968D939D932F5F243149F74FBF8091DB
:103E0000E800877F8093E8006AE270E0CE010196C7
:103E10000E943D1B16C06091340270913502AE01C4
:103E20004F5F5F4F0E947C1ABC01892B09F441C08F
:103E30009091E800977F9093E80089819A810E9491
:103E40009B1B8091E8008B778093E80032C080381C
:103E500081F58091E800877F8093E80080912B02B4
:103E60008093F1008091E8008E7772CF811121C09C
:103E7000809132029091330299270297D4F4809175
:103E8000E800877F8093E8008091320280932B02C4
:103E90000E94311C80912B02811106C08091E300A9
:103EA00087FD02C081E001C084E080932F020E9460
:103EB00076198091E80083FF0AC08091E800877F2F
:103EC0008093E8008091EB0080628093EB00AA96DB
:103ED0000FB6F894DEBF0FBECDBFDF91CF911F911B
:103EE00008950895CF9380912F028823A1F0C09167
:103EF000E900CF709091EC00892F817090FD80E8EF
:103F0000C82B1092E9008091E80083FD0E94111EE9
:103F1000CF70C093E900CF91089597FB072E16F458
:103F2000009407D077FD09D00E94A71F07FC05D099
:103F30003EF4909581959F4F0895709561957F4FC0
:103F40000895EE0FFF1F0590F491E02D0994AA1B30
:103F5000BB1B51E107C0AA1FBB1FA617B70710F074
:103F6000A61BB70B881F991F5A95A9F780959095A6
:103F7000BC01CD010895F999FECF92BD81BDF89A9B
:103F8000992780B50895A8E1B0E042E050E00C9494
:103F9000EF1F262FF999FECF92BD81BDF89A0197A8
:103FA00000B4021639F01FBA20BD0FB6F894FA9A81
:103FB000F99A0FBE08950396272F0E94CA1F0E94E8
:103FC000C91F252F0E94CA1F242F0C94CA1F0196B7
:103FD000272F0E94CA1F0C94C91FDC01CB01FC01D2
:103FE000F999FECF06C0F2BDE1BDF89A319600B452
:0E3FF0000D9241505040B8F70895F894FFCF5D
:103FFE00CF012808641E140A321EC3182019011995
:10400E00FD18F91801E200E900EA00B500B600B7A4
:10401E0000CD008301CC008A01920194012102237C
:10402E000224022502260227022A02B300B4006FE0
:10403E00007000818283E200E900EA00B500B6005C
:10404E00B700CD008301CC008A01920194012102B8
:10405E00230224022502260227022A02B300B400FC
:08406E006F00700081828300E5
:00000001FF
