:100000000C9447010C948E010C948E010C948E017B
:100010000C948E010C948E010C948E010C948E0124
:100020000C948E010C948E010C94651D0C94341E5E
:100030000C9490140C948E010C948E010C948E01EF
:100040000C948E010C948E010C948E010C948E01F4
:100050000C948E010C94DD140C948E010C948E0182
:100060000C948E010C948E010C948E010C948E01D4
:100070000C948E010C948E010C948E010C948E01C4
:100080000C948E010C948E010C948E010C948E01B4
:100090000C948E010C948E010C948E010C948E01A4
:1000A0000C948E010C948E010C948E01090A090A9D
:1000B0003B0A3B0A880AA60AC70BC70BB10A460BC4
:1000C000570B570BB70BC70BC70BC00B670C670C55
:1000D000790C790C700C790C790C790C670C670C25
:1000E000750C790C790C750CA11EC81EC01FC81E9A
:1000F000C01F141F371FC01F8E1F9D1FE30001006C
:1001000001000100010001000100010001000100E7
:1001100001000100010001000100010004033000A2
:10012000000010036F006E0065005F006B0065004B
:10013000790000000A035A006900540065000000BD
:100140000403090409023B00020100A0FA090400AB
:1001500000010301010009211101000122400007F3
:1001600005810308000A09040100010300000009D9
:10017000211101000122BC000705820320000A12A0
:1001800001100100000008EDFE60600100010203A3
:100190000105010902A10185020901A10005091952
:1001A0000129051500250195057501810295017547
:1001B0000381010501093009311581257F950275FB
:1001C00008810609381581257F9501750881060586
:1001D0000C0A38021581257F950175088106C0C07B
:1001E00005010980A101850319012AB7001501261F
:1001F000B700950175108100C0050C0901A10185AA
:100200000419012AA002150126A00295017510818A
:1002100000C005010906A1018505050719E029E7C8
:10022000150025019508750181020507190029EFC0
:100230001500250195F075018102050819012905B0
:10024000950575019102950175039101C00501099C
:1002500006A101050719E029E71500250195087594
:100260000181029501750881010507190029FF1513
:100270000026FF009506750881000508190129056B
:10028000950575019102950175039101C000112436
:100290001FBECFEFDAE0DEBFCDBF04B603FE27C03E
:1002A00080914B0290914C02A0914D02B0914E0270
:1002B0008730904BA740B04BD1F410924B02109274
:1002C0004C0210924D0210924E0214BE84B7877FEA
:1002D00084BF0FB6F894A8958091600088618093E0
:1002E0006000109260000FBEE0E0F8E3099511E0B5
:1002F000A0E0B1E0ECECF0E402C005900D92A8386B
:10030000B107D9F722E0A8E8B1E001C01D92AB34F3
:10031000B207E1F70E94A41A0C9464200C94000028
:1003200080E090E008950895089581E0089508958B
:10033000811107C0662311F081E501C082E50C94AC
:10034000B209089581E008950C94950108950C94E4
:10035000A6011F93CF93DF9300D000D01F92CDB79B
:10036000DEB749835A836B8330919A0189819A81E0
:10037000311114C0662359F0222349F00E949D11C7
:10038000182F682F89819A810E944C1103C00E9406
:100390007411182F69817A81812F04C00E949D11E8
:1003A00069817A810F900F900F900F900F90DF91DD
:1003B000CF911F910C945702FC01262F408151814F
:1003C0006281738184810C94A901CF93DF93EC0146
:1003D00060E00E94DC01BE01DF91CF910C94A70187
:1003E0000E94CF12811102C00E9479130C946904FB
:1003F0000C94670408950E94550C0E94FA012FE79F
:100400008AE196E0215080409040E1F700C0000072
:100410000C9403150F931F93CF93DF93EC0161E0CE
:100420000E94DC018C01BE010E94A401882349F1D5
:10043000BE01C8010E94C805882319F1BE01C80188
:100440000E941A068823E9F0BE01C8010E944507F0
:100450008823B9F08A81882369F001158CE5180793
:1004600031F00E3D1C4531F40E9479130AC00E9400
:10047000FB0107C0CE01DF91CF911F910F910C942A
:10048000A20180E0DF91CF911F910F9108950C940C
:10049000970181E008950C944902CF93C82F0E94E0
:1004A00047028C2F0E944B02CF9108950895972FF9
:1004B00070E0690F711DFB01E80FF11DEE0FFF1FCA
:1004C000E450FF4F859194910895880F991FFC0186
:1004D000E45EFE4F859194910895CF93DF930E943F
:1004E00057020E948503EC018115904508F041C038
:1004F000C11580E4D80708F0D1C0C83ED10510F579
:10050000C03ED10508F0FDC0C83AD10578F4C53A1F
:10051000D10508F0A2C0C130D10509F4F2C008F439
:10052000EEC0C430D10508F0ECC0E9C0CF3BD10526
:1005300008F49BC0C03CD10508F4E1C0CE01805C4A
:1005400091099EC0C11590E2D90758F4C11521E068
:10055000D20708F0D6C0C03FD10508F4D0C0D0659E
:10056000D0C0C11580E3D80708F08EC0CE019F70BF
:1005700087C0C11595E5D90708F043C0C11524E52A
:10058000D20708F0A2C0C11582E5D80708F5C11549
:1005900091E5D90708F085C0CE0174E0969587955E
:1005A0007A95E1F783709C2F937021E030E002C0D0
:1005B000220F331F9A95E2F73C68382BCF70C6950F
:1005C000C69580E2C89FE0011124C22BD32B99C0AD
:1005D0009E01237033278C2F86958695C115D345B0
:1005E00008F064C0C1E0D0E002C0CC0FDD1F2A9546
:1005F000E2F720E2829FC0011124C82BD92BDC68CE
:1006000080C0C11529E5D207A0F4C11588E5D80737
:1006100008F060C0C11596E5D90708F070C08C2FAE
:100620000E9419048F71C82FD0E0DC2FCC27D06234
:1006300068C0C1152AE5D20708F451C0CE01905612
:100640008115904208F05BC08D2F8F710E941904B4
:10065000DD27D0628F71D82B54C0C55AD0E0CD5B56
:10066000DE4FC881D0E0D0644CC0C85AD0E0CC0F77
:10067000DD1FCB5EDE4F0990D881C02DD46441C010
:100680000E946502EC013DC0CE019927D3FF03C053
:10069000EC01D86C36C0EC01D06C33C0DF70D06A8E
:1006A00030C0DC2FCC27C16FD06A2BC0C1E0D0E0B6
:1006B00002C0CC0FDD1F2A95E2F720E2829FC00125
:1006C0001124C82BD92BDA681CC0DC2FCC27C46FAF
:1006D000D06A17C0DC2FCC27C06FD06A12C08C2F15
:1006E0008F700E94190494E0D695C7959A95E1F70A
:1006F000CF70D0E0DC2FCC27D069C82B02C0C0E07F
:10070000D0E0CE01DF91CF9108958238910569F153
:10071000B0F48133910509F46DC048F48932910534
:1007200009F463C08A32910509F469C008958533DC
:10073000910509F455C089339105B9F00895833EB8
:10074000910569F138F4803E9105B1F0823E910542
:1007500009F10895863E9105A9F1873E9105B9F109
:10076000843E910509F064C023C020913C0220FD25
:100770004FC021FD4DC0089580913C0280FD44C0D2
:1007800080913D0280FF44C080913C0284FD42C0C4
:1007900083EE4DC080913C0282FF38C0F5CF80913E
:1007A0003C0282FD33C080913D0280FD31C0ECCF20
:1007B00080913D0281FF32C080913C0284FD2AC0BD
:1007C00087EE35C080913C0283FF26C0F5CF809133
:1007D0003C0283FD21C080913D0281FD1FC0ECCF12
:1007E00080913C0285FD1CC01DC080913C0285FDAE
:1007F00019C016C080913C0286FD16C017C08091BA
:100800003C0286FD13C010C089E311C082EE0FC008
:1008100080EE0DC080E00BC086EE09C084EE07C0FC
:1008200089E205C085E303C08AE201C081E390E06C
:10083000089590913C0292FF0DC0282F2871283016
:1008400019F4877F846006C0282F2471243011F4A6
:100850008B7F886093FF0DC0282F2871283119F4F1
:10086000877E846106C0282F2471243111F48B7E89
:10087000886120913D0220FF0DC0382F387138303B
:1008800019F4877F816006C0382F3171313011F43F
:100890008E7F886021FF0DC0282F2871283119F420
:1008A000877E816106C0282F2171213111F48E7E4F
:1008B000886194FD877E0895E82FF0E0E95CFD4FA4
:1008C00080810895089580E58A95F1F708950C9444
:1008D00094010C9493015098589A5198599A1092F7
:1008E00036021092370281E00E94A0040C94F001BD
:1008F000CF93DF93509A58980E94630489B18695EC
:100900008170C82F80E0D82F81E0C827C17050982F
:10091000589A80913602C81721F0C0933602C1E080
:1009200001C0C0E02C2F41E067E372E086E392E073
:100930000E94A1040E94F8018C2FDF91CF910895AD
:100940000895FF920F931F93CF93DF938C01F62EA0
:10095000D72FC42F222349F081E080938A010E947F
:10096000C214909389018093880180918A01882321
:10097000C1F080918801909189010E94CE14069760
:1009800080F0EF2DFD2FD8014C2F50E0CD01801BC2
:10099000910B841795071CF48D918193F7CF1092DA
:1009A0008A01DF91CF911F910F91FF9008950C94D0
:1009B000980124982C9A25982D9A83B1829581705C
:1009C0001D9902C090E001C092E0892B80938D01B7
:1009D0000895E0918D01EE0FEE0FE0938D0143B18C
:1009E00044FB882780F990E043B145FB222720F99A
:1009F00030E045FF02C022E030E0822B932B8E2BAB
:100A000080938D018F70E82FF0E0EA5BFE4F9081BC
:100A100080918C01890F80938C0184304CF08091FF
:100A20008B018F5F80938B0160E080E00E94D70490
:100A300080918C018D3F4CF480918B01815080938B
:100A40008B0161E080E00E94D70480918C01837863
:100A500087FF03C081508C6F8F5F80938C01089556
:100A6000AF92BF92CF92DF92EF92FF920F931F93BC
:100A7000CF93DF937C015B01C42FD22FFC018281D5
:100A80008823F9F0409390010E94C21490938F0143
:100A900080938E0180E28C0F883008F06EC0C770A2
:100AA00081E001C0880FCA95EAF7DF91CF911F91CD
:100AB0000F91FF90EF90DF90CF90BF90AF900C948C
:100AC000C50980919001481335C080918E019091A5
:100AD0008F010E94CE146C01B701C5010E940E0F58
:100AE000C816D90638F510E21D0FCD17B9F080E20F
:100AF0008C0F883040F4C77081E001C0880FCA9520
:100B0000EAF70E94CC09183058F581E09D2F9770C4
:100B100001C0880F9A95EAF70E94C509802F0E94AC
:100B2000B209183050F5D77081E001C0880FDA950E
:100B3000EAF70AC080E28C0F8830F8F4C77081E0D1
:100B400001C0880FCA95EAF7DF91CF911F910F91ED
:100B5000FF90EF90DF90CF90BF90AF900C94CC09B6
:100B6000802FDF91CF911F910F91FF90EF90DF9039
:100B7000CF90BF90AF900C94B209DF91CF911F91AD
:100B80000F91FF90EF90DF90CF90BF90AF900895BE
:100B90000F939C01CB01233F4CE5340731F188F4DE
:100BA000283DFCE53F07D9F0293D4CE5340779F1B4
:100BB000273D3C45A9F506E221EE41EE67ED7CE5D7
:100BC0002BC0253FFCE53F07E1F0A8F0263F3C4560
:100BD00039F507E225EE46EE66EF7CE51DC007E23B
:100BE00025EE45EE68ED7CE517C006E221EE40EE0D
:100BF00063EF7CE511C007E225EE44EE64EF7CE58F
:100C00000BC006E221EE42EE65EF7CE505C008E28E
:100C100021E045EE69ED7CE50E94300580E008C0EA
:100C2000FC018281882319F01092900101C081E0BB
:100C30000F910895CF93DF93EC01FB01828188230C
:100C400009F41FC1C230FCE5DF0708F41BC1C6313F
:100C50009CE5D90738F09E012A5F3C4529303105D3
:100C600008F010C10E94EC1290933D0280933C0268
:100C7000C031ECE5DE0709F4C3C008F041C0C8305C
:100C80008CE5D80709F49AC0F0F4C430ECE5DE072F
:100C900009F487C068F4C2308CE5D80709F477C03E
:100CA000C330DC4509F0E3C080913C02826076C02D
:100CB000C630ECE5DE0709F46EC008F07BC0809119
:100CC0003C0288606BC0CC308CE5D80709F485C045
:100CD00068F4CA30ECE5DE0709F474C008F079C0A6
:100CE0000E94550C80913C02806858C0CE308CE543
:100CF000D80709F476C008F07FC080913C028BC011
:100D0000CB3FECE5DE0709F44FC018F5C3318CE5A5
:100D1000D80709F47DC078F4C131ECE5DE0709F4A9
:100D200073C0C231DC4509F0A2C00E94550C80910D
:100D30003C028F7733C0C5318CE5D80709F472C007
:100D400008F486C0CA3FDC4509F091C080913D029D
:100D50003EC0CF3FFCE5DF0709F45FC058F4CD3F4C
:100D60009CE5D90709F444C008F43FC080913D02D6
:100D700082602DC0C130FDE5DF0709F475C008F4BD
:100D80005DC0C230DD4509F072C080E06EC0809168
:100D90003C02816003C080913C02806180933C02F0
:100DA00066C080913C0211C080913D0282608093B8
:100DB0003D025DC080913C028062F0CF80913C0298
:100DC0008064ECCF80913C0288608460E7CF8160D2
:100DD000EECF80913C028E7FE1CF80913C028D7FEF
:100DE000DDCF80913C02877FD9CF80913D0218C032
:100DF00080913D028D7FDBCF80913C028F7ECECFF4
:100E000080913C028F7DCACF80913C028F7BC6CF00
:100E100080913C02877F8B7FC1CF80913D028D7F87
:100E20008E7FC5CF80913C0282FB222720F991E082
:100E3000922790FB82F990FB83F9B0CF80913D021D
:100E4000982F909591708E7F892B90FB81F9AFCF71
:100E50000E94550C80913C0287FB222720F991E0EB
:100E6000922790FB87F99ACF81E00E947B138091B3
:100E70003C0290913D020E94FD120E94550C80E0C0
:100E800001C081E0DF91CF910895CF93DF93863148
:100E90009C4541F5EB010E941E12982F8A812091FA
:100EA000000130910101882379F09A7A81E009F4F8
:100EB00080E080939101911102C069E201C065E375
:100EC000C9010E9416140AC080919101811102C0CB
:100ED00069E201C065E3C9010E9421140E946C12FD
:100EE00080E001C081E0DF91CF9108959093970158
:100EF000809396010895E0919601F09197013097C3
:100F000021F00190F081E02D099480E00895E091B6
:100F10009601F0919701309799F0209114012223C6
:100F200059F020913C0227FF07C0DC012C9111965B
:100F30002C93119725E02C930280F381E02D0994E6
:100F40000895E0919601F0919701309739F022E0F1
:100F5000DC012C930480F581E02D09940895209103
:100F60009401309195012817390771F090939501FC
:100F700080939401E0919601F0919701309721F0D0
:100F80000680F781E02D0994089520919201309117
:100F900093012817390771F0909393018093920180
:100FA000E0919601F0919701309721F00084F1854E
:100FB000E02D0994089585B7806885BF85B780685E
:100FC00085BF089508950C94E2070C94E3070C94F0
:100FD000E2070C94E2070E94DB070E94E7070C94EB
:100FE000E50781E008950C94F1070E94B9140E946E
:100FF0006B040E9438150E94D9040C94E9070F93E2
:101000001F93CF93DF93CDB7DEB72A970FB6F8942F
:10101000DEBF0FBECDBF0E9478040E94F307882375
:1010200031F180E00E945C04182F0091990108279B
:10103000F1F08091050281FD0E94620400FF17C05B
:101040001E821F82117018870E94C2148160782F3F
:101050009A8789874E815F8168858A850E946C089E
:101060009091990181E089278093990110C08FEFB9
:1010700089838A831B820E94C2148160782F9D839A
:101080008C8349815A816B818D810E946C080E94FA
:10109000E9040E9409180E947B0790919801891722
:1010A00081F00E947B07809398012A960FB6F894EE
:1010B000DEBF0FBECDBFDF91CF911F910F910C947A
:1010C0004D022A960FB6F894DEBF0FBECDBFDF915A
:1010D000CF911F910F910895CF93DF93CDB7DEB7D6
:1010E0002B970FB6F894DEBF0FBECDBF4F83588746
:1010F00069877A878B87DE01119686E0FD01119260
:101100008A95E9F785E0FE01379601900D928A9560
:10111000E1F749815A816B817C818D819E810E949A
:10112000110F2B960FB6F894DEBF0FBECDBFDF9127
:10113000CF910895FC01808191810E94DF11089573
:10114000CF93882309F4A4C0C82F8238C1F40E9429
:101150007B0781FD9DC069E38091000190910101B1
:101160000E9416140E946C122FEF80E792E021502B
:1011700080409040E1F700C0000069E319C0833867
:1011800001F50E947B0780FD83C063E5809100012B
:10119000909101010E9416140E946C122FEF80E7BB
:1011A00092E0215080409040E1F700C0000063E5EC
:1011B00080910001909101010E942114CF910C9423
:1011C0006C128438C1F40E947B0782FD61C067E421
:1011D00080910001909101010E9416140E946C12EE
:1011E0002FEF80E792E0215080409040E1F700C06F
:1011F000000067E4DDCF8CEF8C0F813AD0F46C2FC8
:1012000080910001909101010E949613882349F07A
:101210006C2F80910001909101010E9421140E9485
:101220006C126C2F80910001909101010E941614A4
:10123000C5CF80E28C0F883048F4C77081E001C0D0
:10124000880FCA95EAF70E942112B8CFEBE5EC0FA0
:10125000E33040F4F0E0EC57FE4F808190E0CF9116
:101260000C94AF07E8E5EC0FE73150F4F0E0EE0F37
:10127000FF1FEA5AFE4F80819181CF910C94C507E0
:10128000C03F30F08C2F0E94FE16CF910C94EB17CC
:10129000CF910895882309F464C0823879F40E94BC
:1012A0007B0781FF5EC069E380910001909101019D
:1012B0000E9416140E946C1269E310C08338B1F4C6
:1012C0000E947B0780FF4DC063E5809100019091F3
:1012D00001010E9416140E946C1263E580910001C6
:1012E000909101010E9421140C946C12843879F4BD
:1012F0000E947B0782FF35C067E4809100019091D6
:1013000001010E9416140E946C1267E4E7CF9CEF63
:10131000980F913A10F4682FE1CF90E2980F98302F
:1013200050F4877091E001C0990F8A95EAF7892FF0
:101330000E942712D9CF9BE5980F933020F480E0CC
:1013400090E00C94AF0798E5980F973120F480E077
:1013500090E00C94C507803F20F00E9466170C9423
:10136000EB170895CF93C82F0E94A008C93349F402
:101370002FEF83EF91E0215080409040E1F700C0D3
:1013800000008C2FCF910C944A09882321F00E94F1
:1013900021120C946C120895882321F00E942712C8
:1013A0000C946C120895CF92DF92EF92FF920F93FC
:1013B0001F93CF93DF937C01062FC72FFC0115816C
:1013C00012951F70D281D1110E943E120E941712F5
:1013D000882399F0DD2389F08C2F807F803421F0E1
:1013E00080E2800F883048F082E00E94B6120E94AE
:1013F000171291E0D82ED92601C0D12CCC2EC29440
:101400008FE0C8228C2D90E0FC01EA5AFF4F0C942B
:1014100008208C2F807FCF70882311F0C295C07F69
:10142000DD2399F0CC2309F48DC180E2800F883050
:1014300010F0011104C08C2F0E94211203C08C2FC8
:101440000E9431120E946C127DC1802F0E944A09B5
:10145000CC2309F49CC180E2800F883010F0011188
:1014600004C08C2F0E94271203C08C2F0E943712B9
:101470000E946C128CC18C2F807FCF70803211F053
:10148000C295C07F002319F00130C9F022C0DD23CE
:1014900071F0112341F0113031F40E9451128C2B64
:1014A0000E94591274C10E9451128C2B1DC011232D
:1014B00019F0113009F46BC10E94621225C0DD23BE
:1014C00021F0163008F063C10EC0153008F05FC17E
:1014D0001BC0DD2361F0112331F0F701858180FF0E
:1014E00031C18F7085838C2F0E94C50950C1112393
:1014F00059F0093309F037C1FFEF23EF81E0F150D4
:1015000020408040E1F72DC18C2F0E94CC093FC1C3
:101510008C2F86958695837019F0813061F037C1E4
:10152000DD2321F0802F9C2F937002C080E090E09B
:101530000E94AF0734C1DD2321F0802F9C2F9370D0
:1015400002C080E090E00E94C50729C1802FDD2302
:1015500019F00E94FE1602C00E9466170E94EB1747
:101560001EC18C2F837009F045C0D11114C1402FCA
:10157000429546954770440F440F602F6F70862F39
:1015800090E0A0E0B0E0042E04C0880F991FAA1FCD
:10159000BB1F0A94D2F704FF10C00FE010E020E058
:1015A00030E004C0000F111F221F331F4A95D2F7ED
:1015B000009510952095309503C000E010E098014B
:1015C000C695C695C370BC01CD01602B712B822BD3
:1015D000932BC23049F058F4C13019F00E946210C8
:1015E000DAC00E945010D7C00E947410D4C00E946C
:1015F0004E10D1C0DD2319F08C2F817001C086956B
:10160000882309F4C8C0402F429546954770440F7F
:10161000440F602F6F70862F90E0A0E0B0E0042EA2
:1016200004C0880F991FAA1FBB1F0A94D2F704FF9A
:1016300010C00FE010E020E030E004C0000F111FE8
:10164000221F331F4A95D2F70095109520953095AB
:1016500003C000E010E09801C695C695C370BC01B8
:10166000CD01602B712B822B932BC23049F058F4A3
:10167000C13019F00E9427118EC00E9415118BC035
:101680000E94391188C00E94881085C0CF70DD2368
:1016900039F08C2F0E94AE10802F0E94C5097BC0AC
:1016A000802F0E94CC098C2F0E94CF1074C0023F63
:1016B00001F128F4003F41F0013FA1F03FC0033F9A
:1016C000F9F0043F39F13AC0DD2341F0153008F05C
:1016D0005EC08C2F8F710E94F41059C0163008F034
:1016E00056C0F7CFDD2339F08C2F8F710E94AE10DA
:1016F0004EC0DD23C9F38C2F8F710E94CF1047C0DD
:10170000DD2329F08C2F8F710E94991040C00E9418
:1017100094103DC0DD2349F0CF718C2F0E94AE1094
:1017200063E08C2F0E94A11232C081E00E94B612A9
:10173000123068F182E00E94B61229C0DD2331F038
:10174000112391F2802F0E94A00821C0112399F249
:10175000093349F49FEFE3EFF1E09150E040F040AE
:10176000E1F700C00000802F0E944A0910C04C2FF2
:101770004F70602FC7010E9490010E94BF0F0FC0E1
:101780004C2F4F70602FC7010E94560208C088EF8F
:101790008C0D843020F40E947B070E944D02DD20D6
:1017A000C9F00E94131280FD15C0F70112820E9439
:1017B0000D120E94AE10C7010E940B0C0E940D1268
:1017C000DF91CF911F910F91FF90EF90DF90CF901D
:1017D0000C94CF10DF91CF911F910F91FF90EF905C
:1017E000DF90CF9008950F931F93CF93DF93EC0179
:1017F000688179818A810E94EA118C010E944B11D3
:101800000E943C10B801CE010E94D309DF91CF9114
:101810001F910F910895CF93DF93EC0198818981F7
:101820002B813C81232B31F08F3F31F481E09F3FAE
:1018300019F403C081E001C080E080FD19C0CE0131
:101840000E940A0281110CC00E941712882381F0A5
:101850008A81882369F082E0DF91CF910C94B612DF
:10186000CE010E94F30BCE01DF91CF910C94E501E4
:10187000DF91CF9108950E943E120E944E120E9465
:101880006C120E941C190E94EB1780E090E00E94ED
:10189000AF0780E090E00C94C50780910001909123
:1018A00001010E942C140C943B0C0E942E120C94EB
:1018B0004D0CE92FE295EF704E2F50E0FA01329770
:1018C000EE30F105B0F4EA59FF4F0C940820803F48
:1018D00091F018F4883E68F40EC0843F51F40BC0B8
:1018E000883E48F0813F29F406C093FB882780F9A1
:1018F000089580E0089581E008950E94DF110E941C
:10190000590C0895CF93DF9300D000D01F92CDB72C
:10191000DEB70F900F900F900F900F90DF91CF9147
:101920000895CF93DF9300D000D000D0CDB7DEB7BD
:1019300026960FB6F894DEBF0FBECDBFDF91CF91D4
:1019400008951F93CF93DF93C0919B0116E0809180
:101950009C01C81799F0D0E01C9FF0011D9FF00D6D
:101960001124E356FE4F408151816281738184814D
:1019700095810E94910C2196C770E9CFDF91CF919C
:101980001F9108954091CD015091CE016091CF01FA
:101990007091D0018091D1019091D2010C94910C61
:1019A0000F931F93CF93DF938091D20182958F7015
:1019B00009F05DC08091CF01882309F458C080915F
:1019C0009B0110919C016091CD017091CE01C0915D
:1019D000D001D091D10191E06F3F09F090E0292F23
:1019E00006E0811709F443C0209721F07F3F21F0E2
:1019F00030E003C031E001C0322F90E030FD34C050
:101A0000089FF001099FF00D1124DF01A356BE4F7E
:101A100011963C911197371327C03C91361324C07F
:101A200012963C91129731111FC013964D915C9103
:101A300014974C1B5D0B483C5105B0F48091D201CA
:101A40008F7080618093D201EE55FE4F80818F7040
:101A5000806180838DEC91E00E940B0CDF91CF912F
:101A60001F910F910C94A10C01968770BACFDF9152
:101A7000CF911F910F9108959F92AF92BF92CF92F5
:101A8000DF92EF92FF920F931F93CF93DF93CDB727
:101A9000DEB761970FB6F894DEBF0FBECDBF8C01E5
:101AA00085E0F801DE011D9601900D928A95E1F71F
:101AB000F80140815181E2809091CD016091CE0189
:101AC0002091D0013091D1012115310531F06F3FC6
:101AD00031F481E09F3F19F403C081E001C080E050
:101AE000F82FF1709F2E80FD46C1F801A380B480CD
:101AF0008DECC82E81E0D82EF090CF01F501E21BCD
:101B0000F30BFF2009F4DFC08091D201E83CF1051E
:101B100008F09BC0282F207F09F052C0561313C035
:101B2000491311C0FE2CE1100EC08F7080618093AC
:101B3000D2010E94C20CC6010E940B0C8091D201FE
:101B4000F801858358C1AB2831F05F3F31F481E063
:101B50004F3F19F403C081E001C080E080FD03C065
:101B600081E08E2502C080E090E0F82FF170FF2E1A
:101B700080FF1CC080919B0120919C0136E0821760
:101B800009F417C190E0389FF001399FF00D11243E
:101B9000E356FE4F6181561306C06081461303C0B1
:101BA0006281E61203C001968770E9CFFE2CEE2019
:101BB00009F421C18091D20181608093D2015AC081
:101BC000561306C0491304C0E11002C0F8019FC0BB
:101BD0004D875E878D859E850E947D0C882379F1D7
:101BE000EE2069F12091D201822F82958F7090E0D2
:101BF000029774F08091CD019091CE0198878F83E8
:101C00001986BB86AA862C87CE0107960E940B0CEC
:101C100086E0F801ADECB1E001900D928A95E1F714
:101C20000E94D00C0E94C20C0DC0561729F14D879E
:101C30005E878D859E850E947D0C81112CC0C80118
:101C40000E940B0CFF24F394D6C0282F207F69F745
:101C50007A2DB98AA88A6E2D89890E94820C8DEC12
:101C600091E00E940B0C86E0F60111928A95E9F74B
:101C70000E94C20CF12CBFC04913D9CFE110D7CFBD
:101C8000F8018583C8010E940B0C86E0F6011192D1
:101C90008A95E9F7B0C0EE2091F22091D201822F0F
:101CA00082958F7090E002970CF4B2CF8091CD01B5
:101CB0009091CE019A8389831B82BD82AC822E8350
:101CC000CE010196A3CFE83CF10508F047C0FE2CF9
:101CD000EE2009F4B4CF561330C049132EC0209122
:101CE000D20120FD21C0822F82958F70482F50E0B5
:101CF00041155105C9F0F80125834F30510541F0D8
:101D00008F5F982F9295907F822F8F70892B85837C
:101D1000C8010E940B0C86E0F801ADECB1E0019027
:101D20000D928A95E1F742C086E0F801ADECB1E092
:101D300001900D928A95E1F75EC04D875E878D8593
:101D40009E850E947D0C811163CF8091D2018160BC
:101D50008093D201C8010E940B0C4DC07A2DB98A24
:101D6000A88A6E2D89890E94820C86E0F601119264
:101D70008A95E9F71BC0EE2009F461CF4D875E8795
:101D80008D859E850E947D0CF82E882309F457CFFF
:101D900086E0F801ADECB1E001900D928A95E1F793
:101DA0008DEC91E00E949A080E94D00C0E94C20C17
:101DB00022C04D875E878D859E850E94DF11292F69
:101DC00022952F70223028F49F7039F0811105C0C0
:101DD0000BC0243028F49F7049F4805E883020F0D6
:101DE000C8010E940B0C9F2CF92C05C0F8019581AD
:101DF000907F99F7F9CF8F2D61960FB6F894DEBFDB
:101E00000FBECDBFDF91CF911F910F91FF90EF904B
:101E1000DF90CF90BF90AF909F90089588EC90E0B6
:101E200008951F93CF93DF93CDB7DEB72C970FB6EE
:101E3000F894DEBF0FBECDBF4F83588769877A877E
:101E40008B879C87CE0107960E943C0D8823D1F09A
:101E50009F8188852A853B85232B31F08F3F31F484
:101E600081E09F3F19F403C081E001C080E080FD64
:101E700047C04F81588569857A858B859C850E94EE
:101E8000910C3EC086E0FE013796DE01119601906E
:101E90000D928A95E1F7FF81E8856A857B8561155A
:101EA000710531F0EF3F31F481E0FF3F19F403C0D9
:101EB00081E001C080E080FD23C020919C0130E0E2
:101EC000C90101968770992740919B0150E08417C2
:101ED0009507F1F1F983EA837D836C8396E0929F05
:101EE000D001939FB00D1124A356BE4FFE01319631
:101EF00001900D929A95E1F780939C010E94A10CAC
:101F000016E080919B0190919C01891771F1189FB7
:101F1000C001112483569E4F0E943C0D882329F155
:101F2000E0919B011E9FF0011124E356FE4F40817A
:101F3000518162817381848195810E94910C80918D
:101F40009B0190E001968770992780939B01D9CFE0
:101F50000E94550C10929C0110929B01EDECF1E057
:101F600086E0DF011D928A95E9F72C960FB6F8946A
:101F7000DEBF0FBECDBFDF91CF911F910895EF92CD
:101F8000FF920F931F93CF93DF938C01892B09F45A
:101F90006CC0F12CEE24E394E8012196F8018491C1
:101FA000843740F4843008F051C0813081F08230B1
:101FB00019F15BC0853709F444C0A8F19CE7980F7C
:101FC000903708F052C08F770E944A0941C00E5FD7
:101FD0001F4FFE01849190E2980F983050F4877063
:101FE000FE2D01C0FF0F8A95EAF78F2F0E94411244
:101FF00014C00E94A0082DC00E5F1F4FFE018491E7
:1020000090E2980F983060F48770FE2D01C0FF0FAA
:102010008A95EAF78F2F0E9447120E946C1219C00E
:102020000E944A0916C00E5F1F4FFE01C491CC23C7
:1020300081F08FEC97E00197F1F700C00000C150EC
:10204000F6CF0E5F1F4FFE01F49003C00E94A00860
:102050008E018F2D882309F49FCFEFECF7E03197A5
:10206000F1F700C000008150F5CFDF91CF911F91B3
:102070000F91FF90EF900895089508950C943D10EE
:102080000C943E100E9440106093DC017093DD01BF
:102090008093DE019093DF010C943B0C0C94421072
:1020A0000F931F930091DC011091DD012091DE015F
:1020B0003091DF01602B712B822B932B1F910F919D
:1020C0000C9442100F931F930091DC011091DD01DD
:1020D0002091DE013091DF0160237123822393235D
:1020E0001F910F910C9442100F931F930091DC01EC
:1020F0001091DD012091DE013091DF016027712711
:10210000822793271F910F910C9442100C943D103D
:102110000E9486106093D8017093D9018093DA01F0
:102120009093DB010C943B0C60E070E0CB010C94CD
:1021300088100F931F9341E050E060E070E08A0147
:102140009B0104C0000F111F221F331F8A95D2F775
:10215000C901B8011F910F910C9488100F931F9320
:1021600041E050E060E070E004C0440F551F661F7E
:10217000771F8A95D2F78091D8019091D901A091CB
:10218000DA01B091DB018A019B01082B192B2A2B64
:102190003B2BC901B8011F910F910C9488100F932C
:1021A0001F9341E050E060E070E004C0440F551F11
:1021B000661F771F8A95D2F7409550956095709568
:1021C0008091D8019091D901A091DA01B091DB0101
:1021D0008A019B01082319232A233B23C901B80143
:1021E0001F910F910C9488100F931F9341E050E0C2
:1021F00060E070E004C0440F551F661F771F8A958A
:10220000D2F78091D8019091D901A091DA01B091D3
:10221000DB018A019B01082719272A273B27C901CF
:10222000B8011F910F910C9488100F931F93009188
:10223000D8011091D9012091DA013091DB01602B96
:10224000712B822B932B1F910F910C9488100F935D
:102250001F930091D8011091D9012091DA0130919A
:10226000DB0160237123822393231F910F910C9430
:1022700088100F931F930091D8011091D9012091DC
:10228000DA013091DB0160277127822793271F91A4
:102290000F910C9488100895890FE82FE695E69524
:1022A000E695877051E001C0550F8A95EAF785E001
:1022B000E89FF0011124ED52FE4F20E030E070E085
:1022C0004081CB01022E02C0969587950A94E2F7D1
:1022D0008170819584278523842781932F5F3F4FC9
:1022E0002530310569F70895890F682F6695669541
:1022F0006695982F977085E0689FB001112440E0A3
:1023000050E080E0FB01E40FF51FED52FE4F20810D
:1023100030E0092E02C0369527950A94E2F7217025
:102320003327042E01C0220F0A94EAF7822B4F5F55
:102330005F4F4530510531F70895BF92CF92DF923C
:10234000EF92FF920F931F93CF93DF938C01C09076
:10235000D801D090D901E090DA01F090DB018091B2
:10236000DC019091DD01A091DE01B091DF01C82A6E
:10237000D92AEA2AFB2ACFE1D0E0D701C6010C2EE8
:1023800004C0B695A795979587950A94D2F780FDD6
:1023900004C0219790F7B12C07C0BC2EB8018C2F38
:1023A0000E946D020197A9F38B2DDF91CF911F91B0
:1023B0000F91FF90EF90DF90CF90BF900895CF9353
:1023C000DF93EC010E949D11BE010E946D02DF911E
:1023D000CF9108951F93CF93DF93EB0190919A01D2
:1023E000992321F0CB010E94DF1113C0882349F00B
:1023F000CB010E949D11182F682FCE010E944C1115
:1024000004C0CB010E947411182FBE01812F0E94BD
:102410006D02DF91CF911F9108958091E001859524
:102420008595859508958091E00187700895909134
:10243000E001977081E009F480E008958091040242
:10244000089590910402892B809304020895809549
:10245000909104028923809304020895109204024B
:10246000089590910302892B80930302089580952B
:10247000909103028923809303020895109203022E
:10248000089590910202892B80930202089580950D
:102490009091020289238093020208951092020211
:1024A00008958091E101089508950C9454120C94BC
:1024B00055129091E101981721F08093E1010C945D
:1024C000571208958091E101882329F01092E101CB
:1024D00080E00C9457120895E0910001F091010101
:1024E000809104028083E0910001F09101019081CC
:1024F00080910302892B8083E0910001F09101011A
:10250000908180910202892B80838091E101882350
:1025100081F0E0910001F09101019081892B80838D
:1025200080910001909101010E94801381110E940D
:10253000621280910001909101010C9487070C9424
:10254000541298E0899F90011124262B2093E001DA
:102550000E94AE108091E0018595859585950C943B
:102560009F121092E00180E00C949F122091E001F4
:10257000809582238093E001982F977079F430E062
:10258000482F082E000C550B2417350739F0859578
:10259000859585950E94CF100C94B112089580E026
:1025A00090E00E942A2021E08C3E9E4F09F020E01E
:1025B000822F089582E090E00C942220682F82E020
:1025C00090E00C94302083E090E00C942220682F5F
:1025D00083E090E00C943020CF9384E090E00E9460
:1025E0002220C82F81E290E00E9422202C2F30E090
:1025F000A901582BCA01CF910895CF93C92F682FF5
:1026000084E090E00E9430206C2F81E290E0CF9136
:102610000C943020AB01BC018FE090E00C94422080
:10262000AB01BC0183E190E00C94422060E070E0DB
:10263000CB010C94101360E070E0CB010E940A13F0
:102640000C9416136CEE7EEF80E090E00E944E201A
:1026500060E082E090E00E94302060E083E090E063
:102660000E9430201092DC011092DD011092DE01F8
:102670001092DF0160E084E090E00E94302060E092
:1026800081E290E00E94302060E085E090E00E94CE
:10269000302060E086E090E00E9430206FEF87E01D
:1026A00090E00E94302040E050E0BA0188E090E0E5
:1026B0000E94422060E08DE090E00E94302040E0E7
:1026C00050E0BA0188E190E00E94422060E087E19A
:1026D00090E00E94302040E050E0BA018CE190E0B0
:1026E0000E94422060E080E290E00E9430200C9442
:1026F0001B130C942213682F8EE090E00C94302072
:10270000FC01329680911401882331F080913C02C3
:1027100087FF02C09EE101C096E080E0915028F062
:1027200021912223D9F38F5FF9CF0895662351F1C8
:10273000209114012223E9F020913C0227FF19C0C7
:10274000462F4695469546954E31E0F4677021E058
:1027500030E002C0220F331F6A95E2F7FC01E40F5C
:10276000F11D828190E02823392381E0232B69F435
:1027700009C0FC01329608962191621729F0E817EA
:10278000F907D1F780E0089581E008959C01FC01EC
:1027900032969FEF80E04191461789F09F3F19F4F0
:1027A000411101C0982F8F5F8630A9F79F3F39F004
:1027B000F901E90FF11D97FDFA95628308950895D7
:1027C0009C012A5F3F4FFC014281461301C01282E7
:1027D000019682179307B9F70895262F2695269517
:1027E00026952E3168F4FC01E20FF11D677021E09F
:1027F00030E001C0220F6A95EAF78281282B2283FC
:102800000895262F2695269526952E3170F4FC01E5
:10281000E20FF11D677021E030E001C0220F6A95E0
:10282000EAF72095828128232283089520911401BC
:10283000222329F020913C0227FD0C94ED130C94E7
:10284000C61320911401222329F020913C0227FD78
:102850000C9401140C94E01320911401FC013296A5
:10286000222331F080913C0287FF02C08EE101C03B
:1028700086E0DF011D928A95E9F7089508950C948A
:102880003E140C943E140E9441140E9478040E944D
:102890003F1480E00E945C0491E0811101C090E04F
:1028A000892F08950C943E140C9452140E945414D1
:1028B00080914202843049F11092060220E488E1BE
:1028C00090E00FB6F894A895809360000FBE209317
:1028D000600080E00E944D020E94541483B7817F03
:1028E000846083BF83B7816083BF7894889583B702
:1028F0008E7F83BF0FB6F894A895809160008861A1
:1029000080936000109260000FBE08950C943E14F6
:102910000E94550C0E947B070E944D020C94861465
:102920001F920F920FB60F9211248F939F93AF9324
:10293000BF9380910602811113C08091380290915B
:102940003902A0913A02B0913B024196A11DB11DFE
:102950008093380290933902A0933A02B0933B02DD
:10296000BF91AF919F918F910F900FBE0F901F90CD
:10297000189582E084BD93E095BD9DE797BD809357
:102980006E0008952FB7F894809138029091390223
:10299000A0913A02B0913B022FBF08959C014FB71E
:1029A000F8948091380290913902A0913A02B09146
:1029B0003B024FBF821B930B089578941F920F9296
:1029C0000FB60F9211248F939F93AF93BF93809173
:1029D000380290913902A0913A02B0913B020196DF
:1029E000A11DB11D8093380290933902A0933A0241
:1029F000B0933B02BF91AF919F918F910F900FBE0B
:102A00000F901F90189587E797E7909301088093A0
:102A100000089AE088E10FB6F894A89580936000CA
:102A20000FBE90936000FFCFCF93C82F80E00E942D
:102A30005C0480FD02C080E00BC060E070E080E0DC
:102A40000E9457022C2F30E028173907A1F781E0A8
:102A5000CF910895CF93C82F8CE20E94141588233C
:102A600021F08C2FCF910C94141580E0CF91089514
:102A7000CF930E94CF12811102C00E947913C5E644
:102A8000C15049F00E9478048FE19EE40197F1F76C
:102A900000C00000F5CF89E20E942A1581112AC1E9
:102AA0008AE20E942A1581110E94791385E00E9412
:102AB0002A1581110E9403150E94DA1280930502E3
:102AC00087E00E942A158823A9F18BE10E942A152C
:102AD000882351F08091050281FB222720F991E0A3
:102AE000922790FB81F90EC08EE00E942A15882360
:102AF00061F08091050282FB222720F991E0922764
:102B000090FB82F98093050215C080E10E942A158E
:102B100090910502882341F093FB222720F981E060
:102B2000822780FB93F904C0892F809580FB90F960
:102B300090930502809105020E94DE120E94EC1221
:102B400090933D0280933C0280EE0E942A158823D8
:102B500041F080913C02982F909590FB80F98093F2
:102B60003C0289E30E942A15882359F080913C0297
:102B700081FB222720F991E0922790FB81F9809335
:102B80003C0282EE0E942A15882359F080913C0273
:102B900082FB222720F991E0922790FB82F9809313
:102BA0003C0286EE0E942A15882359F080913C024F
:102BB00083FB222720F991E0922790FB83F98093F1
:102BC0003C0283EE0E942A15882359F080913C0232
:102BD00084FB222720F991E0922790FB84F98093CF
:102BE0003C0285E30E942A15882359F080913C021B
:102BF00085FB222720F991E0922790FB85F98093AD
:102C00003C0281E30E942A15882359F080913C02FE
:102C100086FB222720F991E0922790FB86F980938A
:102C20003C0281E10E942A15882359F080913C02E0
:102C300087FB222720F991E0922790FB87F9809368
:102C40003C0280913C0290913D020E94FD1287E27D
:102C50000E942A15C82F8EE10E942A158111C26098
:102C60008FE10E942A158111C46080E20E942A151A
:102C70008111C86081E20E942A158111C06182E23F
:102C80000E942A158111C06283E20E942A158111D7
:102C9000C06484E20E942A15882311F0C06802C033
:102CA000CC2329F08C2F0E94E7126C2F03C00E94C6
:102CB000E312682F70E080E090E00E944E10609177
:102CC000D8017091D9018091DA019091DB010E94C5
:102CD00086108FE00E942A15882319F081E00E9457
:102CE0007B1385E10E942A15882321F080E0CF9193
:102CF0000C947B13CF91089580910D0280FF0BC03F
:102D00006091070185E0689FB00111247595679572
:102D1000759567952BC081FF09C06091070185E01B
:102D2000689FB00111247595679520C082FF07C088
:102D30006091070185E0689FB001112417C0909150
:102D40000C029923D1F060910601961788F7209123
:102D5000070185E0289F90011124929FA001939F75
:102D6000500D112470E0CA010E94F41F60387105F3
:102D700040F46115710519F406C065E070E0862F16
:102D800008958FE7089581E0089580910D0280FFF6
:102D900008C06091030170E075956795759567951A
:102DA00021C081FF06C06091030170E075956795B1
:102DB00019C082FF04C06091030170E010C09091BF
:102DC0000B02992399F0609102019617A0F7809168
:102DD0000301899FC001112470E00E94F41F603834
:102DE000710540F46115710519F406C061E070E0E9
:102DF000862F08958FE7089581E00895803F21F49C
:102E00000E947C16819504C0813F29F40E947C16A3
:102E1000809311020895823F21F40E947C168195CF
:102E200004C0833F29F40E947C1680931002089509
:102E3000893F19F40E94C51605C08A3F31F40E94EB
:102E4000C51681958093120208958B3F21F40E944C
:102E5000C516819504C08C3F29F40E94C516809345
:102E600013020895843F21F480910F02816017C0FE
:102E7000853F21F480910F02826011C0863F21F4CA
:102E800080910F0284600BC0873F21F480910F0274
:102E9000886005C0883F31F480910F028061809383
:102EA0000F0208958D3F21F480910D0281600BC0C7
:102EB0008E3F21F480910D02826005C08F3F29F47E
:102EC00080910D02846080930D020895803F39F453
:102ED0008091110287FF6AC01092110267C0813F82
:102EE00029F4809111021816BCF360C09091100271
:102EF000823F29F497FF5AC01092100257C0833FB7
:102F000019F41916CCF352C090911202893F31F492
:102F100019160CF04BC01092120248C08A3F19F4E7
:102F200097FF44C0F8CF8B3F39F48091130287FF9D
:102F30003DC0109213023AC08C3F29F480911302D5
:102F40001816BCF333C0843F21F480910F028E7FAA
:102F500017C0853F21F480910F028D7F11C0863FFD
:102F600021F480910F028B7F0BC0873F21F4809169
:102F70000F02877F05C0883F31F480910F028F7E5A
:102F800080930F0213C08D3F21F480910D028E7F3C
:102F90000BC08E3F21F480910D028D7F05C08F3FC5
:102FA00029F480910D028B7F80930D028091100295
:102FB000811106C080911102811102C010920C0291
:102FC00080911202811106C080911302811102C00A
:102FD00010920B0208950E94C21420911002211138
:102FE00004C020911102222321F090930A028093C1
:102FF000090220911202211104C020911302222300
:1030000021F090930802809307028EE092E00C94E6
:10301000A107EF92FF920F931F93CF93DF9300D0FE
:1030200000D000D0CDB7DEB786E0EEE0F2E0DE0102
:10303000119601900D928A95E1F7E0901002F090C0
:1030400011020091120210911302109210021092BC
:1030500011021092120210921302E11003C0FF201D
:1030600009F45DC08091090290910A020E94CE1479
:10307000AC0190910C02992339F02091080130E0C5
:103080002417350758F04BC0209109018AE0289F8A
:10309000900111242417350718F041C09F3F19F003
:1030A0009F5F90930C02EE2061F00E947C161E142C
:1030B00014F09FEF01C091E0989F902D1124909300
:1030C0001002FF2061F00E947C161F1414F09FEF85
:1030D00001C091E0989F902D11249093110230919E
:1030E00010023323E1F0209111022223C1F045EBBD
:1030F0003403C0011124992319F09093100203C0E6
:1031000081E08093100235EB2303C0011124992341
:1031100019F09093110203C081E080931102011114
:1031200003C0112309F45DC0809107029091080249
:103130000E94CE14AC0190910B02992339F020919A
:10314000040130E02417350758F04BC020910501E9
:103150008AE0289F900111242417350718F041C0F8
:103160009F3F19F09F5F90930B02002361F00E9434
:10317000C516101614F09FEF01C091E0989F902D96
:10318000112490931202112361F00E94C5161116AA
:1031900014F09FEF01C091E0989F902D112490931F
:1031A0001302309112023323E1F020911302222303
:1031B000C1F045EB3403C0011124992319F0909319
:1031C000120203C081E08093120235EB2303C00199
:1031D0001124992319F09093130203C081E0809386
:1031E00013028091100281110BC080911102811194
:1031F00007C080911202811103C0809113028111D6
:103200000E94EB17EB82FC820D831E8386E0FE0199
:103210003196AEE0B2E001900D928A95E1F72696E4
:103220000FB6F894DEBF0FBECDBFDF91CF911F91D7
:103230000F91FF90EF900895EEE0F2E086E0DF015D
:103240001D928A95E9F710920C0210920B021092CF
:103250000D020895809134020895CF93DF9300D03A
:103260001F92CDB7DEB790914202943019F5898351
:103270007B836A8382E08093E9008FEF9091E8007E
:10328000815095FD06C09AE69A95F1F700C081112C
:10329000F5CF8091E80085FF0DC040E050E063E08D
:1032A00070E0CE0101960E94591B8091E8008E7754
:1032B0008093E8000F900F900F90DF91CF910895C9
:1032C000BC0184E00C942D19BC0183E00C942D19F1
:1032D00022E02093E9002FEF3091E800215035FDE6
:1032E00006C03AE63A95F1F700C02111F5CF2091DA
:1032F000E80025FF0BC040E050E066E070E00E946F
:10330000591B8091E8008E778093E8000895CF9351
:10331000DF9320911401222339F020913C0227FFF2
:1033200003C060E222E002C068E021E02093E900EF
:103330002FEF3091E800215035FD06C03AE63A956E
:10334000F1F700C02111F5CF2091E80025FF1DC045
:10335000EC0180911401811105C040E050E068E06B
:1033600070E003C070E040E050E0CE010E94591BC5
:103370008091E8008E778093E80080E2FE01A4E16E
:10338000B2E001900D928A95E1F7DF91CF91089517
:1033900080914102811109C00E94EA1C0E94471DD0
:1033A0008091E20084608093E200089510924102CF
:1033B0000895089508950C94881442E061EC81E02A
:1033C0000E94631C42E261EC82E00C94631C8091D9
:1033D0004402833009F460C030F4813071F08230EF
:1033E00009F499C008958A3009F485C08B3009F436
:1033F0006BC0893009F0A7C020C080914302813A98
:1034000009F0A1C08091E800877F8093E800809157
:10341000470290914802892B21F460E284E192E016
:1034200003C060E080E090E070E00E94A41B809107
:10343000E8008B778093E800089580914302813201
:1034400009F081C08091470290914802029708F0EC
:103450007AC08091E800877F8093E8008091E8003F
:1034600082FD05C0809142028111F8CF6CC020918D
:10347000F3008091F20090E0922B029729F4809162
:10348000F1008B7F813021F48091F1008093340230
:103490008091E8008B7753C080914302813A09F014
:1034A00052C08091470290914802892B09F04BC08D
:1034B0008091E800877F8093E8008091E80080FF9A
:1034C000FCCF8091140136C0809143028132D9F53E
:1034D0008091470290914802892BA9F58091E800DC
:1034E000877F8093E8000E94981C8091450280931A
:1034F00014010C94550C80914302813221F5809186
:10350000E800877F8093E8000E94981C8091460223
:1035100080933502089580914302813AA1F480910D
:10352000E800877F8093E8008091E80080FFFCCF6F
:10353000809135028093F1008091E8008E7780932E
:10354000E8000C94981C089584B7877F84BF0FB659
:10355000F894A89580916000886180936000109233
:1035600060000FBE90E080E80FB6F8948093610091
:10357000909361000FBE0E94EB070E94EA1C0E941C
:10358000471D8091E20084608093E20078940E945D
:10359000D91F0E94F5078AE091E00E94760780918A
:1035A0004202853069F40E945614809140028823BB
:1035B000B1F30E944314882391F30E94441BEFCF80
:1035C0000E94FF07ECCF0C94E51A292F33272330F4
:1035D0003105C9F060F42130310581F02230310528
:1035E00009F04AC08BE390E024E431E049C0213285
:1035F000310511F12232310579F13EC082E190E0CE
:103600002FE731E03DC099278130910561F040F00E
:103610008230910559F0039779F5ECE1F1E008C0AB
:10362000E0E4F1E005C0E4E3F1E002C0E2E2F1E051
:10363000849190E09F0124C06115710541F06130D3
:103640007105D1F489E090E02FE631E019C089E0FE
:1036500090E026E531E014C06115710541F061305C
:10366000710551F48CEB90E021E931E009C080E470
:1036700090E02DE432E004C080E090E020E030E013
:10368000FA0131832083089519BC82E089BD09B411
:1036900000FEFDCF8091D8008F7D8093D80080916F
:1036A000E00082608093E0008091E00081FDFCCF2B
:1036B0000895CF92DF92EF92FF920F931F93CF93D3
:1036C000DF93EC018B017A010E94B71C811133C09A
:1036D000E114F10439F0F70180819181081B190B85
:1036E000C80FD91FC12CD12C0115110519F18091DA
:1036F000E80085FD16C08091E8008E778093E80091
:10370000E114F10449F0F70180819181C80ED91EBE
:10371000D182C08285E00FC00E94B71C882321F3AC
:103720000AC089918093F10001501109FFEFCF1A6F
:10373000DF0ADACF80E0DF91CF911F910F91FF90E8
:10374000EF90DF90CF9008952091490230914A0286
:103750002617370748F06115710539F42091E80004
:103760002E772093E80001C0B901FC0120E061152B
:10377000710579F1809142028823F1F18530F1F1F0
:103780008091E80083FD3CC08091E80082FD2EC05E
:103790008091E80080FFEBCF2091F3008091F20050
:1037A00090E0922B6115710551F08830910538F445
:1037B00021912093F100615071090196F3CF21E02E
:1037C000089709F020E08091E8008E778093E80068
:1037D000CECF2111CFCF0AC080914202882361F061
:1037E000853061F08091E80083FD0AC08091E80097
:1037F00082FFF2CF80E0089582E0089583E008958B
:1038000081E008952091490230914A022617370736
:1038100048F06115710539F42091E8002E77209366
:10382000E80001C0B901FC0120E06115710591F1CA
:1038300080914202882309F440C0853009F43FC0DA
:103840008091E80083FD3DC08091E80082FD2FC09B
:103850008091E80080FFE9CF2091F3008091F20091
:1038600090E0922B6115710559F08830910540F474
:1038700024912093F1003196615071090196F2CFA5
:1038800021E0089709F020E08091E8008E7780938E
:10389000E800CBCF2111CCCF0AC08091420288230F
:1038A00061F0853061F08091E80083FD0AC080916D
:1038B000E80082FFF2CF80E0089582E0089583E07F
:1038C000089581E00895982F973068F59093E90066
:1038D000981739F07091EC002091ED005091F000B4
:1038E00003C0242F762F50E021FD02C09F5FECCF54
:1038F0003091EB003E7F3093EB003091ED003D7F47
:103900003093ED003091EB0031603093EB00709319
:10391000EC002093ED005093F0002091EE0027FD85
:10392000E5CF80E008958F708093E90081E00895ED
:103930008091430287FF11C08091E80082FD05C09D
:10394000809142028111F8CF11C08091E8008B77FD
:103950000BC080914202882349F08091E80080FFEB
:10396000F8CF8091E8008E778093E8000895209149
:10397000E4003091E50095E64091EC00842F8170E1
:1039800040FF23C08091E80080FD1DC0809142026D
:10399000882399F0853099F08091EB0085FD11C066
:1039A0004091E4005091E5002417350729F3915028
:1039B00011F09A01E1CF84E0089582E0089583E058
:1039C000089581E0089580E008954091E80042FF65
:1039D000DDCF08950E94581D0E94601DE0EEF0E0CA
:1039E000808181608083E8EDF0E080818F77808343
:1039F00019BCA7EDB0E08C918E7F8C9380818F7E77
:103A000080831092410208950F931F93CF93DF9309
:103A10000E94581D0E94601DC8EDD0E088818F77FC
:103A2000888388818068888388818F7D888319BC9A
:103A30001092420210923E021092400210923F02F7
:103A400000EE10E0F80180818B7F808388818160A7
:103A5000888342E060E080E00E94631CE1EEF0E0D9
:103A600080818E7F8083E2EEF0E0808181608083C0
:103A7000808188608083F80180818E7F8083888147
:103A800080618883DF91CF911F910F910895E8EDB8
:103A9000F0E080818F7E8083E7EDF0E080818160BF
:103AA000808384E082BF81E0809341020C94041DF6
:103AB000E8EDF0E080818E7F80831092E20008952F
:103AC0001092DA001092E10008951F920F920FB643
:103AD0000F9211242F933F934F935F936F937F9394
:103AE0008F939F93AF93BF93EF93FF938091E100E8
:103AF00082FF0BC08091E20082FF07C08091E1004D
:103B00008B7F8093E1000E94D81F8091DA0080FFB4
:103B10001DC08091D80080FF19C08091DA008E7F8F
:103B20008093DA008091D90019BC80FF0BC082E03D
:103B300089BD09B400FEFDCF81E0809342020E945E
:103B4000C81904C0109242020E94D6198091E10067
:103B500080FF19C08091E20080FF15C08091E200D3
:103B60008E7F8093E2008091E20080618093E2008A
:103B70008091D80080628093D80019BC85E0809342
:103B800042020E94DA198091E10084FF2FC08091E7
:103B9000E20084FF2BC019BC82E089BD09B400FE9D
:103BA000FDCF8091D8008F7D8093D8008091E10077
:103BB0008F7E8093E1008091E2008F7E8093E2000F
:103BC0008091E20081608093E20080913E02882330
:103BD00011F084E007C08091E30087FD02C081E01E
:103BE00001C083E0809342020E94DB198091E100D2
:103BF00083FF29C08091E20083FF25C08091E1000E
:103C0000877F8093E10082E08093420210923E021F
:103C10008091E1008E7F8093E1008091E2008E7FB1
:103C20008093E2008091E20080618093E20042E0B4
:103C300060E080E00E94631C8091F00088608093C7
:103C4000F0000E94D919FF91EF91BF91AF919F9120
:103C50008F917F916F915F914F913F912F910F9035
:103C60000FBE0F901F9018951F920F920FB60F92D4
:103C700011242F933F934F935F936F937F938F9371
:103C80009F93AF93BF93CF93DF93EF93FF93C09135
:103C9000E900CF708091EC00D82FD17080FDD0E882
:103CA0001092E9008091F000877F8093F000789473
:103CB0000E94781E1092E9008091F0008860809345
:103CC000F000CD2BCF70C093E900FF91EF91DF9111
:103CD000CF91BF91AF919F918F917F916F915F91A4
:103CE0004F913F912F910F900FBE0F901F901895FD
:103CF0001F93CF93DF93CDB7DEB7AA970FB6F89493
:103D0000DEBF0FBECDBFE3E4F2E08091F10081930E
:103D100022E0EB34F207C9F70E94E7198091E8002E
:103D200083FF2EC18091430290914402492F50E0BD
:103D30004A30510508F024C1FA01EC58FF4F0C94A9
:103D40000820803821F0823809F01AC108C080911B
:103D50003F0290914002992389F082600FC08091C8
:103D600047028F70873008F00BC18093E900809183
:103D7000EB0085FB882780F91092E9009091E8001C
:103D8000977F9093E8008093F1001092F100D1C0EA
:103D9000282F2D7F09F0F4C0882319F0823061F0BC
:103DA000EFC080914502813009F0EAC0933009F0FC
:103DB00080E0809340022EC08091450281112AC08C
:103DC000809147028F702FEF280F263008F0D8C05F
:103DD0008093E9002091EB0020FF1CC0933021F478
:103DE0008091EB00806214C09091EB009061909301
:103DF000EB0021E030E0A90102C0440F551F8A9575
:103E0000E2F74093EA001092EA008091EB008860AC
:103E10008093EB001092E9008091E800877F809307
:103E2000E8000E94981CACC08111AAC01091450204
:103E30001F778091E3008078812B8093E30080914D
:103E4000E800877F8093E8000E94981C8091E8003A
:103E500080FFFCCF8091E30080688093E300111124
:103E600002C082E001C083E08093420289C0805892
:103E7000823008F085C080914502909146028C3DC9
:103E800053E0950779F583E08A838AE289834FB707
:103E9000F894DE01139620E03EE051E2E32FF0E0DB
:103EA00050935700E49120FF03C0E295EF703F5F0D
:103EB000EF708E2F90E0EA3010F0C79601C0C096E8
:103EC0008D939D932F5F243149F74FBF8091E80078
:103ED000877F8093E8006AE270E0CE0101960E943D
:103EE000A41B16C06091470270914802AE014F5F5B
:103EF0005F4F0E94E31ABC01892B09F441C09091E5
:103F0000E800977F9093E80089819A810E94021CC3
:103F10008091E8008B778093E80032C0803881F58B
:103F20008091E800877F8093E80080913E02809333
:103F3000F1008091E8008E7772CF811121C08091CD
:103F400045029091460299270297D4F48091E800A7
:103F5000877F8093E8008091450280933E020E9413
:103F6000981C80913E02811106C08091E30087FD7C
:103F700002C081E001C084E0809342020E94DD190A
:103F80008091E80083FF0AC08091E800877F8093DA
:103F9000E8008091EB0080628093EB00AA960FB658
:103FA000F894DEBF0FBECDBFDF91CF911F91089572
:103FB0000895CF93809142028823A1F0C091E90037
:103FC000CF709091EC00892F817090FD80E8C82B14
:103FD0001092E9008091E80083FD0E94781ECF7066
:103FE000C093E900CF91089597FB072E16F4009433
:103FF00007D077FD09D00E940E2007FC05D03EF4C3
:10400000909581959F4F0895709561957F4F089584
:10401000EE0FFF1F0590F491E02D0994AA1BBB1B26
:1040200051E107C0AA1FBB1FA617B70710F0A61BB8
:10403000B70B881F991F5A95A9F780959095BC01D9
:10404000CD010895F999FECF92BD81BDF89A9927C7
:1040500080B50895A8E1B0E042E050E00C9456200D
:10406000262FF999FECF92BD81BDF89A019700B431
:10407000021639F01FBA20BD0FB6F894FA9AF99AD1
:104080000FBE08950396272F0E9431200E943020F2
:10409000252F0E943120242F0C9431200196272FA8
:1040A0000E9431200C943020DC01CB01FC01F999F5
:1040B000FECF06C0F2BDE1BDF89A319600B40D9274
:0C40C00041505040B8F70895F894FFCF2D
:1040CC00E2012808641E140A321E2A19871968197D
:1040DC006419601901E200E900EA00B500B600B706
:1040EC0000CD008301CC008A0192019401210223AE
:1040FC000224022502260227022A02B300B4006F12
:10410C0000700081828300FF0100010000FFFF00AE
:10411C0000010001FF00E200E900EA00B500B60072
:10412C00B700CD008301CC008A01920194012102D9
:10413C00230224022502260227022A02B300B4001D
:08414C006F0070008182830006
:00000001FF
